:100000000C9450050C9488050C9488050C94880574
:100010000C9488050C9488050C9488050C9488052C
:100020000C9488050C9488050C94AB290C947F2AB9
:100030000C94D01F0C9488050C9488050C948805AA
:100040000C9488050C9488050C9488050C948805FC
:100050000C9488050C9457200C9488050C94880502
:100060000C9488050C9488050C9488050C948805DC
:100070000C9488050C9488050C9488050C948805CC
:100080000C9488050C9488050C9488050C948805BC
:100090000C9488050C9488050C9488050C948805AC
:1000A0000C9488050C9488050C9488052B0014008A
:1000B0001A000800150017001C0018000C001200A0
:1000C00013002F0030002A0039000400160007003A
:1000D00009000A000B000D000E000F003300340071
:1000E00028004B00E1001D001B0006001900050060
:1000F00011001000360037003800E50052004E00B5
:10010000E000E200E3002C0000002C0000002C00C6
:10011000000001510251500051004F0035001E00F7
:100120001F002000210022002300240025002600BB
:1001300027002D002E004C000100010001000100ED
:1001400001000100010001000100010001000100A7
:100150000100010001000100010001000100010097
:100160000100010001000100010001000100010087
:100170000100010001000100000001000000010079
:1001800000000100010001000100010029003A0007
:100190003B003C003D003E003F004000410042006B
:1001A000430044004500010001000100010001007E
:1001B0000100010001000100010001000100010037
:1001C0000100010001000100010001000100010027
:1001D0000100010001000100010001000100010017
:1001E0000100010001000100000001000000010009
:1001F00000000100010001000100010044454255DA
:10020000473A2064697361626C65642E0A00444554
:100210004255473A20656E61626C65642E0A000A99
:100220000025303258006C65645F7461736B3A204E
:10023000004F6E6573686F743A2061637469766508
:100240003A2025640A000A002530313662003A203F
:100250000025303258000A722F6320303132333497
:1002600035363738394142434445460A00290A00A9
:100270002575002F002575005D28002564002000ED
:10028000256400200025640020002564007C0025F2
:10029000303258006D6F7573656B6579205B6274E1
:1002A0006E7C782079207620685D287265702F61D9
:1002B000636C293A205B00313A0964656C617928E6
:1002C0002A31306D73293A2025750A323A09696E50
:1002D00074657276616C286D73293A2025750A332E
:1002E0003A096D61785F73706565643A2025750A17
:1002F000343A0974696D655F746F5F6D61783A2097
:1003000025750A353A09776865656C5F6D61785FB8
:1003100073706565643A2025750A363A0977686511
:10032000656C5F74696D655F746F5F6D61783A20AD
:1003300025750A00703A097072696E742076616CD6
:100340007565730A643A097365742064656661753E
:100350006C74730A75703A092B310A646E3A092D70
:10036000310A6C743A092B31300A72743A092D3112
:10037000300A4553432F713A09717569740A0A733B
:1003800070656564203D2064656C7461202A206D71
:1003900061785F7370656564202A202872657065D6
:1003A0006174202F2074696D655F746F5F6D617873
:1003B000290A77686572652064656C74613A206308
:1003C0007572736F723D25642C20776865656C3D8E
:1003D00025640A53656520687474703A2F2F656E22
:1003E0002E77696B6970656469612E6F72672F770C
:1003F000696B692F4D6F7573655F6B6579730A0063
:100400004D3E20004D25753A25733E20003F0A00E1
:100410003D2025750A003F0A0064656661756C74AD
:10042000730A0025750A003F0A000A092D2056614B
:100430006C756573202D0A00710A000A092D204D84
:100440006F7573656B6579202D0A003F00433E2070
:10045000004C25640A000A092D20537461747573D9
:10046000202D0A686F73745F6B6579626F617264C7
:100470005F6C65647328293A20253032580A6B6511
:1004800079626F6172645F70726F746F636F6C3AE0
:1004900020253032580A6B6579626F6172645F693A
:1004A000646C653A20253032580A74696D65725F54
:1004B00072656164333228293A202530386C580A35
:1004C000002573000A092D20436F6E736F6C652041
:1004D0002D0A4553432F713A09717569740A6D3AB3
:1004E000096D6F7573656B65790A000A092D204DDA
:1004F00061676963202D0A443A0944656275672083
:100500004D65737361676520546F67676C650A5842
:100510003A094D6174726978204465627567204DAF
:100520006F646520546F67676C65202D2053686F7A
:1005300077206B65797072657373657320696E20BF
:100540006D617472697820677269640A4B3A094B6D
:100550006579626F61726420446562756720546FCB
:1005600067676C65202D2053686F77206B65797005
:1005700072657373207265706F72740A4D3A094424
:1005800065627567204D6F75736520546F67676C82
:10059000650A563A0956657273696F6E0A533A09CD
:1005A0005374617475730A433A09416374697661DF
:1005B000746520436F6E736F6C65204D6F64650AC0
:1005C00046312D4631303A09537769746368207497
:1005D0006F204C6179657220302D392028463130EA
:1005E000203D204C30290A302D393A09537769745F
:1005F000636820746F204C6179657220302D390A50
:1006000047524156453A0953776974636820746FBD
:10061000204C6179657220302028616C7465726E9F
:10062000617465290A423A094A756D7020746F2019
:10063000426F6F746C6F616465720A4553433A0987
:100640004A756D7020746F20426F6F746C6F6164B7
:1006500065722028616C7465726E617465290A4543
:100660003A095072696E7420454550524F4D2053DF
:10067000657474696E67730A4241434B535041433A
:10068000453A09436C65617220454550524F4D0A09
:10069000006B65796D61705F636F6E6669672E725E
:1006A00061773A20253032580A2E737761705F6384
:1006B0006F6E74726F6C5F636170736C6F636B3AB3
:1006C0002025750A2E636170736C6F636B5F746FA6
:1006D0005F636F6E74726F6C3A2025750A2E7377A4
:1006E00061705F6C63746C5F6C6775693A20257527
:1006F0000A2E737761705F7263746C5F72677569DD
:100700003A2025750A2E737761705F6C616C745F97
:100710006C6775693A2025750A2E737761705F7270
:10072000616C745F726775693A2025750A2E6E6F69
:100730005F6775693A2025750A2E737761705F6768
:10074000726176655F6573633A2025750A2E73774B
:1007500061705F6261636B736C6173685F62616338
:100760006B73706163653A2025750A2E6E6B726F2C
:100770003A2025750A2E737761705F657363617027
:10078000655F636170736C6F636B3A2025750A0057
:1007900064656275675F636F6E6669672E72617705
:1007A0003A20253032580A2E656E61626C653A2017
:1007B00025750A2E6D61747269783A2025750A2EA6
:1007C0006B6579626F6172643A2025750A2E6D6FD0
:1007D0007573653A2025750A006565636F6E6669F5
:1007E000673A0A64656661756C745F6C61796572FD
:1007F0003A2025750A003F000A6D6F7573653A202F
:100800006F66660A000A6D6F7573653A206F6E0A2F
:10081000000A6B6579626F6172643A206F66660ADE
:10082000000A6B6579626F6172643A206F6E0A002C
:100830000A6D61747269783A206F66660A000A6D03
:1008400061747269783A206F6E0A000A6465627595
:10085000673A206F66660A000A64656275673A2027
:100860006F6E0A000A0A4A756D70696E6720746FB0
:1008700020626F6F746C6F616465722E2E2E200083
:10088000433E2000436C656172696E6720454550A8
:10089000524F4D0A000A002530325820006B65790E
:1008A000626F6172645F7265706F72743A20005B90
:1008B000735D005B575D005B535D005B525D005BE9
:1008C000445D005B435D00080368003500300000B4
:1008D000001A034D0041004E005500460041004300
:1008E0000054005500520045005200000004030966
:1008F000040902BF00050100A0FA09040000010379
:1009000001010009211101000122400007058103B6
:100910000800010904010001030000000921110180
:100920000001227B00070582032000010904020068
:100930000203000000092111010001222200070525
:10094000830320000107050303200001080B0302B5
:100950000101000009040300000101000009240155
:10096000000109000104090404000201030000075A
:1009700024010001410006240201010006240202B4
:1009800002000924030103010201000924030204F7
:1009900001010100090505024000050000052501CF
:1009A000010109058402400005000005250101033D
:1009B0001201000200000008594802000100010273
:1009C00000010631FF0974A1010975150026FF0019
:1009D0009520750881020976150026FF009520757F
:1009E000089102C005010902A10185020901A100C7
:1009F00005091901290815002501950875018102CD
:100A00000501093009311581257F95027508810698
:100A100009381581257F950175088106050C0A386E
:100A2000021581257F950175088106C0C005010961
:100A300080A101850319012AB700150126B7009589
:100A40000175108100C0050C0901A101850419017F
:100A50002AA002150126A002950175108100C0058B
:100A6000010906A101050719E029E71500250195EF
:100A70000875018102950175088101050719002992
:100A8000FF150026FF00950675088100050819016D
:100A90002905950575019102950175039101C00025
:100AA00011241FBECFEFDAE0DEBFCDBF04B603FED8
:100AB00018C08091970490919804A0919904B091E6
:100AC0009A048730904BA740B04B59F4109297048A
:100AD000109298041092990410929A04E0E0F8E3BE
:100AE000099512E0A0E0B1E0ECE0FAE502C0059063
:100AF0000D92AE3CB107D9F724E0AEECB2E001C0F4
:100B00001D92A739B207E1F70E9411160C94EE2C42
:100B10000C940000FF93EF93E091CE02F091CF028E
:100B2000309709F00995EF91FF910895FC018591A7
:100B3000803011F0EFDFFBCF0895FF27E0E230E2D5
:100B400047FF0CC0419597FF09C0EDE26095709595
:100B500080959095611D711D811D911D27FF02C01B
:100B6000219530E350E2AA27660F771F881F991F4F
:100B7000AA1FA41710F0A41B63955A95A9F7AA30D1
:100B800008F0A95FA05DAF93F3956115710581052C
:100B9000910541F7ED3211F4EF93F395F21718F444
:100BA0003F93F395FBCF8F91B5DFFA95E1F7089569
:100BB000E991F9918591803021F0853219F0AADF11
:100BC000F9CF089520E0E89455915532C1F35033A0
:100BD00011F4689455915A3348F4505390F3220F0E
:100BE000022E220F220F200D250FF4CF0EF4219597
:100BF00089919991533619F3533729F1533559F1A6
:100C0000BC0188279927E8945C3621F48991999151
:100C100068945591543639F446EF7EF077FF0DC055
:100C20008FEF9FEF0AC055374AE039F0583540E161
:100C300021F0523642E009F00895FF93EF937DDFF3
:100C4000EF91FF91B7CFFF93EF93FC01819180303B
:100C5000B9F360DFFBCFFF93EF9368DFF1CFDF9352
:100C6000CF93CDB7DEB72596A3DFCF91DF9108955F
:100C700081E0089581E008950E943A06089508955C
:100C80000E943F060895A5E0B0E0E9E4F6E00C9488
:100C90006E2C49835A833091D50289819A81311112
:100CA00019C0662399F0222389F00E94A30C182F03
:100CB000682F89819A810E947F0C69817A81812FB6
:100CC0000E9437132596E3E00C948A2C0E94910C25
:100CD000182FF3CF0E94A30C69817A81F1CFFC0118
:100CE000262F408151816281738184810E94430655
:100CF000089581E00895CF93DF93EC0160E00E94B6
:100D00006F06BE010E944006DF91CF9108950E94B8
:100D1000751408950E947914089508950E944A0B4D
:100D20000E948D062FEF84E39CE02150804090408C
:100D3000E1F700C0000008950E948E060E947B200B
:100D400008950E948E060E949F2008950F931F937E
:100D5000CF93DF938C0161E00E946F06EC01B80134
:100D60000E943C06811106C080E0DF91CF911F9167
:100D70000F910895B801CE010E94441E8823A1F36B
:100D8000B801CE010E942919882371F3B801CE0160
:100D90000E94B61D882341F3F80182818823D9F08F
:100DA000CB35FDE5DF07A9F170F4C130ECE5DE07D6
:100DB000B1F0CF3DFCE5DF0721F1C115DC4559F469
:100DC0000E949C06D1CFCD35EDE5DE07F9F020F18C
:100DD000C83ADD45C1F0C8010E943806C6CF9091DF
:100DE0005403892F8E7F90FF81608093540380FF8E
:100DF00005C08EE092E00E949605B6CF8CEF91E0A0
:100E0000FACF0E9470110E94A106AECF0E94AE10D0
:100E1000E2CF0E94B810DFCF0E94BC10DCCF0E944E
:100E2000AC1F0E945D0708950E9461070E94B11FD8
:100E30000895829590E09C01220F331F220F331FEB
:100E40002C7C95958795959587958373282B30E015
:100E5000C901880F991F8A7A359527952575822BA8
:100E60000895CF93DF93D92F0E941907C82F8D2F94
:100E70000E9419079C2FDF91CF91089508950E9439
:100E80003E07089581E00895CF93C82F0E9442073E
:100E9000882319F0C1FF03C05D9ACF9108955D9832
:100EA000FCCF559A5D980895CF93C82F0E943F07B5
:100EB0008C2F0E944407CF91089580E00E94540730
:100EC00008950E94A01E0E9454070895CF930E9487
:100ED000A01EC82F8091D0028C1789F1C093D00238
:100EE0000E943C206093D1027093D2028093D3027F
:100EF0009093D4028091540382FF1EC080FF1CC0D7
:100F000086E292E00E9496058091540380FF14C00F
:100F10001F92CF9381E292E09F938F930E942F06BE
:100F2000809154030F900F900F900F9080FF04C09A
:100F30008FE192E00E9496058C2F0E945407CF917A
:100F40000895ABE0B0E0E7EAF7E00C946F2C4F8334
:100F5000588769877A878B8761110E94E60F1E8206
:100F60001D8285E0FE013796DE01119601900D92FB
:100F70008A95E1F78C819D81892B61F449815A81A1
:100F80006B817C818D819E810E940F0F2B96E2E008
:100F90000C948B2C89819A8189238F3F79F3CE0120
:100FA00001960E9479068111E9CFF0CFFC01808182
:100FB00091810E94D50C0895CF93C82F8823C9F042
:100FC0008238C9F40E94A01E81FD13C089E30E94EB
:100FD0009E0F0E9407102FEF87EE93E02150804074
:100FE0009040E1F700C0000089E30E94A60F0E9434
:100FF0000710CF9108958338A1F40E94A01E80FDB0
:10100000F8CF83E50E949E0F0E9407102FEF81EE1C
:1010100094E0215080409040E1F700C0000083E55B
:10102000E4CF8438A1F40E94A01E82FDE2CF87E4C1
:101030000E949E0F0E9407102FEF81EE94E0215036
:1010400080409040E1F700C0000087E4CECF8CEFF5
:101050008C0F813AB8F48C2F0E94621D8111C9CF88
:101060006C2F80910001909101010E943D1F882307
:1010700029F08C2F0E94A60F0E9407108C2F0E942F
:101080009E0FB5CF80E28C0F883048F4C77081E0A6
:1010900001C0880FCA95EAF70E94C90FA8CFEBE5F7
:1010A000EC0FE33040F4F0E0EF5AFE4F808190E027
:1010B0000E94FF1E9ECFE8E5EC0FE73150F4F0E010
:1010C000EE0FFF1FED5DFE4F808191810E94151F85
:1010D00090CFCD3E08F48DCF8C2F0E949A160E949F
:1010E0006D1787CF882309F455C0823879F40E94A0
:1010F000A01E81FF4FC089E30E949E0F0E9407102F
:1011000089E30E94A60F0E9407100895833859F4BE
:101110000E94A01E80FF3EC083E50E949E0F0E9499
:10112000071083E5EECF843859F40E94A01E82FF99
:1011300031C087E40E949E0F0E94071087E4E1CF30
:101140009CEF980F913AE8F290E2980F983050F4A3
:10115000877091E001C0990F8A95EAF7892F0E9464
:10116000CF0FD1CF9BE5980F933028F490E080E02B
:101170000E94FF1E089598E5980F973128F490E09B
:1011800080E00E94151F08958D3E20F00E94F41605
:101190000E946D1708951F93CF93DF93182FEB01D3
:1011A0000E94DC07209739F4812F0E947208DF919A
:1011B000CF911F9108958FE99FE00197F1F700C04B
:1011C00000002197EFCF70E060E0893311F460E513
:1011D00070E00E94CB080895882321F00E94C90F77
:1011E0000E9407100895882321F00E94CF0F0E94CB
:1011F00007100895B0E0A0E0E0E0F9E00C94682C5E
:101200006C01D62FC72FFC011281F580F2949FE06C
:10121000F9220E94BF0FE82E8823B9F0E12E112396
:10122000A1F08C2F807F803421F080E28D0F8830F8
:10123000D0F08091880382FF16C082E00E946A107D
:101240000E94BF0F91E0E82EE926BC2EB2948FE0F9
:10125000B822FBE0FB1508F468C0EB2DF0E0E0518C
:10126000F34D0C94592CE12CF0CF0C2F0F70C07F54
:1012700011F00295007F112399F0002359F080E2CC
:101280008D0F883010F0D11107C0802F0E94C90F38
:101290000E9407108D2F41C0802F0E94D90FF8CFD8
:1012A0008D2F0E947208002309F43FC080E28D0F49
:1012B000883010F0D11104C0802F0E94CF0F03C0DE
:1012C000802F0E94DF0F0E9407102FC00C2F0F707D
:1012D000C07FC03211F00295007FDD2381F0D13054
:1012E00009F463C0112309F46DC0FF2009F463C041
:1012F000F601858180FFCECF8F7085835CC08091A1
:10130000880382FD33C0112359F0002329F0802F78
:101310000E94C90F0E94071080E00E94DC0705C0F0
:1013200080E00E9472080111C7CFEB2DE850FF0B3F
:10133000349720F40E94A01E0E945407EE2089F0EA
:101340000E94BB0F80FD0DC0F60112820E94B50FF6
:101350000E94DD0BC6010E940A0B0E94B50F0E947D
:10136000ED0BCDB7DEB7E9E00C94842C112389F0A6
:10137000F11006C00E94E90F802B0E94EC08D5CF27
:1013800021E0F212F7CF0E94E90F802B0E94F00FAC
:10139000CCCFF11006C00E94FD0F802F0E94F308F1
:1013A000C4CF31E0F31609F2F6CF112331F085E016
:1013B0008F1508F4BACF802FE0CF94E09F1508F482
:1013C000B4CFEBCFFF2049F3D93349F4FFEF27EE39
:1013D00033E0F15020403040E1F700C000008D2F95
:1013E0000E947208A2CF8C2F86958695837069F033
:1013F000813009F09ACF8D2F9C2F9370111102C06C
:1014000090E080E00E94151F90CF8D2F9C2F93704D
:10141000111102C090E080E00E94FF1E86CF8D2F48
:10142000112329F00E949A160E946D177ECF0E9408
:10143000F416FACF8C2F8370A1F5111176CF4D2FB2
:10144000429546954770440F440F2D2F2F7030E082
:10145000042E02C0220F331F0A94E2F790E080E0CE
:10146000D4FF09C08FE090E002C0880F991F4A9511
:10147000E2F780959095C695C695C370822B932B05
:10148000C23049F058F4C13019F00E94AB0B4DCF77
:101490000E94A20B4ACF0E94B40B47CF0E949F0B21
:1014A00044CF8695112311F08C2F8170882309F485
:1014B0003CCF4D2F429546954770440F440F2D2F3A
:1014C0002F7030E0042E02C0220F331F0A94E2F77F
:1014D00090E080E0D4FF09C08FE090E002C0880F68
:1014E000991F4A95E2F780959095C695C695C37069
:1014F000822B932BC23049F058F4C13019F00E946E
:10150000180C13CF0E940F0C10CF0E94210C0DCF8E
:101510000E94C30B0ACFCF70112329F08C2F0E9499
:10152000DD0B8D2F2ACF8D2F0E94F3088C2F0E9468
:10153000ED0BFBCED23F51F160F4D03FB9F0D13F7B
:1015400081F0112309F449C0F110A4CE8C2F8F71C2
:1015500021C0D33F11F1D43FA1F78091880382FDD0
:1015600026C08C2F8F71112311F314C0112349F061
:1015700084E08F1508F4D9CE8C2F8F710E94FF0B59
:10158000D4CE95E09F1508F4D0CEF6CF8C2F8F7176
:101590001111CDCF0E94DD0BC8CE112329F08C2F65
:1015A0008F710E94D10BC1CE0E94CC0BBECE1123F5
:1015B00049F0CF718C2F0E94DD0B63E08C2F0E94CD
:1015C0004C10B3CE81E00E946A10E1E0EF1508F004
:1015D000ACCE82E00E946A10A8CEF110F5CE8C2F1E
:1015E0008F71A5CF0F931F93CF93DF93EC01688189
:1015F00079818A810E94E00C8C010E942A0C0E9451
:101600009E0BB801CE010E94FA08DF91CF911F9185
:101610000F910895CF93DF93EC018B819C81892BEF
:1016200029F08881998189238F3F51F4DF91CF91EF
:101630000895CE010E94F20ACE010E947B06F6CFE9
:10164000CE010E94A6068111F4CF0E94BF0F88230D
:1016500069F38A81882351F38091880382FFE6CF62
:1016600082E00E946A10E2CF90E080E00E94FF1EBC
:1016700090E080E00E94151F0E94E60F0E94071074
:101680000E940B180E946D1708950E94AE0F0E94D1
:10169000340B08950E94D60F0E94450B0895929531
:1016A0009F70963091F058F4925F9F70923058F48A
:1016B000803F19F030F4883E30F481E008959A5F5D
:1016C000F4CF843FD1F380E00895883EB0F3813FAA
:1016D000D1F7F3CFFC0183819481892B29F080819C
:1016E000918189238F3F11F480E008958081918159
:1016F0000E94D50C0E944F0B0895A5E0B0E0E3E8EE
:10170000FBE00C946F2C2596E2E00C948B2CA6E069
:10171000B0E0EDE8FBE00C946F2C2696E2E00C9430
:101720008B2C08950E94910B08950E94920B909328
:10173000F5028093F4020E94340B089508950E94EC
:10174000950B08952091F4023091F502822B932B92
:101750000E94950B08952091F4023091F5028223A6
:1017600093230E94950B08952091F4023091F50285
:10177000822793270E94950B08950E94910B08954C
:101780000E94BD0B08950E94C00B9093F3028093BA
:10179000F2020E94340B089590E080E00E94C30B97
:1017A000089521E030E0A90102C0440F551F8A9539
:1017B000E2F7CA010E94C30B089521E030E002C0A5
:1017C000220F331F8A95E2F78091F2029091F30283
:1017D000822B932B0E94C30B089521E030E002C0BE
:1017E000220F331F8A95E2F7209530958091F202FF
:1017F0009091F302822393230E94C30B089521E06A
:1018000030E002C0220F331F8A95E2F78091F20286
:101810009091F302822793270E94C30B0895209191
:10182000F2023091F302822B932B0E94C30B089596
:101830002091F2023091F302822393230E94C30B82
:1018400008952091F2023091F302822793270E949B
:10185000C30B08950895262F277091E001C0990FBA
:101860002A95EAF723E0769567952A95E1F7660FC2
:10187000771F660F771FFA01E60FF71F50E040E071
:10188000682F70E08191DF0111979B01042E02C047
:10189000369527950A94E2F7217021952827292368
:1018A00028272C934F5F5F4F4430510559F7089517
:1018B000A82FA77023E0969587952A95E1F7880FC2
:1018C000991F880F991FFB01E80FF91F50E040E0B6
:1018D00080E0219130E00A2E02C0369527950A94C7
:1018E000E2F721703327042E01C0220F0A94EAF791
:1018F000822B4F5F5F4F4430510559F70895262FD3
:10190000943070F48E3060F4682F70E08EE0989F11
:10191000600D711D112446ED52E0822F0E942B0CA8
:101920000895292F943068F48E3058F490E066EDD5
:1019300072E03EE0239F800D911D11240E94580CFF
:10194000089580E00895B0E0A0E0E9EAFCE00C949E
:10195000682C7C010091F2021091F3028091F40254
:101960009091F502082B192BCFE0D0E0CC24C39442
:10197000D12CBC2EC6010C2E02C0880F991F0A94D0
:10198000E2F780239123892B49F4219790F7B12C1A
:101990008B2DCDB7DEB7E9E00C94842CB7018C2FEA
:1019A0000E945213019789F3F3CFCF93DF93EC0199
:1019B0000E94A30CBE010E945213DF91CF910895A3
:1019C0001F93CF93DF93EB019091D502992339F0C8
:1019D000CB010E94D50CDF91CF911F9108958823F0
:1019E00069F0CB010E94A30C182F682FCE010E9432
:1019F0007F0CBE01812F0E945213EDCFCB010E94BC
:101A0000910C182FF6CF1F93CF93DF93C091F6025E
:101A100016E08091F7028C1304C0DF91CF911F91E3
:101A20000895D0E01C9FF0011D9FF00D1124E85097
:101A3000FD4F4081518162817381848195810E9433
:101A4000870B2196C770E5CF409128035091290359
:101A500060912A0370912B0380912C0390912D03A8
:101A60000E94870B08951F93CF93DF9380912D03DE
:101A7000807F09F049C080912A03882309F444C07B
:101A80008091F602C091F7026091280370912903BA
:101A9000A0912B03B0912C03D62FD72316E0C817A3
:101AA00099F190E0109711F0DF3F19F401968770DB
:101AB000F6CF189F9001199F300D1124F901E850BD
:101AC000FD4F41814713F2CF40814613EFCF428152
:101AD0004111ECCF438154814A1B5B0B483C5105BB
:101AE00028F780912D038F70806180932D03F90179
:101AF000E350FD4F80818F708061808388E293E0A6
:101B00000E940A0B0E94030DDF91CF911F9108954F
:101B1000A1E1B0E0EEE8FDE00C94672C8C0185E0DB
:101B2000F801DE011D9601900D928A95E1F7F8010A
:101B3000E28088E2C82E83E0D82E60912B0370915A
:101B40002C036115710509F44EC190912803209171
:101B50002903892F82238F3F09F445C14081518198
:101B6000A380B480F0902A03F501E61BF70BFF2059
:101B700009F4EAC080912D03382F307FE83CF1054D
:101B800008F0A3C031116DC0FE2C251316C09413AC
:101B900014C0E11012C08F70806180932D030E94E9
:101BA000240DC6010E940A0B80912D03F801858344
:101BB0008F2D6196EAE00C94832CA114B10429F0D6
:101BC000842F85238F3F09F027C180E0F82FF17023
:101BD000DF2E80FF3CC08091F6022091F70236E0B4
:101BE000821315C04D875E878D859E850E94D50C1A
:101BF000292F22952F702230F0F0243018F59F7095
:101C0000F1F0F8019581907FD1F4D12C1EC090E0C5
:101C1000389FF001399FF00D1124E850FD4F61818C
:101C2000651306C06081641303C06281E6120FC0B1
:101C300001968770D5CF9F7011F0882331F3805EB5
:101C4000883018F3C8010E940A0BFD2CB1CFEE209A
:101C500009F4AECF80912D03816080932D03F12C88
:101C6000A7CF251306C0941304C0F801EE2009F491
:101C700087C0C8010E946A0B882319F1EE2009F180
:101C800080912D03803270F0209128033091290338
:101C900038872F831986BB86AA868C87CE01079644
:101CA0000E940A0B86E0F801A8E2B3E001900D92D1
:101CB0008A95E1F70E94330D0E94240DFF24F394CE
:101CC00077CFC8010E940A0BF9CF311113C07A2DCA
:101CD000B98AA88A6E2D89890E947D0B88E293E0DB
:101CE0000E940A0B86E0F60111928A95E9F70E949C
:101CF000240DB5CF25130FC094130DC0E1100BC0F8
:101D0000F8018583C8010E940A0B86E0F601119252
:101D10008A95E9F74DCFC8010E946A0B882389F2A2
:101D2000EE2079F280912D03803208F4BBCF209110
:101D30002803309129033A8329831B82BD82AC8218
:101D40008E83CE010196ACCFE83CF10508F03EC091
:101D5000FE2CEE2009F4B5CF25132AC0941328C019
:101D600080912D0380FD1BC0982F907FC1F0F8015A
:101D70008583903F31F0982F907F905F8F70892BF3
:101D80008583C8010E940A0B86E0F801A8E2B3E04F
:101D900001900D928A95E1F70E94240D09CF86E00B
:101DA000F801A8E2B3E001900D928A95E1F700CF27
:101DB000C8010E946A0B811175CF80912D0381604B
:101DC00080932D03C8010E940A0BF2CE7A2DB98AA6
:101DD000A88A6E2D89890E947D0B86E0F6011192FA
:101DE0008A95E9F7D9CFEE2009F46BCFC8010E949C
:101DF0006A0BF82E882309F464CF86E0F801A8E284
:101E0000B3E001900D928A95E1F788E293E00E9499
:101E1000D6070E94330DC0CF81E08E25D7CEACE02F
:101E2000B0E0E5E1FFE00C946E2C4F8358876987A2
:101E30007A878B879C87CE0107960E94880D88231E
:101E400069F08A859B85892B39F04F815885842FCD
:101E500085238F3F09F06BC016E05FC086E0FE016E
:101E60003796DE01119601900D928A95E1F78A85E9
:101E70009B85892B89F38F81988589238F3F61F317
:101E80002091F70230E0C9010196877099274091AF
:101E9000F6024817190671F40E944A0B1092F702D5
:101EA0001092F60286E0E8E2F3E0DF011D928A95E7
:101EB000E9F7D2CF96E0929FD001939FB00D112405
:101EC000A850BD4FFE01319601900D929A95E1F711
:101ED0008093F7020E94030DBFCF819FC0011124A0
:101EE00088509D4F0E94880D8823E9F0E091F6020A
:101EF0001E9FF0011124E850FD4F40815181628105
:101F00007381848195810E94870B8091F60290E015
:101F10000196877099278093F6028091F60290913E
:101F2000F7028913DACF2C96E3E00C948A2C6985AA
:101F30007A858B859C850E94870B8ECF682F809138
:101F40000001909101010E94731F0895682F8091F4
:101F50000001909101010E94761F08958091000177
:101F6000909101010E94791F089580913603859513
:101F70008595859508958091360387700895909191
:101F80003603977081E009F480E008958091410361
:101F9000089590914103892B809341030895809582
:101FA0009091410398239093410308951092410327
:101FB000089590914003892B809340030895809564
:101FC000909140039823909340030895109240030A
:101FD000089580913703089508950E94EC0F0895A5
:101FE0009091880392FF08C090913703981721F0D1
:101FF000809337030E94ED0F089580913703882363
:1020000029F01092370380E00E94ED0F0895CF93DE
:10201000DF93E0910001F091010180914103808301
:10202000E0910001F0910101808190914003892BA2
:10203000808390913703992381F0E0910001F09122
:1020400001018081892B80838091000190910101A1
:102050000E942B1F81110E94FD0FC0910001D091A1
:10206000010148E050E06EE273E0CE010E94962C40
:10207000892B59F088E0FE01AEE2B3E001900D92A9
:102080008A95E1F7CE010E94AD1EDF91CF910895B0
:1020900008950E94481008959091880392FF11C0FE
:1020A00098E0899F90011124622B609336030E946F
:1020B000DD0B809136038595859585950E944910A5
:1020C00008950E94DD0B08951092360380E00E946F
:1020D00049100895909136038095892380933603A3
:1020E000282F277091F4282F082E000C330B9217FD
:1020F000130659F09091880392FF07C08595859546
:1021000085950E94ED0B0E9464100895CF93C82F0F
:102110008091880382FB992790F99C17E9F0C0FB16
:1021200082F98093880380918703909188030E94AD
:10213000EA1082E00E946A108091540380FF0CC074
:102140001F92CF9381E392E09F938F930E942F067B
:102150000F900F900F900F90CF910895809188036A
:1021600082FB882780F991E089270E9486100895D4
:1021700081E00E948610089580E00E9486100895F4
:102180006FEF7FEF90E080E00E94D82C089590E000
:1021900080E00E94B42C21E0883E9E4F09F020E0B0
:1021A000822F089582E090E00E94AC2C089583E095
:1021B00090E00E94AC2C0895CF9384E090E00E94C0
:1021C000AC2CC82F82E290E00E94AC2C982F8C2F70
:1021D000CF910895CF93C92F682F84E090E00E949B
:1021E000BA2C6C2F82E290E00E94BA2CCF91089515
:1021F000AB01BC018FE090E00E94CC2C0895AB01B4
:10220000BC0183E190E00E94CC2C089560E070E076
:10221000CB010E94FF10089560E070E0CB010E94A6
:10222000F8100E940611089568EE7EEF90E080E0BD
:102230000E94D82C60E082E090E00E94BA2C60E01E
:1022400083E090E00E94BA2C1092F5021092F40202
:1022500060E084E090E00E94BA2C64E082E290E0CA
:102260000E94BA2C60E085E090E00E94BA2C60E009
:1022700086E090E00E94BA2C6FEF87E090E00E9429
:10228000BA2C40E050E0BA0188E090E00E94CC2CEB
:1022900060E08DE090E00E94BA2C40E050E0BA018E
:1022A00088E190E00E94CC2C60E087E190E00E9401
:1022B000BA2C40E050E0BA018CE190E00E94CC2CB6
:1022C00070E060E080E290E00E94D82C40E050E0B6
:1022D000BA0188E190E00E94CC2C0E940C11089574
:1022E0000E9414110895682F8EE090E00E94BA2C8D
:1022F00008950E943C206093500370935103809393
:1023000052039093530360934C0370934D03809357
:102310004E0390934F030895089508950E948D11E0
:10232000089508950E949111089581E296E20E9415
:10233000961E0E948C110E948E11089581E00895CE
:102340000E949E110895089508950E94A3110E946D
:10235000A41108950E9456140E94510708950E94E6
:1023600027200E9472150E94AA110E9492110895BE
:10237000AAE0B0E0EEEBF1E10C94642C0E94881529
:1023800024E4822E23E0922E640110E0F601E19015
:10239000F1906F01812F0E947C141F5F143009F4AB
:1023A00049C0E816F90691F38091540381FD0E941B
:1023B00085140E94A011782E10E0812F0E947C14B9
:1023C0007C01F401A190B1904F018A159B0561F148
:1023D000A826BF2400E0CC24C394D12CC5018C21B5
:1023E0009D21892BC1F07720B1F00E831F8321E05E
:1023F000C7018C219D21892B09F420E028870E94A8
:1024000030208160782F9A8789874E815F81688527
:102410008A850E94A1070F5FCC0CDD1C0E30F1F6FF
:10242000F4013297F182E0821F5F143031F60E948E
:10243000791122C0E816F90609F0B6CF0E943020C3
:102440008C01809142039091430308171907A1F072
:102450008FEF89838A831B820E9430208160782FCE
:102460009D838C8349815A816B818D810E94A10754
:1024700010934303009342030E942D180E941E16DE
:102480000E9466072A96EDE00C94802CCF93DF9390
:102490000E945713EC01811521E5920708F042C014
:1024A000811530E5930708F09FC0883E910530F50F
:1024B000803E910508F094C0883A910588F4853AE9
:1024C000910508F086C08130910509F489C0009714
:1024D00009F486C0049708F083C0D0E0C0E080C053
:1024E0008F3B9105D0F7C85AD0E0CC0FDD1FCC5AF6
:1024F000DE4F0990D881C02DD46472C0811540E2AE
:10250000940750F4C11581E0D80708F069C0CD3EAA
:10251000D10518F3D06564C081159044F0F2DF70E6
:10252000D06A5EC0811535E5930718F5811544E53D
:10253000940708F085C0C11583E5D80708F06CC082
:10254000C11522E5D20708F462C0CE018370992735
:1025500021E030E002C0220F331F8A95E2F7C695D2
:10256000C69580E2C89FE0011124C22BD32BDC6802
:1025700037C0811539E59307A8F4811548E594071C
:1025800008F063C0C11586E5D80708F0A6CF8C2FE8
:102590000E94F913C82FD0E0DC2FCC27CC27DF71A5
:1025A000D0621EC081152AE5920708F453C09056E8
:1025B0008115904208F091CF8D2F8F710E94F913F1
:1025C00090E0982F882788279F719C012C2BE90188
:1025D000E7CFC55AD0E0CE57DE4FC881D0E0D064F7
:1025E000CE01DF91CF9108958370992721E030E0EB
:1025F00002C0220F331F8A95E2F7C695C69540E2C6
:10260000C49FE0011124C22BD32BDD68E9CFDC2F5E
:10261000CC27C16FD06AE4CFCE018370992721E027
:1026200030E002C0220F331F8A95E2F7C695C695A7
:1026300040E2C49FE0011124C22BD32BDA68D0CF33
:10264000D82FCC27C46FD06ACBCFD82FCC27C06F60
:10265000D06AC6CF8F700E94F91334E0D695C79523
:102660003A95E1F7CF709C2FEC01D069B9CF972F45
:102670007430A8F46E3098F470E02EE0929F600DF4
:10268000711D1124FB0198E3899FE00DF11D1124B8
:10269000EE0FFF1FE455FF4F85919491089580E060
:1026A00090E008950E9437130E94461208958238E0
:1026B0009105B9F1B0F48133910509F47DC048F476
:1026C0008932910509F46DC08A32910509F47BC005
:1026D00008958533910509F45FC08933910509F1A7
:1026E0000895833E9105D9F138F4803E910529F192
:1026F000823E910579F10895863E9105D9F1873E94
:10270000910509F43EC0843E910541F5209188036E
:1027100021FF24C08091870384FD19C087EE90E0DB
:10272000089520918703237009F05AC020918803EF
:1027300023FF14C089E290E008952091870320FDD3
:1027400038C03091880330FF09C024FF43C090E0B7
:1027500080E008952091870322FDF7CF089520910E
:10276000870322FD3AC03091880330FD39C024FF31
:10277000F5CFEDCF2091870323FFF0CF24FDE7CFE6
:10278000CDCF2091870323FD2EC03091880331FFE8
:10279000EECF84EE90E008952091870325FFDECFF1
:1027A000C9CF2091870325FD21C02091880323FFF5
:1027B000D5CF89E390E0D2CF2091870326FFCECFFB
:1027C0008AE290E008952091870326FFC7CF81E336
:1027D00090E0089583EE90E0089582EE90E00895F1
:1027E00080EE90E0089586EE90E0089585E390E015
:1027F00008959091870392FF06C0282F28712830F2
:10280000F9F4877F846093FF06C0282F2871283150
:10281000F1F4877E84612091880320FF06C0382F61
:1028200038713830D9F4877F816021FF06C0282FA6
:1028300028712831D1F4877E816194FD877E0895C7
:10284000282F24712430F9F68B7F8860DCCF282F65
:102850002471243101F78B7E8861DDCF382F3171EF
:10286000313019F78E7F8860E0CF282F2171213118
:1028700021F78E7E8861E1CF0E94C01008950E94EA
:1028800088158FE39CE90197F1F700C000000E94D2
:10289000881580E00E947C1480FF04C00E943C14D4
:1028A0000E947B2008950E943F1408950E94C71043
:1028B000811102C00E9470110E94D21080935403B3
:1028C0000E94DC1090938803809387030E94531426
:1028D0000E94D71090E00E949F0B8091F20290918D
:1028E000F3020E94C00B089508950E947414089585
:1028F00008950E9478140895E82FF0E0EE0FFF1F6E
:10290000EF56FC4F808191810895B0E0A0E0EBE8A4
:10291000F4E10C94692C86E592E00E94960581E929
:10292000E82E83E0F82ED0E0C0E091E5C92E92E0D9
:10293000D92E08E412E0DF93CF93DF92CF920E946A
:102940002F068EE492E00E949605F7018191919105
:102950007F010E9431079F938F931F930F930E94D3
:102960002F0686E492E00E94960521968DB79EB7C9
:1029700008960FB6F8949EBF0FBE8DBFC430D10528
:10298000D1F6CDB7DEB7E8E00C94852C80EA8A95C5
:10299000F1F7089500C008950E94C6140895F894B0
:1029A000E82FE295EF70F0E031A1282F2F7081E041
:1029B00090E001C0880F2A95EAF7982F909593230D
:1029C00091A392A1892B82A378940895CF93DF934A
:1029D00081E90E94CF1480E90E94CF1484E90E940B
:1029E000CF1486E60E94CF14C5E8D1E089918F3FCD
:1029F00011F00E94CF1481E0C339D807B9F7DF91F5
:102A0000CF910895AF92BF92DF92EF92FF920F9312
:102A10001F93CF93DF938C01D62EC62FD0E0CE012B
:102A20008D569E4F7C01FC0120812F3F09F44DC043
:102A3000F894E22FE295EF70F0E031A12F7081E081
:102A400090E001C0880F2A95EAF7932F982B91A365
:102A500092A18095892382A378940E94CA14E5E804
:102A6000F1E043E951E021E030E0B12CA12C61918B
:102A70006F3FA9F1A62FA295AF70B0E090968C9110
:102A800090E06F7002C0959587956A95E2F780FD9A
:102A900026C0C901A82AB92A220F331F4E175F0783
:102AA00031F7F70180818F3F11F00E94CF1461E070
:102AB000A114B10409F460E08D2D0E94CC14CC0F58
:102AC000DD1FC00FD11FB982A882DF91CF911F9166
:102AD0000F91FF90EF90DF90BF90AF90089590E03E
:102AE00080E0D8CF0E94E61488E0E1E9F3E0DF015E
:102AF000982F1D929A95E9F7E9E8F3E0DF011D921E
:102B00008A95E9F784E00E94C3150E94870608951C
:102B1000A8E0B0E0EEE8F5E10C946C2C8E010F5FBC
:102B20001F4F88E0F80111928A95E9F7F12C6F2D7B
:102B3000C8010E940215F394F4E0FF12F8CF48E0B8
:102B400050E0B80189E893E00E94962C21E00097BC
:102B500009F420E0892B41F088E0F801A9E8B3E00E
:102B600001900D928A95E1F744E061E973E089E80C
:102B700093E00E94C415182F0E948A06812F289680
:102B8000E5E00C94882C0895CF92DF92EF92FF92AB
:102B90001F93CF93DF936C017B01C42F222349F055
:102BA00081E0809357030E943020909356038093D6
:102BB00055031091570311110AC010E0812FDF91C6
:102BC000CF911F91FF90EF90DF90CF90089580916B
:102BD0005503909156030E944820059770F3D0E06A
:102BE000CC0FDD1FAE01B601C7010E94962C892BC8
:102BF00041F0AE01B601C7010E94A32C1092570309
:102C0000DDCF10E0FBCF0E94AB260E94AF110E94E7
:102C1000B82608950E94BD260E94B8110E94DB26A6
:102C200008950E94C91F0E948F260E9495110E943C
:102C300003160E940A160E94A511FBCF8DE993E0AE
:102C40000E94A122089580915E0380FF0DC06091D3
:102C5000070170E0660F771F6038710570F5611528
:102C6000710569F1862F089581FF07C06091070102
:102C700084E0689FB0011124EFCF6091070182FDCD
:102C80000AC080915D038823A9F02091060160911C
:102C90000701821710F088E0ECCF869FC001112455
:102CA00033E0880F991F3A95E1F7622F70E00E9498
:102CB000452CD2CF68E070E0D5CF8FE7089581E052
:102CC000089580915E0380FF0CC06091030170E065
:102CD00075956795759567956115710549F1862F0D
:102CE000089581FF06C06091030170E075956795B6
:102CF000F3CF6091030182FD0BC090915C03992397
:102D0000A1F06091020180910301961738F0682FBD
:102D100070E06038710500F38FE70895899FC00166
:102D2000112470E00E94452CF4CF61E070E0D7CF11
:102D300081E008958D3E31F40E94231681958093A1
:102D4000620308958E3E19F40E942316F8CF8F3E39
:102D500031F40E9423168195809361030895803F8A
:102D600019F40E942316F8CF893F29F40E946116B6
:102D70008093630308958A3F21F40E946116819530
:102D8000F7CF8B3F31F40E946116819580936403E5
:102D900008958C3F19F40E946116F8CF9FE0980FB8
:102DA000983070F4815F990B21E030E001C0220F70
:102DB0008A95EAF780916003822B809360030895DF
:102DC0008D3F31F480915E03816080935E030895AE
:102DD0008E3F21F480915E038260F7CF8F3FB9F779
:102DE00080915E038460F1CF409161038D3E59F480
:102DF0008091620387FF0DC01092620341110BC0E6
:102E000010925D0308C08E3E81F480916203181613
:102E10009CF3442381F08091630390916403892B98
:102E200009F05AC010925C0308958F3E49F447FFA1
:102E3000F0CF10926103809162038111ECCFE0CF5B
:102E4000803F19F41416ACF3E4CF90916303893FEB
:102E500029F41916F4F610926303DBCF8A3F19F4B4
:102E600097FFD7CFF8CF909164038B3F29F497FF5A
:102E7000D0CF10926403CDCF8C3F19F41916CCF348
:102E8000C8CF9FE0980F983090F4815F990B21E0B4
:102E900030E0B90102C0660F771F8A95E2F7CB01D7
:102EA000809590916003892380936003B2CF8D3F1A
:102EB00031F480915E038E7F80935E03AACF8E3FB4
:102EC00021F480915E038D7FF7CF8F3F09F0A1CF72
:102ED00080915E038B7FF0CF08958091540383FF30
:102EE0007EC084E992E00E949605809160031F9263
:102EF0008F938FE892E09F938F930E942F068DE827
:102F000092E00E94960580916103282F082E000C04
:102F1000330B3F938F938AE892E09F938F930E94A5
:102F20002F0688E892E00E94960580916203282F80
:102F3000082E000C330B3F938F9385E892E09F930C
:102F40008F930E942F0683E892E00E94960580915D
:102F50006303282F082E000C330B3F938F9380E8D8
:102F600092E09F938F930E942F068EE792E00E943B
:102F7000960580916403282F082E000C330B3F9395
:102F80008F938BE792E09F938F930E942F0688E7A1
:102F900092E00E94960580915D031F928F9385E7D2
:102FA00092E09F938F930E942F0683E792E00E9406
:102FB000960580915E031F928F9380E792E09F9326
:102FC0008F930E942F068DE692E00E9496058DB7A2
:102FD0009EB74C960FB6F8949EBF0FBE8DBF0E9451
:102FE00030209C019091610380916203982B21F025
:102FF00030935B0320935A039091630380916403A1
:10300000982B21F030935903209358038FE593E0D8
:103010000E94F11E089586E0EFE5F3E0DF011D92C6
:103020008A95E9F710925D0310925C0310925E039B
:103030000895FC01828181110EC0838181110BC032
:103040008481811108C091E08581811101C090E0E7
:10305000892F8170089581E0FCCFA6E0B0E0E3E322
:10306000F8E10C946E2C86E0EFE5F3E0DE011196BA
:1030700001900D928A95E1F710926103109262031C
:1030800010926303109264038B819C81892B89F0D9
:1030900080915A0390915B030E944820AC0190916B
:1030A0005D039923C9F1809108018417150608F47E
:1030B00040C08D819E81892B91F080915803909121
:1030C00059030E944820AC0190915C03992309F4B4
:1030D00071C0809104018417150608F479C0BE01FF
:1030E0006F5F7F4F8FE593E00E94801F811105C0C5
:1030F0008FE593E00E94191881110E946D1786E0F8
:10310000FE013196AFE5B3E001900D928A95E1F7AB
:103110002696E3E00C948A2C209109018AE0289FEE
:10312000900111242417350720F69F5F90935D03CB
:1031300002C09F3FD1F71B81112359F00E94231633
:103140009FEF11160CF491E0899F802D112480933C
:1031500061031C81112359F00E9423169FEF111661
:103160000CF491E0899F802D1124809362033091AB
:103170006103332309F49DCF20916203222309F4D4
:1031800098CF45EB3403C0011124992359F0909353
:10319000610345EB240390011124332339F030936C
:1031A000620387CF81E080936103F3CF81E0809356
:1031B00062037FCF209105018AE0289F90011124AE
:1031C0002417350708F08BCF9F5F90935C0302C0F4
:1031D0009F3FD1F71D81112359F00E9461169FEF87
:1031E00011160CF491E0899F802D112480936303C4
:1031F0001E81112359F00E9461169FEF11160CF4E5
:1032000091E0899F802D11248093640330916303A2
:10321000332309F464CF20916403222309F45FCFA0
:1032200045EB3403C0011124992359F090936303B3
:1032300045EB240390011124332339F030936403C8
:103240004ECF81E080936303F3CF81E080936403EA
:1032500046CFCF93DF93EC01FB018281882309F4F1
:1032600064C1C430FDE5DF07E0F5CB3F9CE5D9073D
:1032700030F49E0122503C4524313105D8F50E949E
:10328000DC109093880380938703C231ECE5DE075E
:1032900009F41FC108F06EC0C9308CE5D80709F4E5
:1032A000F2C008F03FC0C530ECE5DE0709F4DBC032
:1032B00058F5C3308CE5D80709F4CDC008F0CFC06D
:1032C000809187038160C230DC4509F4AEC08091F3
:1032D0008703909188030E94EA100E944A0B80E0C5
:1032E00009C0C63AEDE5DE0751F238F4C2369DE575
:1032F000D90729F2DF91CF9108959E012E5A3D45BD
:1033000023303105B8F7BBCF809187038062C73087
:10331000FCE5DF0709F489C008F4B1C08091870398
:10332000806483C0CD309CE5D90709F4BAC070F43D
:10333000809187038E7FCB30FCE5DF0709F475C0F1
:1033400008F4A7C0809187038D7F6FC0CF309CE5C4
:10335000D90709F4B6C008F4A8C0C031FCE5DF07FE
:1033600009F4B3C0C131DC4509F0B1CF80918703C6
:103370008F7B5BC0C1159DE5D90709F4B4C098F5F2
:10338000CB3FFCE5DF0709F472C0B8F4C4319CE51B
:10339000D90709F4B6C008F4A2C0C531DC4509F06C
:1033A00096CF8091870382FB992790F921E092279D
:1033B00090FB82F990FB83F938C0CD3F8CE5D807AC
:1033C00009F477C008F457C0CE3FECE5DE0709F4F6
:1033D00074C0809188038360CF3FDC4509F077CFCC
:1033E0008093880374CFC2368DE5D80709F496C060
:1033F00068F4C230EDE5DE0709F48CC008F477C04C
:10340000C330DD4509F063CF80E085C0CE3A9DE54D
:10341000D907E9F068F490918703892F8E7F90FF98
:103420008160C63ADD4509F052CF809387034FCFC4
:10343000CF3A8DE5D80789F1C03BDD4509F047CF8C
:1034400090918803892F877F93FF8860C9CF8091EF
:1034500088038860C5CF809187038260E6CF809122
:1034600087038460E2CF809187038860DECF8091FC
:1034700088038160B5CF809188038260B1CF80914D
:1034800087038061D2CF0E944A0B809187038068B6
:10349000CCCF809187038C60C8CF80918803877FD1
:1034A0009FCF809187038B7FC0CF80918703877FD9
:1034B000BCCF809188038E7F93CF809188038D7FCE
:1034C0008FCF809187038F7EB0CF809187038F7DD0
:1034D000ACCF0E944A0B809187038F77A6CF809153
:1034E0008703837FA2CF809188038C7F79CF8091DF
:1034F0008803982F909591708E7F892B90FB81F98E
:103500006FCF0E944A0B90918703892F97FB87F911
:1035100080588BCF81E00E947311D9CE90918703A0
:10352000892F8F7E94FF806180CF81E0E3CE8091F0
:1035300002011F928F93809103011F928F938091BC
:1035400006011F928F93809107011F928F938091A4
:1035500008011F928F93809109011F928F9387EB2F
:1035600092E09F938F930E942F068DB79EB70E9681
:103570000FB6F8949EBF0FBE8DBF0895883228F510
:103580008E3108F072C08B3041F130F4873009F48D
:10359000CFC086E194E0E0C0833109F45FC084319C
:1035A000C1F788E394E00E9496058091690388231F
:1035B00009F4FEC010926903109268031092670329
:1035C000109266031092650320C08F3409F4C7C0BF
:1035D000D8F5893231F38833E1F68BE394E00E9429
:1035E00096050E94971A1F9281E08F931F9288E0A0
:1035F0008F9384E393E09F938F930E942F060F9005
:103600000F900F900F900F900F902091690322233D
:1036100009F4C9C08091650390916603009711F485
:1036200087E991E09F938F931F922F9384E094E01A
:103630009F938F930E942F060F900F900F900F90E3
:103640000F900F9081E00895813509F49CC008F433
:103650009CC0823509F09DCF81E082C08AE294E06F
:103660000E9496050E94971AD0CF8D5180936903CE
:10367000833009F442C058F48130C1F08230A1F1A6
:103680001092690387E294E00E9496051BC0853082
:1036900009F445C0D8F1863099F782E091E0909323
:1036A0006803809367038FED91E008C089E091E0A3
:1036B00090936803809367038BE991E0909366038E
:1036C0008093650380916903882309F49ECF1F923C
:1036D0008F9383E294E09F938F930E942F060F9025
:1036E0000F900F900F9091CF88E091E09093680336
:1036F0008093670384EA91E0E1CF87E091E09093C3
:1037000068038093670380EB91E0D8CF86E091E077
:1037100090936803809367038DEB91E0CFCF83E0B4
:1037200091E090936803809367038CEC91E0C6CF9F
:1037300081E08093090184E1809308018AE080930D
:1037400007018EE18093060188E08093030188E2FF
:103750008093020189E194E00E94960556CF8AE0A9
:10376000E0916703F09168033097D1F02081082E33
:10377000000C990B820F911D8F3F910541F03CF099
:103780008FEF808307C08FEFEBCF86EFE9CF97FFF6
:10379000F8CF108280811F928F9380E194E09BCFBD
:1037A0008DE094E0D9CF80E094E00E9496054ACF66
:1037B00080E00895CF93C82F1F928F9381E594E006
:1037C0009F938F930E942F0681E090E002C0880FA4
:1037D000991FCA95E2F70E949F0B0E944A0B0F9017
:1037E0000F900F900F90CF910895EF92FF920F934B
:1037F0001F93CF93DF938B3109F410C108F0B0C051
:103800008B3009F4CCC008F082C0863009F4DAC0ED
:1038100048F4853009F4B2C086EF97E00E9496051F
:1038200080E0E0C0873009F4E2C08830A9F70E9448
:10383000D7101F928F9389ED97E09F938F930E94EB
:103840002F060E94D21083FB992790F91F929F9315
:1038500082FB992790F91F929F9381FB992790F9FA
:103860001F929F93982F91701F929F931F928F93F7
:1038700080E997E09F938F930E942F060E94DC10AF
:1038800093FB222720F91F922F9387FB222720F9F1
:103890001F922F9386FB222720F91F922F9385FBDF
:1038A000222720F91F922F9384FB222720F91F92B1
:1038B0002F9383FB222720F91F922F9382FB22272D
:1038C00020F91F922F9391FB222720F91F922F930B
:1038D000292F21701F922F9381FB222720F91F92FD
:1038E0002F93282F21701F922F939F938F9381E9FD
:1038F00096E09F938F930E942F068DB79EB78A966E
:103900000FB6F8949EBF0FBE8DBF81E06BC08031B3
:1039100009F49CC080F48E3009F07ECF909154035E
:10392000892F8B7F92FF84608093540382FF8BC02A
:1039300081E298E07FC0863109F498C0893109F0AE
:103940006BCF84EF91E09F938F9381EC94E09F93F2
:103950008F930E942F060F900F900F900F90D5CF4E
:103960008A3249F190F4873211F128F48E3108F44B
:1039700053CF8D511DC0893209F04ECF84E698E0B7
:103980000E9496050E949C06C0CF833468F48A3357
:1039900008F091C0853359F0883309F03DCF8BEEA4
:1039A00094E00E949605B1CF833409F035CF80E0D2
:1039B0000E94DA1BAACF84E898E00E9496050E9434
:1039C0007011A3CF80915403807F8093540384ECC3
:1039D00094E00E94960580E898E00E94960581E0B8
:1039E00080936A03CDB7DEB7E6E00C94872C909104
:1039F0005403892F8E7F90FF81608093540380FF52
:103A000003C088E598E0CDCF8BE498E00E9496054E
:103A100080915403817F8093540377CF9091540316
:103A2000892F8D7F91FF82608093540381FF08C0AE
:103A30008EE398E00E949605809154038160EBCF5D
:103A400080E398E0AECF81E198E0ABCF9091540352
:103A5000892F877F93FF88608093540383FF03C07F
:103A600085E098E0E7CF88EF97E09BCF0E943C206D
:103A7000162F072FF82EE92ED0918603C091220130
:103A80000E94A01EEF92FF920F931F931F92DF934D
:103A90001F92CF931F928F9386E594E09F938F930D
:103AA0000E942F068DB79EB70C960FB6F8949EBF56
:103AB0000FBE8DBF2ACF89537BCF80E008950E942F
:103AC0005D1D0895CF93C82F80916A038130C1F0A6
:103AD000882339F0823009F444C010926A0380E0F0
:103AE0000DC00E94C60F8232D1F78C2F0E945D1D3F
:103AF00081111BC08C2F0E94F51B8170CF910895FE
:103B00000E94C60F823289F38C2F0E945F1D8111A3
:103B10001BC0C431D9F060F4CB3071F0C031D1F0AA
:103B20008BE494E00E94960513C081E090E0E5CF1D
:103B3000C93261F0C833A1F784EC94E00E94960585
:103B40008DE494E00E94960581E0D7CF10926A033D
:103B500080E0D3CF82E080936A0388E30E94BE1A9C
:103B6000F3CF8C2F0E94BE1A81E0C8CFCF93DF9392
:103B7000EB0186319C4511F50E94C60F9A8199236D
:103B800099F08A7A91E009F490E090936B038111A7
:103B900009C089E20E949E0F0E94071080E0DF9119
:103BA000CF91089585E3F6CF80916B03811104C016
:103BB00089E20E94A60FF0CF85E3FBCF81E0EFCF33
:103BC0000F931F93CF93DF93C42FD22FFC018281D9
:103BD0008823C9F040936E030E94302090936D03B8
:103BE00080936C0380E28C0F883040F4C77081E0D2
:103BF00001C0880FCA95EAF70E94EC08DF91CF91C7
:103C00001F910F91089510916E03141332C080918B
:103C10006C0390916D030E944820883C910548F503
:103C2000C0E2CD0F1D17B9F080E2810F883040F45B
:103C3000177081E001C0880F1A95EAF70E94F30817
:103C4000C83048F481E09D2F977001C0880F9A9585
:103C5000EAF70E94EC08802F0E94E308C83070F653
:103C6000D77081E001C0880FDA95EAF70E94F30867
:103C7000C5CF80E28C0F883008F6C77081E001C0A4
:103C8000880FCA95EAF7F2CF0F939C01CB01243F2E
:103C90004CE5340759F1A8F4293DFCE53F0701F153
:103CA0002A3D4CE53407D1F1283D3C4591F406E22C
:103CB00021EE41EE68ED7CE50E94E01D80E00F9171
:103CC0000895263FFCE53F07E9F0B0F0273F3C456B
:103CD000F9F0FC018281882339F110926E03EFCF55
:103CE00007E225EE45EE69ED7CE5E6CF06E221EE42
:103CF00040EE64EF7CE5E0CF07E225EE44EE65EFB1
:103D00007CE5DACF06E221EE42EE66EF7CE5D4CF29
:103D100007E225EE46EE67EF7CE5CECF08E221E034
:103D200045EE6AED7CE5C8CF81E0C9CF9093CF0224
:103D30008093CE0208959093740380937303089543
:103D4000E0917303F0917403309729F00190F081B2
:103D5000E02D0995089580E00895EF92FF920F936A
:103D60001F93CF93DF938C01E0917303F091740361
:103D7000309791F10280F381E02D099580915403F1
:103D800082FF2AC080FF04C08DE998E00E9496055A
:103D9000D0E0C0E087E9E82E88E0F82E8091540357
:103DA00080FF0EC0F801EC0FFD1F80811F928F93E2
:103DB000FF92EF920E942F060F900F900F900F909E
:103DC0002196C830D10551F78091540380FF04C07B
:103DD00085E998E00E949605CDB7DEB7E6E00C9441
:103DE000872CE0917303F0917403309739F022E04F
:103DF000DC012C930480F581E02D09950895209134
:103E00007103309172032817390771F09093720390
:103E100080937103E0917303F0917403309721F064
:103E20000680F781E02D0995089520916F03309168
:103E300070032817390771F09093700380936F0314
:103E4000E0917303F0917403309721F00084F185C1
:103E5000E02D099508959C012E5F3F4FAC01485F0E
:103E60005F4F80E02417350709F40895F901919117
:103E70009F019923B9F38F5FF5CF662349F0FC01C9
:103E8000329608962191261729F0E817F907D1F7FD
:103E900080E0089581E008959C01FC0132969FEF37
:103EA00080E04191461751F09F3F19F4411101C044
:103EB000982F8F5F8630A9F79F3F09F40895290F47
:103EC000311D97FD3A95F90162830895FC01329600
:103ED00008962191261303C0DF0111971C92E81761
:103EE000F907B9F708950E944C1F08950E94661FB4
:103EF0000895029626E0FC0111922A95E9F70895AB
:103F000046E050E00E94962C21E0892B09F420E045
:103F1000822F089508950E948A1F0895811106C076
:103F200081E0809375030E948B1F089582E0F9CF92
:103F300083E0809375030E948B1F08950E948E1F5B
:103F4000089581E0809375030E948B1F08950E945D
:103F5000A11F0895089508950E94AB1F0895089524
:103F600008950E94AA1F0895CF930E94AF1F0E9438
:103F700088150E94B01FC0E08C2F0E947C14892BF2
:103F800031F4CF5FC430C1F780E0CF91089581E074
:103F9000FCCF85B7806885BF85B7806885BF0895E9
:103FA0001F921FB61F9211248F939F93AF93BF93BD
:103FB00080917603811113C08091990390919A03A7
:103FC000A0919B03B0919C034196A11DB11D8093CC
:103FD000990390939A03A0939B03B0939C03BF9182
:103FE000AF919F918F911F901FBE1F901895809148
:103FF0008E04843031F10E940F071092760388E11D
:1040000090E020E40FB6F894A895809360000FBE6E
:104010002093600083B7817F846083BF83B7816012
:1040200083BF7894889583B78E7F83BF0FB6F8944B
:10403000A895809160008861809360001092600074
:104040000FBE08950E944A0B0E941407089582E053
:1040500084BD93E095BD9AEF97BD80936E0008955F
:104060002FB7F8948091990390919A03A0919B03A4
:10407000B0919C032FBF08952FB7F89460919903D6
:1040800070919A0380919B0390919C032FBF089598
:104090009C014FB7F8948091990390919A03A09155
:1040A0009B03B0919C034FBF821B930B08957894A0
:1040B0001F921FB61F9211248F939F93AF93BF93AC
:1040C0008091990390919A03A0919B03B0919C03D6
:1040D0000196A11DB11D8093990390939A03A0931B
:1040E0009B03B0939C03BF91AF919F918F911F90C1
:1040F0001FBE1F90189581E08093E00080E28093BE
:10410000D8001092C9008FE19EE40197F1F700C03A
:10411000000087E090EBDC01809397049093980473
:10412000A0939904B0939A0488E19CE00FB6F894A8
:10413000A895809360000FBE90936000FFCF88E148
:104140009CE00FB6F894A895809360000FBE909302
:104150006000FFCF881F8827881F089591E0883F5F
:1041600008F490E0892F0895982F907F903BE9F014
:1041700040F49039D1F0903AC1F09038B1F080E03D
:104180000895903D19F020F4903CC9F782E008951D
:10419000903E59F0903F99F7815F8F3080F7E82F7C
:1041A000F0E0E155FD4F8081089583E00895FC0122
:1041B000738362830895FC01758F648F0895CF9394
:1041C000DF93EC011DA21FA21EA2BC01685D7F4F00
:1041D00040EC88519F4F0E94CF221B821A821D8281
:1041E0001C821F821E82198618861B861A861D86CF
:1041F0001C861F861E86198A188A1B8A1A8A1D8A9F
:104200001C8A1F8A1E8A198E188E1B8E1A8E1D8E6E
:104210001C8E1F8E1E8E19A218A2DF91CF910895B9
:10422000EF92FF920F931F93CF93DF93EA018A01DE
:10423000060F111D88519F4F7C01C017D10729F42B
:10424000CDB7DEB7E6E00C94872C6991C7010E94D8
:10425000D622F3CFFC01718360830895FC0171A322
:1042600060A30895A3E0B0E0E8E3F1E20C94672CCA
:104270007C016B01142FB22EA02EDC0195968C913F
:104280009597843059F55A96ED91FC91309799F1B4
:10429000CB01019763E070E00E94312CCB01880FC5
:1042A000991F860F971F4983BA820B834C2D481B99
:1042B0009E012F5F3F4FBC01C7010995D7015E9654
:1042C000ED91FC91309731F00A2D2B2D412FB60145
:1042D000C70109952396EAE00C94832C623071059E
:1042E00009F455C06330710599F06130710509F426
:1042F00081C0D12CC12CD7015C96ED91FC913097F7
:10430000E9F20A2D2B2D412FB601C7010995D6CF11
:10431000842F807F803A11F148F48038D1F08039C1
:1043200051F7D7011496ED91FC910AC0803ED9F067
:10433000803FF1F0803BF9F6D7011296ED91FC91A8
:104340003097C9F2123FE9F02A2D4B2D612F6F7083
:104350001BC0D7011696ED91FC91F2CFD7011896AC
:10436000ED91FC91EDCFD7011A96ED91FC91E8CF3C
:10437000423F09F6D7011C96ED91FC91309709F464
:10438000BACF2A2D4B2D62EFC701099597CF842F05
:10439000807F803DB1F0803FC9F0803C09F0ABCF19
:1043A000D7011E96ED91FC91309709F4A4CF812F8F
:1043B0008D7F4B2D612F6F70813F89F0C70109956B
:1043C0007DCFD7015096ED91FC91EECF433F51F454
:1043D000D7015296ED91FC91309709F48CCF4B2D7B
:1043E000612FECCF413F09F086CFD7015496ED9174
:1043F000FC91F2CF842F0E94AE20882359F0D70180
:104400005696ED91FC91309709F475CF612FC70155
:10441000099554CF163F09F06ECFD7015896ED910C
:10442000FC91F1CFFF920F931F93CF93DF93EC0199
:10443000162F862F0E94AE20882389F0FDA081E0F0
:104440008DA300E020E0412F61E070E0CE010E94EA
:104450003221FDA2CDB7DEB7E5E00C94882C812F88
:104460000E94AA204DA1882309F443C0443029F0BA
:104470001AA381E090E09FA38EA3812F0E94B42015
:10448000813051F08823A9F0823089F0833079F0AF
:104490001DA21FA21EA2DECF8DA300E020E0412FAF
:1044A00061E070E0CE010E9432211DA2D3CF8DA326
:1044B000D1CF103FB1F0173F59F72EA13FA1C9014D
:1044C00063E070E00E94312CFE01E80FF91F12A397
:1044D000B9016F5F7F4F7FA36EA30CA12BA14AA1EF
:1044E000E1CF84E08DA31AA381E090E09FA38EA387
:1044F000B1CF442309F4AECF2EA13FA1C90163E09F
:1045000070E00E94312CFE01E80FF91F12A3B901DF
:104510006F5F7F4F7FA36EA38130910569F0029793
:1045200009F098CF0CA12BA14AA1CE010E94322103
:104530008DA18430C9F68ECF423009F08BCF00E0D8
:10454000F2CFB0E0A0E0E7EAF2E20C94692CEC01D3
:10455000E8A1F9A1309709F009956E0188EEC80E1F
:10456000D11CC6010E94052310E000E0E82EF12CCA
:104570000E151F0528F0CDB7DEB7E8E00C94852CAA
:1045800060E0C6010E941923682FCE010E9412220A
:1045900061E0C6010E9429230F5F1F4FE9CFFC0194
:1045A0004283748363831182108208951F93CF9393
:1045B000DF93EC01162F0E944123482F298130E020
:1045C000C90101966A8170E00E94452C58815817F4
:1045D000190641F4842F0E94442380E0DF91CF919B
:1045E0001F9108958B819C81280F391FF901108339
:1045F000898190E001966A8170E00E94452C898350
:10460000842F0E94442381E0E9CFCF93DF93EC0114
:104610000E94412399812881921740F0C92FC21B23
:104620000E9444238C2FDF91CF910895CA819C0F63
:10463000F5CFFC018081860F9927991F628170E078
:104640000E94452C23813481280F391FF901808174
:1046500008951F93CF93DF93EC01162F0E944123FF
:10466000282F8881810F9927991F6A8170E00E9405
:10467000452C8883822F0E944423DF91CF911F9184
:1046800008958FB7F89408958FBF089508950895F9
:10469000A7E0B0E0EEE4F3E20C946D2C8C01CE01C7
:1046A00001960E948926811104C02796E4E00C94AB
:1046B000892C8A810E94B4209A819D839B819E834C
:1046C0009C819F8381110AC08981843079F0873071
:1046D00069F0863069F0853011F781E0AE014B5FFB
:1046E0005F4F682FC8010E941021D9CF83E0F6CF19
:1046F00082E0F4CFA4E0B0E0E0E8F3E20C946A2CAE
:104700007B01142FD22E4A832B830C83842F0E948B
:10471000B420811122C082E0E816F104C9F083E0E0
:10472000E816F10441F081E0E816F10469F485E04F
:10473000173F21F404C087E0073F09F084E0898334
:10474000CE0101960E9483262496E7E00C94862CE5
:1047500087EFD812F3CF86E0F2CF12951F7019833E
:10476000EFCF8DE993E00E94DF206AE773E28DE9E5
:1047700093E00E942A2168E473E28DE993E00E94AD
:104780002E2166E473E28DE993E00E94DB2067E46A
:1047900073E28DE993E00E94D72008959B01409138
:1047A0008E044430C1F4FC0191819F709093E90024
:1047B00050E040E064E070E0C9010E9450278111A0
:1047C0000BC09091E80095FD07C09091E8009E779E
:1047D0009093E800089582E0089520918E0424309B
:1047E00099F4FC0181818F708093E9009091F3002E
:1047F0008091F200892B51F08091E8008E778093B0
:10480000E8000E94FE28089582E0089580E008955F
:10481000FC0180918E04843059F491819F709093B3
:10482000E9008091E80080FF03C0CF010E94ED23E2
:1048300008959B0140918E04443011F080E008956A
:10484000FC0196819F709093E9008091E80082FFBF
:10485000F5CF8091E80085FFF1CF50E040E064E0C3
:1048600070E0C9010E949F278091E80085FD05C086
:104870008091E8008B778093E80081E00895809133
:104880008503089508959C0182E08093E9009FEFDD
:104890008091E800915085FD06C085ED8A95F1F77D
:1048A00000009111F5CF8091E80085FF0CC050E029
:1048B00040E066E070E0C9010E9450278091E80066
:1048C0008E778093E8000895CF93DF93EC0181E029
:1048D0008093E9008FEF9091E800815095FD06C02C
:1048E00095ED9A95F1F700008111F5CF8091E800E0
:1048F00085FF14C050E040E068E070E0CE010E9407
:1049000050278091E8008E778093E80088E0FE01D0
:10491000ADE7B3E001900D928A95E1F7DF91CF9179
:1049200008958093790370937B0360937A03809159
:104930008E04843001F582E08093E9008FEF90913E
:10494000E800815095FD06C095ED9A95F1F70000BD
:104950008111F5CF8091E80085FF0DC050E040E067
:1049600063E070E089E793E00E9450278091E800BF
:104970008E778093E8000895BC0184E00E94912422
:104980000895BC0183E00E949124089583EC98E08F
:104990000E94960580918D04811109C00E942F29E3
:1049A0000E948C298091E20084608093E200089547
:1049B0008FEB98E00E94960510928D0408958BEB82
:1049C00098E00E9496050E94A11F089587EB98E049
:1049D0000E94960560918A0481E0611101C080E027
:1049E0000E94981F089583EB98E00E94960590918D
:1049F0008E0481E0943009F080E060918A040E9486
:104A00009E1F0895209178032F5F822F62E30E94FA
:104A1000252C992319F02093780308951092780398
:104A200080917C038823F1F080918E048430C1F45E
:104A30009091E9009F702091EC00822F817020FD01
:104A400080E8892B93E09093E9009091EB0090FF30
:104A500004C09091EE0097FD08C08F708093E9002C
:104A600010927C0308951092F1009091E80095FD5A
:104A7000FACF9091E80090FFF0CF9091E8009E77F8
:104A80009093E800EACF42E061EC81E00E94AB281D
:104A900042E261EC82E00E94AB2842E261EC83E0FA
:104AA0000E94AB2842E361E884E00E94AB2842E325
:104AB00061E885E00E94AB2890918E0481E09430FB
:104AC00009F080E060918A040E948E1F0895809111
:104AD0009004833009F461C030F48130D1F1823028
:104AE00009F49EC008958A3009F48AC08B3009F415
:104AF0006FC0893009F050C080918F04813209F075
:104B00004BC08091930490919404029708F044C0A4
:104B10008091E800877F8093E8008091E80082FF21
:104B200037C09091F3008091F200029731F48091A8
:104B3000F100813011F0863021F48091F1008093F2
:104B400085038091E8008B778093E8000E94DF283E
:104B500023C080918F04813AF9F48091E800877F27
:104B60008093E8008091930490919404892B61F4E0
:104B700068E08DE793E070E00E94EE278091E80006
:104B80008B778093E800089560E090E080E0F3CFB9
:104B900080918E048111C1CF089580918F04813A54
:104BA000D9F78091930490919404892BA9F780916F
:104BB000E800877F8093E8008091E80080FFFCCFC9
:104BC000809122018093F1008091E8008E77BCCF24
:104BD00080918F04813201F7809193049091940425
:104BE000892BD1F68091E800877F8093E8000E94AE
:104BF000DF2880919104809322010E944A0B08953E
:104C000080918F04813241F68091E800877F809304
:104C1000E8000E94DF288091920480938603089523
:104C200080918F04813A09F0B7CF8091E800877FA7
:104C30008093E8008091E80080FFFCCF809186039C
:104C4000C1CF9FB7F89410927C039FBF90918E04C0
:104C5000943009F048C02091E9002F703091EC00A9
:104C6000932F917030FD90E8922B23E02093E90080
:104C70002091EB0020FF34C02091EE0027FF30C0D0
:104C800020917703222321F02091E80025FF28C0FE
:104C90001092770326E03091E80035FF14C080932E
:104CA000F1008091E80085FD27C08091E80080FF39
:104CB000FCCF8091E8008E778093E8009F709093FE
:104CC000E90080E0089530918E04343049F4309149
:104CD000EB0035FD05C0215041F481E0809377035E
:104CE0009F709093E9008FEF0895EFE9FFE031970F
:104CF000F1F700C00000CFCF8FB7F89421E02093E8
:104D00007C038FBFDBCFBC018AE091E00E94CE2301
:104D10000895BC018AE091E00E94192408950E9440
:104D2000B12384B7877F84BF0FB6F894A89580918C
:104D30006000886180936000109260000FBE80E880
:104D400090E00FB6F89480936100909361000FBEDD
:104D50000E94A71F08950E942F290E948C29E2EE2D
:104D6000F0E080818460808378940E940A2C08950A
:104D700086E191E00E949B1E089580918E0485300B
:104D800051F48FEA98E00E94960580918E04853058
:104D900019F00E94222008950E94F71F80918C0430
:104DA000882399F30E94B41F882379F30E943A273D
:104DB0000E944A0BEACF8AE091E00E9408240895FD
:104DC0000E94E3260895292F33272330310521F14E
:104DD00068F42130310509F443C02230310509F46B
:104DE00044C090E080E030E020E026C02132310570
:104DF00051F122323105A9F76330710590F7FB01BB
:104E0000EE0FFF1FEF53FD4F2081318162547D4F24
:104E1000FB01808190E010C099278130910581F0DD
:104E2000009729F00297E9F6E7ECF8E002C0EDEE12
:104E3000F8E0849190E09F01FA0131832083089586
:104E4000E1EDF8E0F6CF6330710558F6660F771F95
:104E5000FB01E953FD4F2081318189E090E0ECCFE7
:104E600082E190E020EB39E0E7CF8FEB90E021EF9B
:104E700038E0E2CF80E189BD82E189BD09B400FE5E
:104E8000FDCF8091D8008F7D8093D8008091E00085
:104E900082608093E0008091E00081FDFCCF089566
:104EA000AF92BF92CF92DF92FF920F931F93CF9357
:104EB000DF936C01EB018A010E94FE28F82E81111C
:104EC00023C00115110539F0F80180819181C81BBB
:104ED000D90BC80ED91EB12CA12C2097A9F0809116
:104EE000E80085FD22C08091E8008E778093E8007D
:104EF00001151105A1F0F80180819181A80EB91E5C
:104F0000B182A08285E0F82E8F2DDF91CF911F9185
:104F10000F91FF90DF90CF90BF90AF9008950E94C7
:104F2000FE288823D1F2F82EEFCFF60181916F0190
:104F30008093F1002197FFEFAF1ABF0ACECFAF9257
:104F4000BF92CF92DF92FF920F931F93CF93DF9385
:104F50006C01EB018A010E94FE28F82E811123C00A
:104F60000115110539F0F80180819181C81BD90B19
:104F7000C80ED91EB12CA12C2097A9F08091E80071
:104F800085FD22C08091E8008B778093E8000115B1
:104F90001105A1F0F80180819181A80EB91EB1829E
:104FA000A08285E0F82E8F2DDF91CF911F910F9178
:104FB000FF90DF90CF90BF90AF9008950E94FE28A1
:104FC0008823D1F2F82EEFCF8091F100F601819382
:104FD0006F012197FFEFAF1ABF0ACECFFC0180917E
:104FE00095049091960486179707A0F061157105B6
:104FF00029F49091E8009E779093E80090E0611585
:10500000710551F4911108C08091E80082FF34C00D
:1050100080E00895BC01F2CF80918E048823C1F115
:105020008530C1F18091E80083FD30C08091E800B7
:1050300082FDEACF8091E80080FFE1CF8091F3000C
:105040002091F200382F6115710519F028303105D3
:1050500058F091E02830310509F090E02091E80007
:105060002E772093E800CBCF81918093F10061509F
:1050700071092F5F3F4FE7CF80918E04882341F065
:10508000853041F08091E80083FFBECF81E0089534
:1050900082E0089583E00895FC0180919504909149
:1050A000960486179707A0F06115710529F4809181
:1050B000E8008E778093E80090E06115710551F467
:1050C000911108C08091E80082FF35C080E008950A
:1050D000BC01F2CF80918E048823C9F18530C9F1DB
:1050E0008091E80083FD31C08091E80082FDEACF25
:1050F0008091E80080FFE1CF8091F3002091F200E1
:10510000382F6115710519F02830310558F091E0FC
:105110002830310509F090E08091E8008E77809387
:10512000E800CBCF84918093F100319661507109F2
:105130002F5F3F4FE6CF80918E04882341F085306A
:1051400041F08091E80083FFBDCF81E0089582E0C7
:10515000089583E00895982F973028F08F708093FA
:10516000E90081E008959093E900242F762F50E024
:10517000981731F07091EC002091ED005091F00003
:1051800021FD02C09F5FE8CF3091EB003E7F30935E
:10519000EB003091ED003D7F3093ED003091EB005E
:1051A00031603093EB007093EC002093ED0050934E
:1051B000F0002091EE0027FDE5CF80E0089580917A
:1051C0008F0487FF13C08091E80082FF06C08091A2
:1051D000E8008B778093E80004C080918E048111F1
:1051E000F2CF089580918E048823D9F38091E8004E
:1051F00080FFF8CF8091E8008E77ECCF2091E4001B
:105200003091E50095E6A9012091EC00822F817094
:1052100020FF06C08091E80080FF06C080E008956E
:105220002091E80022FD1AC080918E04882389F025
:10523000853089F08091EB0085FD0FC02091E4005E
:105240003091E50042175307F9F29150E1F684E0FE
:10525000089582E0089583E0089581E008950E9412
:105260009E290E94A629E0EEF0E080818160808383
:10527000E8EDF0E080818F77808319BCA7EDB0E086
:105280008C918E7F8C9380818F7E808310928D0491
:1052900008950F931F93CF93DF930E949E290E943E
:1052A000A629C8EDD0E088818F77888388818068BF
:1052B000888388818F7D888319BC10928E04109218
:1052C0008A0410928C0410928B0400EE10E0F80116
:1052D00080818B7F808388818160888342E060E069
:1052E00080E00E94AB28E1EEF0E080818E7F808339
:1052F000E2EEF0E08081816080838081886080833D
:10530000F80180818E7F8083888180618883DF912E
:10531000CF911F910F910895E8EDF0E080818F7E8D
:105320008083E7EDF0E080818160808384E082BF4C
:1053300081E080938D040E9449290895E8EDF0E012
:1053400080818E7F80831092E20008951092DA00AF
:105350001092E10008951F920F920FB60F92112440
:105360002F933F934F935F936F937F938F939F936D
:10537000AF93BF93EF93FF938091E10082FF0BC047
:105380008091E20082FF07C08091E1008B7F8093D3
:10539000E1000E9402258091DA0080FF19C080910F
:1053A000D80080FF15C08091DA008E7F8093DA00EC
:1053B0008091D90080FF96C080E189BD82E189BDDE
:1053C00009B400FEFDCF81E080938E040E94C624C4
:1053D0008091E10080FF19C08091E20080FF15C03C
:1053E0008091E2008E7F8093E2008091E2008061F4
:1053F0008093E2008091D80080628093D80019BC2D
:1054000085E080938E040E94E6248091E10084FF71
:105410002BC08091E20084FF27C080E189BD82E13A
:1054200089BD89B5982F917080FFFBCF8091D800FE
:105430008F7D8093D8008091E1008F7E8093E10082
:105440008091E2008F7E8093E2008091E200816093
:105450008093E20080918A04882309F449C084E0A3
:1054600080938E040E94F3248091E10083FF29C081
:105470008091E20083FF25C08091E100877F8093C7
:10548000E10082E080938E0410928A048091E10012
:105490008E7F8093E1008091E2008E7F8093E20016
:1054A0008091E20080618093E20042E060E080E071
:1054B0000E94AB288091F00088608093F0000E94E9
:1054C000DF24FF91EF91BF91AF919F918F917F91D9
:1054D0006F915F914F913F912F910F900FBE0F9061
:1054E0001F90189519BC10928E040E94D82470CF7A
:1054F0008091E30087FD93E090938E04B3CF1F92D9
:105500000F920FB60F9211242F933F934F935F93F7
:105510006F937F938F939F93AF93BF93CF93DF93BB
:10552000EF93FF93D091E900DF708091EC00C82FDA
:10553000C17080FDC0E81092E9008091F000877F83
:105540008093F00078940E94C32A1092E900809121
:10555000F00088608093F000CD2BCF70C093E900FD
:10556000FF91EF91DF91CF91BF91AF919F918F917B
:105570007F916F915F914F913F912F910F900FBE4F
:105580000F901F901895AAE2B0E0E9ECFAE20C94B3
:105590006E2C8FE894E02091F100FC012193CF0163
:1055A000F4E087399F07B9F70E9467258091E800EA
:1055B00083FF1EC180918F04909190049A3008F06F
:1055C00017C1E92FF0E0E450F34D0C94592C8038CA
:1055D00099F0823809F00CC1809193048F70873064
:1055E00008F006C18093E9008091EB0085FB8827D5
:1055F00080F91092E90006C080918B0490918C0490
:10560000911182609091E800977F9093E8008093D9
:10561000F1001092F1008091E8008E77E5C08823B8
:1056200009F4D3C0823009F0E3C080919104811164
:10563000D6C0809193048F702FEF280F263008F08A
:10564000D7C08093E9002091EB0020FFC8C09330C1
:1056500031F48091EB0080628093EB00C0C09091A8
:10566000EB0090619093EB0021E030E001C0220F4D
:105670008A95EAF72093EA001092EA008091EB0005
:105680008860EACF8111B4C0109191041F77809196
:10569000E3008078812B8093E3008091E800877F8E
:1056A0008093E8000E94DF288091E80080FFFCCF13
:1056B0008091E30080688093E30082E0111183E031
:1056C00080938E0495C08058823008F091C08091FC
:1056D0009104909192048C3D23E09207A1F583E020
:1056E0008A838AE289834FB7F894DE01139620E01B
:1056F0003EE051E2E32FF0E050935700E49120FFA9
:1057000003C0E295EF703F5FEF708E2F90E0EA30BC
:10571000C0F0C7968D939D932F5F243159F74FBFEB
:105720008091E800877F8093E8006AE270E0CE0114
:1057300001960E94EE278091E8008B778093E80025
:1057400057C0C096E7CF6091930470919404AE0166
:105750004F5F5F4F0E94E026BC01892B09F448C0CF
:105760009091E800977F9093E80089819A810E9448
:105770004C28E1CF8038E1F58091E800877F809365
:10578000E80080918A048093F10045CF811130C0F8
:1057900090919104923060F58091E800877F80932A
:1057A000E80090938A040E94DF2880918A0488236D
:1057B00011F084E005C08091E30087FDFACF81E01D
:1057C00080938E040E94432513C080919104813000
:1057D00079F481E0933009F080E080938C0410929A
:1057E000E9008091E800877F8093E8000E94DF282D
:1057F0008091E80083FF0AC08091E800877F809352
:10580000E8008091EB0080628093EB00AA96E3E0D1
:105810000C948A2CCF9380918E048823A1F0C091A0
:10582000E900CF709091EC00892F817090FD80E8A5
:10583000C82B1092E9008091E80083FD0E94C32AE2
:10584000CF70C093E900CF910895991B79E004C00F
:10585000991F961708F0961B881F7A95C9F78095AF
:105860000895AA1BBB1B51E107C0AA1FBB1FA617A7
:10587000B70710F0A61BB70B881F991F5A95A9F7F9
:1058800080959095BC01CD01089597FB072E16F4E5
:10589000009407D077FD09D00E94312C07FC05D079
:1058A0003EF4909581959F4F0895709561957F4F37
:1058B0000895EE0FFF1F0590F491E02D09942F92AB
:1058C0003F924F925F926F927F928F929F92AF9290
:1058D000BF92CF92DF92EF92FF920F931F93CF93DD
:1058E000DF93CDB7DEB7CA1BDB0B0FB6F894DEBF74
:1058F0000FBECDBF09942A88398848885F846E849A
:105900007D848C849B84AA84B984C884DF80EE80E3
:10591000FD800C811B81AA81B981CE0FD11D0FB6EC
:10592000F894DEBF0FBECDBFED010895FB01DC0191
:1059300004C08D910190801921F441505040C8F766
:10594000881B990B0895FB01DC0102C001900D92A8
:1059500041505040D8F70895F999FECF92BD81BDCE
:10596000F89A992780B50895A8E1B0E042E050E0A8
:105970000C94E02C262FF999FECF92BD81BDF89AA8
:10598000019700B4021639F01FBA20BD0FB6F89483
:10599000FA9AF99A0FBE08950396272F0E94BB2CFE
:1059A0000E94BA2C252F0E94BB2C242F0C94BB2CB8
:1059B0000196272F0E94BB2C0C94BA2CDC01CB0142
:1059C000FC01F999FECF06C0F2BDE1BDF89A31960F
:1059D00000B40D9241505040B8F70895F894FFCFAD
:1059E0003509350966096609F3090F0A950995090C
:1059F0001A0A8B0A9A0A9A0AE72A0F2BF82B0F2BFE
:0C5A0000F82B422B632BF82BBA2BC62B83
:105A0C003803280850011E0A1401048440000001C8
:105A1C000540000001003F2464244324C124BC241D
:105A2C00422401E200E900EA00B500B600B700CD5F
:105A3C00008301CC008A01920194012102230224EB
:105A4C00022502260227022A02B300B4006F00705E
:105A5C0000818283E200E900EA00B500B600B700DD
:105A6C00CD008301CC008A01920194012102230212
:105A7C0024022502260227022A02B300B4006F007A
:105A8C007000818283F4F5F6F73133323697C634E1
:105A9C00359293919094663F3F3F006D6B5F6465C8
:105AAC006C6179006D6B5F696E74657276616C0008
:105ABC006D6B5F6D61785F7370656564006D6B5FB6
:105ACC0074696D655F746F5F6D6178006D6B5F7786
