:100000000C9456050C948E050C948E050C948E055C
:100010000C948E050C948E050C948E050C948E0514
:100020000C948E050C948E050C943E250C9412268F
:100030000C94631F0C948E050C948E050C948E0505
:100040000C948E050C948E050C948E050C948E05E4
:100050000C948E050C94EA1F0C948E050C948E055E
:100060000C948E050C948E050C948E050C948E05C4
:100070000C948E050C948E050C948E050C948E05B4
:100080000C948E050C948E050C948E050C948E05A4
:100090000C948E050C948E050C948E050C948E0594
:1000A0000C948E050C948E050C948E052B00140078
:1000B0001A000800150017001C0018000C001200A0
:1000C00013002F0030002A0039000400160007003A
:1000D00009000A000B000D000E000F003300340071
:1000E00028004B00E1001D001B0006001900050060
:1000F00011001000360037003800E50052004E00B5
:10010000E000E200E3002C0000002C0000000151A0
:10011000000002510351500051004F0035001E00F5
:100120001F002000210022002300240025002600BB
:1001300027002D002E003100010001000100010008
:1001400001000100010001000100010001000100A7
:1001500001004A000100010001000100010001004E
:1001600001000100010001000100010001004D003B
:100170000100010001000100000001000000010079
:1001800000000100010001000100010029003A0007
:100190003B003C003D003E003F004000410042006B
:1001A0004300440045004C00010001000100010033
:1001B0000100010001000100010001000100010037
:1001C00001004A00010001000100010001000100DE
:1001D00001000100010001000100010001004D00CB
:1001E0000100010001000100000001000000010009
:1001F00000000100010001000100010001000100F8
:1002000001000100010001000100AC00AE00AB00E4
:10021000A800AA00A90001000100010001000100DE
:1002200001000100010001000100010001000100C6
:1002300001000100010001000100010001000100B6
:1002400001000100010001000100010001000100A6
:100250000100010001000100000001000000010098
:100260000000010001000100010001004445425569
:10027000473A2064697361626C65642E0A004445E4
:100280004255473A20656E61626C65642E0A000A29
:100290000025303258006C65645F7461736B3A20DE
:1002A000004F6E6573686F743A2061637469766598
:1002B0003A2025640A000A002530313662003A20CF
:1002C0000025303258000A722F6320303132333427
:1002D00035363738394142434445460A00290A0039
:1002E0002575002F002575005D280025640020007D
:1002F000256400200025640020002564007C002582
:10030000303258006D6F7573656B6579205B627470
:100310006E7C782079207620685D287265702F6168
:10032000636C293A205B00313A0964656C61792875
:100330002A31306D73293A2025750A323A09696EDF
:1003400074657276616C286D73293A2025750A33BD
:100350003A096D61785F73706565643A2025750AA6
:10036000343A0974696D655F746F5F6D61783A2026
:1003700025750A353A09776865656C5F6D61785F48
:1003800073706565643A2025750A363A09776865A1
:10039000656C5F74696D655F746F5F6D61783A203D
:1003A00025750A00703A097072696E742076616C66
:1003B0007565730A643A09736574206465666175CE
:1003C0006C74730A75703A092B310A646E3A092D00
:1003D000310A6C743A092B31300A72743A092D31A2
:1003E000300A4553432F713A09717569740A0A73CB
:1003F00070656564203D2064656C7461202A206D01
:1004000061785F7370656564202A20287265706565
:100410006174202F2074696D655F746F5F6D617802
:10042000290A77686572652064656C74613A206397
:100430007572736F723D25642C20776865656C3D1D
:1004400025640A53656520687474703A2F2F656EB1
:100450002E77696B6970656469612E6F72672F779B
:10046000696B692F4D6F7573655F6B6579730A00F2
:100470004D3E20004D25753A25733E20003F0A0071
:100480003D2025750A003F0A0064656661756C743D
:10049000730A0025750A003F0A000A092D205661DB
:1004A0006C756573202D0A00710A000A092D204D14
:1004B0006F7573656B6579202D0A003F00433E2000
:1004C000004C25640A000A092D2053746174757369
:1004D000202D0A686F73745F6B6579626F61726457
:1004E0005F6C65647328293A20253032580A6B65A1
:1004F00079626F6172645F70726F746F636F6C3A70
:1005000020253032580A6B6579626F6172645F69C9
:10051000646C653A20253032580A74696D65725FE3
:1005200072656164333228293A202530386C580AC4
:10053000002573000A092D20436F6E736F6C6520D0
:100540002D0A4553432F713A09717569740A6D3A42
:10055000096D6F7573656B65790A000A092D204D69
:1005600061676963202D0A443A0944656275672012
:100570004D65737361676520546F67676C650A58D2
:100580003A094D6174726978204465627567204D3F
:100590006F646520546F67676C65202D2053686F0A
:1005A00077206B65797072657373657320696E204F
:1005B0006D617472697820677269640A4B3A094BFD
:1005C0006579626F61726420446562756720546F5B
:1005D00067676C65202D2053686F77206B65797095
:1005E00072657373207265706F72740A4D3A0944B4
:1005F00065627567204D6F75736520546F67676C12
:10060000650A563A0956657273696F6E0A533A095C
:100610005374617475730A433A094163746976616E
:10062000746520436F6E736F6C65204D6F64650A4F
:1006300046312D4631303A09537769746368207426
:100640006F204C6179657220302D39202846313079
:10065000203D204C30290A302D393A0953776974EE
:10066000636820746F204C6179657220302D390ADF
:1006700047524156453A0953776974636820746F4D
:10068000204C6179657220302028616C7465726E2F
:10069000617465290A423A094A756D7020746F20A9
:1006A000426F6F746C6F616465720A4553433A0917
:1006B0004A756D7020746F20426F6F746C6F616447
:1006C00065722028616C7465726E617465290A45D3
:1006D0003A095072696E7420454550524F4D20536F
:1006E000657474696E67730A4241434B53504143CA
:1006F000453A09436C65617220454550524F4D0A99
:10070000006B65796D61705F636F6E6669672E72ED
:1007100061773A20253032580A2E737761705F6313
:100720006F6E74726F6C5F636170736C6F636B3A42
:100730002025750A2E636170736C6F636B5F746F35
:100740005F636F6E74726F6C3A2025750A2E737733
:1007500061705F6C63746C5F6C6775693A202575B6
:100760000A2E737761705F7263746C5F726775696C
:100770003A2025750A2E737761705F6C616C745F27
:100780006C6775693A2025750A2E737761705F7200
:10079000616C745F726775693A2025750A2E6E6FF9
:1007A0005F6775693A2025750A2E737761705F67F8
:1007B000726176655F6573633A2025750A2E7377DB
:1007C00061705F6261636B736C6173685F626163C8
:1007D0006B73706163653A2025750A2E6E6B726FBC
:1007E0003A2025750A2E737761705F6573636170B7
:1007F000655F636170736C6F636B3A2025750A00E7
:1008000064656275675F636F6E6669672E72617794
:100810003A20253032580A2E656E61626C653A20A6
:1008200025750A2E6D61747269783A2025750A2E35
:100830006B6579626F6172643A2025750A2E6D6F5F
:100840007573653A2025750A006565636F6E666984
:10085000673A0A64656661756C745F6C617965728C
:100860003A2025750A003F000A6D6F7573653A20BE
:100870006F66660A000A6D6F7573653A206F6E0ABF
:10088000000A6B6579626F6172643A206F66660A6E
:10089000000A6B6579626F6172643A206F6E0A00BC
:1008A0000A6D61747269783A206F66660A000A6D93
:1008B00061747269783A206F6E0A000A6465627525
:1008C000673A206F66660A000A64656275673A20B7
:1008D0006F6E0A000A0A4A756D70696E6720746F40
:1008E00020626F6F746C6F616465722E2E2E200013
:1008F000433E2000436C656172696E672045455038
:10090000524F4D0A000A002530325820006B65799D
:10091000626F6172645F7265706F72743A20005B1F
:10092000735D005B575D005B535D005B525D005B78
:10093000445D005B435D0008034800350030000063
:10094000001A034D0041004E00550046004100438F
:1009500000540055005200450052000000040309F5
:100960000409025B00030100A0FA0904000001036E
:100970000101000921110100012240000705810346
:100980000800010904010001030000000921110110
:100990000001227B000705820320000109040200F8
:1009A00002030000000921110100012222000705B5
:1009B0008303200001070503032000011201000248
:1009C0000000000859480200010001020001063140
:1009D000FF0974A1010975150026FF00952075080F
:1009E00081020976150026FF00952075089102C046
:1009F00005010902A10185020901A10005091901EA
:100A000029081500250195087501810205010930A5
:100A100009311581257F95027508810609381581F0
:100A2000257F950175088106050C0A380215812578
:100A30007F950175088106C0C005010980A1018567
:100A40000319012AB700150126B700950175108119
:100A500000C0050C0901A101850419012AA0021595
:100A60000126A002950175108100C005010906A1AB
:100A700001050719E029E715002501950875018191
:100A8000029501750881010507190029FF15002647
:100A9000FF009506750881000508190129059505CF
:100AA00075019102950175039101C00011241FBECB
:100AB000CFEFDAE0DEBFCDBF04B603FE18C08091F1
:100AC0008E0390918F03A0919003B0919103873092
:100AD000904BA740B04B59F410928E0310928F03A5
:100AE0001092900310929103E0E0F8E3099512E070
:100AF000A0E0B1E0E2E3F1E502C005900D92A23B77
:100B0000B107D9F723E0A2EBB2E001C01D92AE38E5
:100B1000B207E1F70E94A9150C9481280C940000FB
:100B2000FF93EF93E091B202F091B302309709F096
:100B30000995EF91FF910895FC018591803011F0A6
:100B4000EFDFFBCF0895FF27E0E230E247FF0CC064
:100B5000419597FF09C0EDE260957095809590955D
:100B6000611D711D811D911D27FF02C0219530E37C
:100B700050E2AA27660F771F881F991FAA1FA41784
:100B800010F0A41B63955A95A9F7AA3008F0A95F45
:100B9000A05DAF93F395611571058105910541F74E
:100BA000ED3211F4EF93F395F21718F43F93F395A8
:100BB000FBCF8F91B5DFFA95E1F70895E991F991AF
:100BC0008591803021F0853219F0AADFF9CF0895A0
:100BD00020E0E89455915532C1F3503311F46894F4
:100BE00055915A3348F4505390F3220F022E220F9E
:100BF000220F200D250FF4CF0EF4219589919991A4
:100C0000533619F3533729F1533559F1BC0188276D
:100C10009927E8945C3621F48991999168945591CB
:100C2000543639F446EF7EF077FF0DC08FEF9FEF1B
:100C30000AC055374AE039F0583540E121F05236C4
:100C400042E009F00895FF93EF937DDFEF91FF916C
:100C5000B7CFFF93EF93FC0181918030B9F360DF50
:100C6000FBCFFF93EF9368DFF1CFDF93CF93CDB747
:100C7000DEB72596A3DFCF91DF91089581E0089537
:100C800081E008950E944006089508950E94450657
:100C90000895A5E0B0E0EFE4F6E00C94ED27498379
:100CA0005A833091B90289819A81311119C0662322
:100CB00099F0222389F00E943D0C182F682F89811A
:100CC0009A810E94190C69817A81812F0E94CF122A
:100CD0002596E3E00C9409280E942B0C182FF3CFE3
:100CE0000E943D0C69817A81F1CFFC01262F408161
:100CF00051816281738184810E944906089581E057
:100D00000895CF93DF93EC0160E00E947506BE0169
:100D10000E944606DF91CF9108950E940D14089518
:100D20000E941114089508950E94E40A0E949306F7
:100D30002FEF84E39CE0215080409040E1F700C019
:100D4000000008950E9494060E940E2008950E94BB
:100D500094060E94322008950F931F93CF93DF9340
:100D60008C0161E00E947506EC01B8010E94420608
:100D7000811106C080E0DF91CF911F910F910895FE
:100D8000B801CE010E94D71D8823A1F3B801CE017E
:100D90000E94BC18882371F3B801CE010E94491D3E
:100DA000882341F3F80182818823D9F0CB35FDE512
:100DB000DF07A9F170F4C130ECE5DE07B1F0CF3DFB
:100DC000FCE5DF0721F1C115DC4559F40E94A206BC
:100DD000D1CFCD35EDE5DE07F9F020F1C83ADD459C
:100DE000C1F0C8010E943E06C6CF90913803892FFA
:100DF0008E7F90FF81608093380380FF05C08EE76F
:100E000092E00E949C05B6CF8CE692E0FACF0E9459
:100E10000A110E94A706AECF0E944810E2CF0E949E
:100E20005210DFCF0E945610DCCF0E943F1F0E945D
:100E3000630708950E9467070E94441F08958295E2
:100E400090E09C01220F331F220F331F2C7C9595BD
:100E50008795959587958373282B30E0C901880F76
:100E6000991F8A7A359527952575822B0895CF93FA
:100E7000DF93D92F0E941F07C82F8D2F0E941F07B5
:100E80009C2FDF91CF91089508950E944407089503
:100E900081E00895CF93C82F0E944807882319F056
:100EA000C1FF03C05D9ACF9108955D98FCCF559A1C
:100EB0005D980895CF93C82F0E9445078C2F0E94FC
:100EC0004A07CF91089580E00E945A0708950E9432
:100ED000331E0E945A070895CF930E94331EC82FD5
:100EE0008091B4028C1789F1C093B4020E94CF1F85
:100EF0006093B5027093B6028093B7029093B802E4
:100F00008091380382FF1EC080FF1CC086E992E0FA
:100F10000E949C058091380380FF14C01F92CF93DC
:100F200081E992E09F938F930E9435068091380368
:100F30000F900F900F900F9080FF04C08FE892E009
:100F40000E949C058C2F0E945A07CF910895ABE018
:100F5000B0E0EDEAF7E00C94EE274F8358876987FD
:100F60007A878B8761110E94800F1E821D8285E027
:100F7000FE013796DE01119601900D928A95E1F7F8
:100F80008C819D81892B61F449815A816B817C819F
:100F90008D819E810E94A90E2B96E2E00C940A2876
:100FA00089819A8189238F3F79F3CE0101960E942E
:100FB0007F068111E9CFF0CFFC01808191810E94F1
:100FC0006F0C0895CF93C82F8823E1F08CEF8C0F1E
:100FD000813AD0F48C2F0E94F51C811113C06C2F24
:100FE00080910001909101010E94D01E882329F078
:100FF0008C2F0E94400F0E94A10F8C2F0E94380F4F
:101000000E94A10FCF91089580E28C0F883048F4A0
:10101000C77081E001C0880FCA95EAF70E94630F8C
:10102000EFCFEBE5EC0FE33040F4F0E0EB5BFE4F8D
:10103000808190E00E94921EE5CFE8E5EC0FE73159
:1010400050F4F0E0EE0FFF1FE95EFE4F80819181CA
:101050000E94A81ED7CFCD3EA8F28C2F0E942D163D
:101060000E940017CFCF882379F19CEF980F913A17
:1010700028F40E94400F0E94A10F089590E2980F5B
:10108000983050F4877091E001C0990F8A95EAF783
:10109000892F0E94690FEFCF9BE5980F933028F4BA
:1010A00090E080E00E94921E089598E5980F973195
:1010B00028F490E080E00E94A81E08958D3E20F064
:1010C0000E9487160E94001708951F93CF93DF9305
:1010D000182FEB010E94E207209739F4812F0E941C
:1010E0003308DF91CF911F9108958FE99FE0019719
:1010F000F1F700C000002197EFCF70E060E0893386
:1011000011F460E570E00E9465080895882321F0DD
:101110000E94630F0E94A10F0895882321F00E946E
:10112000690F0E94A10F0895B0E0A0E0EAE9F8E09D
:101130000C94E7276C01D62FC72FFC011281F58094
:10114000F2949FE0F9220E94590FE82E8823B9F00B
:10115000E12E1123A1F08C2F807F803421F080E2DA
:101160008D0F8830D0F080916C0382FF16C082E032
:101170000E9404100E94590F91E0E82EE926BC2E2F
:10118000B2948FE0B822FBE0FB1508F468C0EB2DA9
:10119000F0E0ED57F74D0C94D827E12CF0CF0C2F51
:1011A0000F70C07F11F00295007F112399F000238A
:1011B00059F080E28D0F883010F0D11107C0802FD8
:1011C0000E94630F0E94A10F8D2F41C0802F0E94AB
:1011D000730FF8CF8D2F0E943308002309F43FC00E
:1011E00080E28D0F883010F0D11104C0802F0E9452
:1011F000690F03C0802F0E94790F0E94A10F2FC09A
:101200000C2F0F70C07FC03211F00295007FDD23DC
:1012100081F0D13009F463C0112309F46DC0FF20BF
:1012200009F463C0F601858180FFCECF8F7085837E
:101230005CC080916C0382FD33C0112359F0002300
:1012400029F0802F0E94630F0E94A10F80E00E946E
:10125000E20705C080E00E9433080111C7CFEB2DE3
:10126000E850FF0B349720F40E94331E0E945A0767
:10127000EE2089F00E94550F80FD0DC0F60112820C
:101280000E944F0F0E94770BC6010E94A40A0E9481
:101290004F0F0E94870BCDB7DEB7E9E00C9403280F
:1012A000112389F0F11006C00E94830F802B0E9449
:1012B0008608D5CF21E0F212F7CF0E94830F802B52
:1012C0000E948A0FCCCFF11006C00E94970F802F8A
:1012D0000E948D08C4CF31E0F31609F2F6CF112336
:1012E00031F085E08F1508F4BACF802FE0CF94E07D
:1012F0009F1508F4B4CFEBCFFF2049F3D93349F45D
:10130000FFEF27EE33E0F15020403040E1F700C01E
:1013100000008D2F0E943308A2CF8C2F86958695D2
:10132000837069F0813009F09ACF8D2F9C2F9370D4
:10133000111102C090E080E00E94A81E90CF8D2F76
:101340009C2F9370111102C090E080E00E94921EC9
:1013500086CF8D2F112329F00E942D160E94001791
:101360007ECF0E948716FACF8C2F8370A1F51111C2
:1013700076CF4D2F429546954770440F440F2D2F41
:101380002F7030E0042E02C0220F331F0A94E2F7C0
:1013900090E080E0D4FF09C08FE090E002C0880FA9
:1013A000991F4A95E2F780959095C695C695C370AA
:1013B000822B932BC23049F058F4C13019F00E94AF
:1013C000450B4DCF0E943C0B4ACF0E944E0B47CF9E
:1013D0000E94390B44CF8695112311F08C2F817018
:1013E000882309F43CCF4D2F429546954770440F12
:1013F000440F2D2F2F7030E0042E02C0220F331F18
:101400000A94E2F790E080E0D4FF09C08FE090E01A
:1014100002C0880F991F4A95E2F780959095C6956E
:10142000C695C370822B932BC23049F058F4C1305B
:1014300019F00E94B20B13CF0E94A90B10CF0E948B
:10144000BB0B0DCF0E945D0B0ACFCF70112329F08B
:101450008C2F0E94770B8D2F2ACF8D2F0E948D0805
:101460008C2F0E94870BFBCED23F51F160F4D03F0E
:10147000B9F0D13F81F0112309F449C0F110A4CE95
:101480008C2F8F7121C0D33F11F1D43FA1F78091F0
:101490006C0382FD26C08C2F8F71112311F314C0B1
:1014A000112349F084E08F1508F4D9CE8C2F8F7169
:1014B0000E94990BD4CE95E09F1508F4D0CEF6CFBC
:1014C0008C2F8F711111CDCF0E94770BC8CE1123B5
:1014D00029F08C2F8F710E946B0BC1CE0E94660B7E
:1014E000BECE112349F0CF718C2F0E94770B63E0A1
:1014F0008C2F0E94E60FB3CE81E00E940410E1E041
:10150000EF1508F0ACCE82E00E940410A8CEF110D6
:10151000F5CE8C2F8F71A5CF0F931F93CF93DF93B1
:10152000EC01688179818A810E947A0C8C010E9489
:10153000C40B0E94380BB801CE010E949408DF91C1
:10154000CF911F910F910895CF93DF93EC018B8181
:101550009C81892B29F08881998189238F3F51F4BF
:10156000DF91CF910895CE010E948C0ACE010E9496
:101570008106F6CFCE010E94AC068111F4CF0E9405
:10158000590F882369F38A81882351F380916C0372
:1015900082FFE6CF82E00E940410E2CF90E080E07C
:1015A0000E94921E90E080E00E94A81E0E94800F80
:1015B0000E94A10F0E949E170E94001708950E948A
:1015C000480F0E94CE0A08950E94700F0E94DF0A01
:1015D000089592959F70963091F058F4925F9F70A5
:1015E000923058F4803F19F030F4883E30F481E0B6
:1015F00008959A5FF4CF843FD1F380E00895883E48
:10160000B0F3813FD1F7F3CFFC0183819481892B23
:1016100029F08081918189238F3F11F480E0089522
:10162000808191810E946F0C0E94E90A0895A5E0D3
:10163000B0E0EDE1FBE00C94EE272596E2E00C949F
:101640000A28A6E0B0E0E7E2FBE00C94EE2726963D
:10165000E2E00C940A2808950E942B0B08950E9442
:101660002C0B9093D9028093D8020E94CE0A089541
:1016700008950E942F0B08952091D8023091D9022D
:10168000822B932B0E942F0B08952091D80230912A
:10169000D902822393230E942F0B08952091D80210
:1016A0003091D902822793270E942F0B08950E9420
:1016B0002B0B08950E94570B08950E945A0B90938C
:1016C000D7028093D6020E94CE0A089590E080E06F
:1016D0000E945D0B089521E030E0A90102C0440F93
:1016E000551F8A95E2F7CA010E945D0B089521E01B
:1016F00030E002C0220F331F8A95E2F78091D602B4
:101700009091D702822B932B0E945D0B089521E0CC
:1017100030E002C0220F331F8A95E2F72095309502
:101720008091D6029091D702822393230E945D0B71
:10173000089521E030E002C0220F331F8A95E2F7BE
:101740008091D6029091D702822793270E945D0B49
:1017500008952091D6023091D702822B932B0E94BC
:101760005D0B08952091D6023091D70282239323F6
:101770000E945D0B08952091D6023091D7028227F6
:1017800093270E945D0B08950895262F277091E0FE
:1017900001C0990F2A95EAF723E0769567952A9577
:1017A000E1F7660F771F660F771FFA01E60FF71F45
:1017B00050E040E0682F70E08191DF0111979B01BC
:1017C000042E02C0369527950A94E2F721702195E0
:1017D0002827292328272C934F5F5F4F443051053A
:1017E00059F70895A82FA77023E0969587952A9515
:1017F000E1F7880F991F880F991FFB01E80FF91F68
:1018000050E040E080E0219130E00A2E02C03695A1
:1018100027950A94E2F721703327042E01C0220F86
:101820000A94EAF7822B4F5F5F4F4430510559F716
:101830000895262F943070F48E3060F4682F70E095
:101840008EE0989F600D711D11244AEB52E0822FAB
:101850000E94C50B0895292F943068F48E3058F4F7
:1018600090E06AEB72E03EE0239F800D911D112411
:101870000E94F20B089580E00895B0E0A0E0E3E458
:10188000FCE00C94E7277C010091D6021091D7026E
:101890008091D8029091D902082B192BCFE0D0E08B
:1018A000CC24C394D12CBC2EC6010C2E02C0880FB0
:1018B000991F0A94E2F780239123892B49F42197F9
:1018C00090F7B12C8B2DCDB7DEB7E9E00C9403284F
:1018D000B7018C2F0E94EA12019789F3F3CFCF93BF
:1018E000DF93EC010E943D0CBE010E94EA12DF91E1
:1018F000CF9108951F93CF93DF93EB019091B9029D
:10190000992339F0CB010E946F0CDF91CF911F9189
:101910000895882369F0CB010E943D0C182F682F91
:10192000CE010E94190CBE01812F0E94EA12EDCF58
:10193000CB010E942B0C182FF6CF1F93CF93DF9370
:10194000C091DA0216E08091DB028C1304C0DF91B3
:10195000CF911F910895D0E01C9FF0011D9FF00DC5
:101960001124E452FD4F4081518162817381848151
:1019700095810E94210B2196C770E5CF40910C0301
:1019800050910D0360910E0370910F03809110032D
:10199000909111030E94210B08951F93CF93DF9321
:1019A00080911103807F09F049C080910E03882344
:1019B00009F444C08091DA02C091DB0260910C030B
:1019C00070910D03A0910F03B0911003D62FD72370
:1019D00016E0C81799F190E0109711F0DF3F19F465
:1019E00001968770F6CF189F9001199F300D112432
:1019F000F901E452FD4F41814713F2CF4081461374
:101A0000EFCF42814111ECCF438154814A1B5B0BE4
:101A1000483C510528F7809111038F7080618093B5
:101A20001103F901EF51FD4F80818F708061808338
:101A30008CE093E00E94A40A0E949D0CDF91CF915C
:101A40001F910895A1E1B0E0E8E2FDE00C94E627E3
:101A50008C0185E0F801DE011D9601900D928A95BA
:101A6000E1F7F801E2808CE0C82E83E0D82E609187
:101A70000F03709110036115710509F44EC1909127
:101A80000C0320910D03892F82238F3F09F445C158
:101A900040815181A380B480F0900E03F501E61BD4
:101AA000F70BFF2009F4EAC080911103382F307F33
:101AB000E83CF10508F0A3C031116DC0FE2C2513E0
:101AC00016C0941314C0E11012C08F70806180930F
:101AD00011030E94BE0CC6010E94A40A809111034A
:101AE000F80185838F2D6196EAE00C940228A114F9
:101AF000B10429F0842F85238F3F09F027C180E0AE
:101B0000F82FF170DF2E80FF3CC08091DA02209127
:101B1000DB0236E0821315C04D875E878D859E857A
:101B20000E946F0C292F22952F702230F0F0243064
:101B300018F59F70F1F0F8019581907FD1F4D12CC8
:101B40001EC090E0389FF001399FF00D1124E4523F
:101B5000FD4F6181651306C06081641303C062811B
:101B6000E6120FC001968770D5CF9F7011F08823C1
:101B700031F3805E883018F3C8010E94A40AFD2C5E
:101B8000B1CFEE2009F4AECF809111038160809334
:101B90001103F12CA7CF251306C0941304C0F8013C
:101BA000EE2009F487C0C8010E94040B882319F1B4
:101BB000EE2009F180911103803270F020910C0326
:101BC00030910D0338872F831986BB86AA868C87B0
:101BD000CE0107960E94A40A86E0F801ACE0B3E0CB
:101BE00001900D928A95E1F70E94CD0C0E94BE0CE7
:101BF000FF24F39477CFC8010E94A40AF9CF3111D2
:101C000013C07A2DB98AA88A6E2D89890E94170B74
:101C10008CE093E00E94A40A86E0F60111928A9576
:101C2000E9F70E94BE0CB5CF25130FC094130DC069
:101C3000E1100BC0F8018583C8010E94A40A86E068
:101C4000F60111928A95E9F74DCFC8010E94040B65
:101C5000882389F2EE2079F280911103803208F412
:101C6000BBCF20910C0330910D033A8329831B8253
:101C7000BD82AC828E83CE010196ACCFE83CF105EB
:101C800008F03EC0FE2CEE2009F4B5CF25132AC083
:101C9000941328C08091110380FD1BC0982F907F62
:101CA000C1F0F8018583903F31F0982F907F905FCD
:101CB0008F70892B8583C8010E94A40A86E0F801F1
:101CC000ACE0B3E001900D928A95E1F70E94BE0C62
:101CD00009CF86E0F801ACE0B3E001900D928A955F
:101CE000E1F700CFC8010E94040B811175CF8091EC
:101CF0001103816080931103C8010E94A40AF2CEEF
:101D00007A2DB98AA88A6E2D89890E94170B86E0E0
:101D1000F60111928A95E9F7D9CFEE2009F46BCF3D
:101D2000C8010E94040BF82E882309F464CF86E0D2
:101D3000F801ACE0B3E001900D928A95E1F78CE0F8
:101D400093E00E94DC070E94CD0CC0CF81E08E257D
:101D5000D7CEACE0B0E0EFEAFEE00C94ED274F8385
:101D6000588769877A878B879C87CE0107960E9460
:101D7000220D882369F08A859B85892B39F04F8154
:101D80005885842F85238F3F09F06BC016E05FC014
:101D900086E0FE013796DE01119601900D928A953C
:101DA000E1F78A859B85892B89F38F819885892323
:101DB0008F3F61F32091DB0230E0C901019687700B
:101DC00099274091DA024817190671F40E94E40A33
:101DD0001092DB021092DA0286E0ECE0F3E0DF0121
:101DE0001D928A95E9F7D2CF96E0929FD001939FFA
:101DF000B00D1124A452BD4FFE01319601900D92F9
:101E00009A95E1F78093DB020E949D0CBFCF819FE2
:101E1000C001112484529D4F0E94220D8823E9F0B5
:101E2000E091DA021E9FF0011124E452FD4F40813F
:101E3000518162817381848195810E94210B8091FF
:101E4000DA0290E00196877099278093DA028091F8
:101E5000DA029091DB028913DACF2C96E3E00C943E
:101E6000092869857A858B859C850E94210B8ECFF8
:101E7000682F80910001909101010E94061F089532
:101E8000682F80910001909101010E94091F08951F
:101E900080910001909101010E940C1F0895809192
:101EA0001A03859585958595089580911A03877005
:101EB000089590911A03977081E009F480E00895E5
:101EC00080912503089590912503892B8093250304
:101ED0000895809590912503982390932503089564
:101EE00010922503089590912403892B8093240355
:101EF0000895809590912403982390932403089546
:101F000010922403089580911B03089508950E9460
:101F1000860F089590916C0392FF08C090911B0367
:101F2000981721F080931B030E94870F08958091DA
:101F30001B03882329F010921B0380E00E94870F67
:101F40000895CF93DF93E0910001F091010180911A
:101F500025038083E0910001F0910101808190913F
:101F60002403892B808390911B03992381F0E091B6
:101F70000001F09101018081892B80838091000113
:101F8000909101010E94BE1E81110E94970FC09185
:101F90000001D091010148E050E062E173E0CE0120
:101FA0000E942928892B59F088E0FE01A2E1B3E0C4
:101FB00001900D928A95E1F7CE010E94401EDF91BB
:101FC000CF91089508950E94E20F089590916C03B7
:101FD00092FF11C098E0899F90011124622B6093B9
:101FE0001A030E94770B80911A0385958595859534
:101FF0000E94E30F08950E94770B089510921A0330
:1020000080E00E94E30F089590911A038095892340
:1020100080931A03282F277091F4282F082E000C84
:10202000330B9217130659F090916C0392FF07C07F
:102030008595859585950E94870B0E94FE0F0895D2
:10204000CF93C82F80916C0382FB992790F99C173E
:10205000E9F0C0FB82F980936C0380916B0390914F
:102060006C030E94841082E00E9404108091380367
:1020700080FF0CC01F92CF9381EA92E09F938F93D1
:102080000E9435060F900F900F900F90CF910895FA
:1020900080916C0382FB882780F991E089270E9458
:1020A0002010089581E00E942010089580E00E9491
:1020B000201008956FEF7FEF90E080E00E946B2882
:1020C000089590E080E00E94472821E0883E9E4FDE
:1020D00009F020E0822F089582E090E00E943F28DE
:1020E000089583E090E00E943F280895CF9384E014
:1020F00090E00E943F28C82F82E290E00E943F2893
:10210000982F8C2FCF910895CF93C92F682F84E0FB
:1021100090E00E944D286C2F82E290E00E944D28B2
:10212000CF910895AB01BC018FE090E00E945F2841
:102130000895AB01BC0183E190E00E945F280895FF
:1021400060E070E0CB010E949910089560E070E0BB
:10215000CB010E9492100E94A010089568EE7EEFBD
:1021600090E080E00E946B2860E082E090E00E94B6
:102170004D2860E083E090E00E944D281092D90243
:102180001092D80260E084E090E00E944D2864E064
:1021900082E290E00E944D2860E085E090E00E949D
:1021A0004D2860E086E090E00E944D286FEF87E0C8
:1021B00090E00E944D2840E050E0BA0188E090E0B5
:1021C0000E945F2860E08DE090E00E944D2840E092
:1021D00050E0BA0188E190E00E945F2860E087E16A
:1021E00090E00E944D2840E050E0BA018CE190E080
:1021F0000E945F2870E060E080E290E00E946B281F
:1022000040E050E0BA0188E190E00E945F280E941F
:10221000A61008950E94AE100895682F8EE090E0F9
:102220000E944D2808950E94CF1F6093340370933D
:102230003503809336039093370360933003709394
:1022400031038093320390933303089508950895E2
:102250000E942711089508950E942B11089585E189
:1022600092E20E94291E0E9426110E9428110895C0
:1022700081E008950E9438110895089508950E94FC
:102280003D110E943E1108950E94EE130E945707CF
:1022900008950E94BA1F0E940A150E9444110E94CC
:1022A0002C110895AAE0B0E0E8E5F1E10C94E327F1
:1022B0000E94201528E2822E23E0922E640110E075
:1022C000F601E190F1906F01812F0E9414141F5FBD
:1022D000143009F449C0E816F90691F380913803E7
:1022E00081FD0E941D140E943A11782E10E0812F6A
:1022F0000E9414147C01F401A190B1904F018A1541
:102300009B0561F1A826BF2400E0CC24C394D12C06
:10231000C5018C219D21892BC1F07720B1F00E835E
:102320001F8321E0C7018C219D21892B09F420E026
:1023300028870E94C31F8160782F9A8789874E81E2
:102340005F8168858A850E94A7070F5FCC0CDD1C22
:102350000E30F1F6F4013297F182E0821F5F143003
:1023600031F60E94131122C0E816F90609F0B6CF23
:102370000E94C31F8C0180912603909127030817A8
:102380001907A1F08FEF89838A831B820E94C31FE4
:102390008160782F9D838C8349815A816B818D81E7
:1023A0000E94A70710932703009326030E94C017DB
:1023B0000E946C072A96EDE00C94FF27CF93DF93E1
:1023C0000E94EF12EC01811521E5920708F042C04E
:1023D000811530E5930708F09FC0883E910530F5E0
:1023E000803E910508F094C0883A910588F4853ABA
:1023F000910508F086C08130910509F489C00097E5
:1024000009F486C0049708F083C0D0E0C0E080C023
:102410008F3B9105D0F7C85AD0E0CC0FDD1FC85BC9
:10242000DE4F0990D881C02DD46472C0811540E27E
:10243000940750F4C11581E0D80708F069C0CD3E7B
:10244000D10518F3D06564C081159044F0F2DF70B7
:10245000D06A5EC0811535E5930718F5811544E50E
:10246000940708F085C0C11583E5D80708F06CC053
:10247000C11522E5D20708F462C0CE018370992706
:1024800021E030E002C0220F331F8A95E2F7C695A3
:10249000C69580E2C89FE0011124C22BD32BDC68D3
:1024A00037C0811539E59307A8F4811548E59407ED
:1024B00008F063C0C11586E5D80708F0A6CF8C2FB9
:1024C0000E949113C82FD0E0DC2FCC27CC27DF71DE
:1024D000D0621EC081152AE5920708F453C09056B9
:1024E0008115904208F091CF8D2F8F710E9491132A
:1024F00090E0982F882788279F719C012C2BE90159
:10250000E7CFC55AD0E0CA58DE4FC881D0E0D064CA
:10251000CE01DF91CF9108958370992721E030E0BB
:1025200002C0220F331F8A95E2F7C695C69540E296
:10253000C49FE0011124C22BD32BDD68E9CFDC2F2F
:10254000CC27C16FD06AE4CFCE018370992721E0F8
:1025500030E002C0220F331F8A95E2F7C695C69578
:1025600040E2C49FE0011124C22BD32BDA68D0CF04
:10257000D82FCC27C46FD06ACBCFD82FCC27C06F31
:10258000D06AC6CF8F700E94911334E0D695C7955C
:102590003A95E1F7CF709C2FEC01D069B9CF972F16
:1025A0007430A8F46E3098F470E02EE0929F600DC5
:1025B000711D1124FB0198E3899FE00DF11D112489
:1025C000EE0FFF1FE455FF4F85919491089580E031
:1025D00090E008950E94CF120E94DE110895823883
:1025E0009105B9F1B0F48133910509F47DC048F447
:1025F0008932910509F46DC08A32910509F47BC0D6
:1026000008958533910509F45FC08933910509F177
:102610000895833E9105D9F138F4803E910529F162
:10262000823E910579F10895863E9105D9F1873E64
:10263000910509F43EC0843E910541F520916C035B
:1026400021FF24C080916B0384FD19C087EE90E0C8
:10265000089520916B03237009F05AC020916C03F8
:1026600023FF14C089E290E0089520916B0320FDC0
:1026700038C030916C0330FF09C024FF43C090E0A4
:1026800080E0089520916B0322FDF7CF08952091FB
:102690006B0322FD3AC030916C0330FD39C024FF3A
:1026A000F5CFEDCF20916B0323FFF0CF24FDE7CFD3
:1026B000CDCF20916B0323FD2EC030916C0331FFF1
:1026C000EECF84EE90E0089520916B0325FFDECFDE
:1026D000C9CF20916B0325FD21C020916C0323FFFE
:1026E000D5CF89E390E0D2CF20916B0326FFCECFE8
:1026F0008AE290E0089520916B0326FFC7CF81E323
:1027000090E0089583EE90E0089582EE90E00895C1
:1027100080EE90E0089586EE90E0089585E390E0E5
:10272000089590916B0392FF06C0282F28712830DE
:10273000F9F4877F846093FF06C0282F2871283121
:10274000F1F4877E846120916C0320FF06C0382F4E
:1027500038713830D9F4877F816021FF06C0282F77
:1027600028712831D1F4877E816194FD877E089598
:10277000282F24712430F9F68B7F8860DCCF282F36
:102780002471243101F78B7E8861DDCF382F3171C0
:10279000313019F78E7F8860E0CF282F21712131E9
:1027A00021F78E7E8861E1CF0E945A1008950E9421
:1027B00020158FE39CE90197F1F700C000000E940B
:1027C000201580E00E94141480FF04C00E94D413DE
:1027D0000E940E2008950E94D71308950E94611050
:1027E000811102C00E940A110E946C10809338036C
:1027F0000E94761090936C0380936B030E94EB13FE
:102800000E94711090E00E94390B8091D602909145
:10281000D7020E945A0B089508950E940C1408953F
:1028200008950E9410140895E82FF0E0EE0FFF1FA6
:10283000EB58FC4F808191810895B0E0A0E0E3E285
:10284000F4E10C94E82786EC92E00E949C0585E771
:10285000E82E83E0F82ED0E0C0E091ECC92E92E0A3
:10286000D92E08EB12E0DF93CF93DF92CF920E9434
:1028700035068EEB92E00E949C05F70181919191C3
:102880007F010E9437079F938F931F930F930E949E
:10289000350686EB92E00E949C0521968DB79EB787
:1028A00008960FB6F8949EBF0FBE8DBFC430D105F9
:1028B000D1F6CDB7DEB7E8E00C94042880EA8A951B
:1028C000F1F7089500C008950E945E140895F894E9
:1028D000E82FE295EF70F0E031A1282F2F7081E012
:1028E00090E001C0880F2A95EAF7982F90959323DE
:1028F00091A392A1892B82A378940895CF93DF931B
:1029000081E90E94671480E90E94671484E90E94AB
:10291000671486E60E946714C9E7D1E089918F3F6A
:1029200011F00E94671481E0C738D807B9F7DF912A
:10293000CF910895AF92BF92DF92EF92FF920F93E3
:102940001F93CF93DF938C01D62EC62FD0E0CE01FC
:1029500089579E4F7C01FC0120812F3F09F44DC017
:10296000F894E22FE295EF70F0E031A12F7081E052
:1029700090E001C0880F2A95EAF7932F982B91A336
:1029800092A18095892382A378940E946214E9E73A
:10299000F1E047E851E021E030E0B12CA12C619159
:1029A0006F3FA9F1A62FA295AF70B0E090968C91E1
:1029B00090E06F7002C0959587956A95E2F780FD6B
:1029C00026C0C901A82AB92A220F331F4E175F0754
:1029D00031F7F70180818F3F11F00E94671461E0A9
:1029E000A114B10409F460E08D2D0E946414CC0F91
:1029F000DD1FC00FD11FB982A882DF91CF911F9137
:102A00000F91FF90EF90DF90BF90AF90089590E00E
:102A100080E0D8CF0E947E1488E0E5E7F3E0DF0194
:102A2000982F1D929A95E9F7EDE6F3E0DF011D92EC
:102A30008A95E9F784E00E945B150E948D0608954F
:102A4000A8E0B0E0E6E2F5E10C94EB278E010F5F21
:102A50001F4F88E0F80111928A95E9F7F12C6F2D4C
:102A6000C8010E949A14F394F4E0FF12F8CF48E0F2
:102A700050E0B8018DE693E00E94292821E00097FC
:102A800009F420E0892B41F088E0F801ADE6B3E0DD
:102A900001900D928A95E1F744E065E773E08DE6D9
:102AA00093E00E945C15182F0E949006812F2896B3
:102AB000E5E00C9407280895CF92DF92EF92FF9201
:102AC0001F93CF93DF936C017B01C42F222349F026
:102AD00081E080933B030E94C31F90933A0380934D
:102AE000390310913B0311110AC010E0812FDF91CF
:102AF000CF911F91FF90EF90DF90CF90089580913C
:102B0000390390913A030E94DB1F059770F3D0E0E0
:102B1000CC0FDD1FAE01B601C7010E942928892B09
:102B200041F0AE01B601C7010E94362810923B0366
:102B3000DDCF10E0FBCF0E9491220E9449110E943C
:102B40009E2208950E94A3220E9452110E94C12237
:102B500008950E945C1F0E9477220E942F110E94FC
:102B60009B150E94A2150E943F11FBCF809142034A
:102B700080FF0DC06091070170E0660F771F60381D
:102B8000710570F56115710569F1862F089581FF52
:102B900007C06091070184E0689FB0011124EFCF66
:102BA0006091070182FD0AC0809141038823A9F04A
:102BB0002091060160910701821710F088E0ECCFA8
:102BC000869FC001112433E0880F991F3A95E1F7E1
:102BD000622F70E00E94C427D2CF68E070E0D5CFAA
:102BE0008FE7089581E008958091420380FF0CC033
:102BF0006091030170E0759567957595679561150E
:102C0000710549F1862F089581FF06C06091030187
:102C100070E075956795F3CF6091030182FD0BC05D
:102C2000909140039923A1F06091020180910301EA
:102C3000961738F0682F70E06038710500F38FE761
:102C40000895899FC001112470E00E94C427F4CF29
:102C500061E070E0D7CF81E008958D3E31F40E94AD
:102C6000B61581958093460308958E3E19F40E940F
:102C7000B615F8CF8F3E31F40E94B615819580933A
:102C800045030895803F19F40E94B615F8CF893F97
:102C900029F40E94F4158093470308958A3F21F494
:102CA0000E94F4158195F7CF8B3F31F40E94F41503
:102CB00081958093480308958C3F19F40E94F41580
:102CC000F8CF9FE0980F983070F4815F990B21E066
:102CD00030E001C0220F8A95EAF780914403822BED
:102CE0008093440308958D3F31F4809142038160C5
:102CF0008093420308958E3F21F4809142038260C5
:102D0000F7CF8F3FB9F7809142038460F1CF4091B4
:102D100045038D3E59F48091460387FF0DC0109204
:102D2000460341110BC01092410308C08E3E81F44E
:102D30008091460318169CF3442381F08091470349
:102D400090914803892B09F05AC0109240030895CE
:102D50008F3E49F447FFF0CF109245038091460320
:102D60008111ECCFE0CF803F19F41416ACF3E4CF1F
:102D700090914703893F29F41916F4F610924703FE
:102D8000DBCF8A3F19F497FFD7CFF8CF9091480354
:102D90008B3F29F497FFD0CF10924803CDCF8C3FC3
:102DA00019F41916CCF3C8CF9FE0980F983090F41F
:102DB000815F990B21E030E0B90102C0660F771FF7
:102DC0008A95E2F7CB018095909144038923809303
:102DD0004403B2CF8D3F31F4809142038E7F8093C4
:102DE0004203AACF8E3F21F4809142038D7FF7CF1B
:102DF0008F3F09F0A1CF809142038B7FF0CF0895E0
:102E00008091380383FF7EC084E093E00E949C059C
:102E1000809144031F928F938FEF92E09F938F9343
:102E20000E9435068DEF92E00E949C05809145033B
:102E3000282F082E000C330B3F938F938AEF92E0DC
:102E40009F938F930E94350688EF92E00E949C0525
:102E500080914603282F082E000C330B3F938F934D
:102E600085EF92E09F938F930E94350683EF92E067
:102E70000E949C0580914703282F082E000C330BDD
:102E80003F938F9380EF92E09F938F930E9435063C
:102E90008EEE92E00E949C0580914803282F082E18
:102EA000000C330B3F938F938BEE92E09F938F93A5
:102EB0000E94350688EE92E00E949C0580914103B5
:102EC0001F928F9385EE92E09F938F930E94350619
:102ED00083EE92E00E949C05809142031F928F93A3
:102EE00080EE92E09F938F930E9435068DED92E0E5
:102EF0000E949C058DB79EB74C960FB6F8949EBF66
:102F00000FBE8DBF0E94C31F9C019091450380910D
:102F10004603982B21F030933F0320933E0390917A
:102F2000470380914803982B21F030933D03209371
:102F30003C0383E493E00E94841E089586E0E3E46A
:102F4000F3E0DF011D928A95E9F710924103109298
:102F50004003109242030895FC01828181110EC04A
:102F6000838181110BC08481811108C091E085812A
:102F7000811101C090E0892F8170089581E0FCCF1C
:102F8000A6E0B0E0E6ECF7E10C94ED2786E0E3E4A0
:102F9000F3E0DE01119601900D928A95E1F710920F
:102FA00045031092460310924703109248038B8109
:102FB0009C81892B89F080913E0390913F030E9470
:102FC000DB1FAC01909141039923C9F18091080165
:102FD0008417150608F440C08D819E81892B91F0DD
:102FE00080913C0390913D030E94DB1FAC019091C6
:102FF0004003992309F471C08091040184171506D8
:1030000008F479C0BE016F5F7F4F83E493E00E94B4
:10301000131F811105C083E493E00E94AC17811156
:103020000E94001786E0FE013196A3E4B3E0019010
:103030000D928A95E1F72696E3E00C9409282091F9
:1030400009018AE0289F900111242417350720F6F2
:103050009F5F9093410302C09F3FD1F71B811123D3
:1030600059F00E94B6159FEF11160CF491E0899F5C
:10307000802D1124809345031C81112359F00E9457
:10308000B6159FEF11160CF491E0899F802D112445
:103090008093460330914503332309F49DCF20915B
:1030A0004603222309F498CF45EB3403C0011124D1
:1030B000992359F09093450345EB24039001112483
:1030C000332339F03093460387CF81E08093450363
:1030D000F3CF81E0809346037FCF209105018AE002
:1030E000289F900111242417350708F08BCF9F5F8C
:1030F0009093400302C09F3FD1F71D81112359F0E7
:103100000E94F4159FEF11160CF491E0899F802D19
:103110001124809347031E81112359F00E94F41556
:103120009FEF11160CF491E0899F802D112480935C
:10313000480330914703332309F464CF20914803B7
:10314000222309F45FCF45EB3403C00111249923F6
:1031500059F09093470345EB240390011124332346
:1031600039F0309348034ECF81E080934703F3CF8B
:1031700081E08093480346CFCF93DF93EC01FB01BE
:103180008281882309F464C1C430FDE5DF07E0F5DE
:10319000CB3F9CE5D90730F49E0122503C452431B9
:1031A0003105D8F50E94761090936C0380936B03E1
:1031B000C231ECE5DE0709F41FC108F06EC0C9306A
:1031C0008CE5D80709F4F2C008F03FC0C530ECE543
:1031D000DE0709F4DBC058F5C3308CE5D80709F4E5
:1031E000CDC008F0CFC080916B038160C230DC4558
:1031F00009F4AEC080916B0390916C030E9484101F
:103200000E94E40A80E009C0C63AEDE5DE0751F20B
:1032100038F4C2369DE5D90729F2DF91CF910895A0
:103220009E012E5A3D4523303105B8F7BBCF809122
:103230006B038062C730FCE5DF0709F489C008F43E
:10324000B1C080916B03806483C0CD309CE5D90709
:1032500009F4BAC070F480916B038E7FCB30FCE52B
:10326000DF0709F475C008F4A7C080916B038D7F58
:103270006FC0CF309CE5D90709F4B6C008F4A8C0E8
:10328000C031FCE5DF0709F4B3C0C131DC4509F00A
:10329000B1CF80916B038F7B5BC0C1159DE5D907D2
:1032A00009F4B4C098F5CB3FFCE5DF0709F472C020
:1032B000B8F4C4319CE5D90709F4B6C008F4A2C03B
:1032C000C531DC4509F096CF80916B0382FB9927CD
:1032D00090F921E0922790FB82F990FB83F938C0A6
:1032E000CD3F8CE5D80709F477C008F457C0CE3F2E
:1032F000ECE5DE0709F474C080916C038360CF3F76
:10330000DC4509F077CF80936C0374CFC2368DE52E
:10331000D80709F496C068F4C230EDE5DE0709F479
:103320008CC008F477C0C330DD4509F063CF80E07E
:1033300085C0CE3A9DE5D907E9F068F490916B031A
:10334000892F8E7F90FF8160C63ADD4509F052CF0C
:1033500080936B034FCFCF3A8DE5D80789F1C03BFF
:10336000DD4509F047CF90916C03892F877F93FF4C
:103370008860C9CF80916C038860C5CF80916B0352
:103380008260E6CF80916B038460E2CF80916B0313
:103390008860DECF80916C038160B5CF80916C0333
:1033A0008260B1CF80916B038061D2CF0E94E40A2A
:1033B00080916B038068CCCF80916B038C60C8CF09
:1033C00080916C03877F9FCF80916B038B7FC0CFF1
:1033D00080916B03877FBCCF80916C038E7F93CFEE
:1033E00080916C038D7F8FCF80916B038F7EB0CFE8
:1033F00080916B038F7DACCF0E94E40A80916B03B8
:103400008F77A6CF80916B03837FA2CF80916C03CF
:103410008C7F79CF80916C03982F909591708E7FDF
:10342000892B90FB81F96FCF0E94E40A90916B0386
:10343000892F97FB87F980588BCF81E00E940D116F
:10344000D9CE90916B03892F8F7E94FF806180CFBE
:1034500081E0E3CE809102011F928F93809103015E
:103460001F928F93809106011F928F938091070185
:103470001F928F93809108011F928F938091090171
:103480001F928F9387E293E09F938F930E9435065C
:103490008DB79EB70E960FB6F8949EBF0FBE8DBF28
:1034A0000895883228F58E3108F072C08B3041F1D2
:1034B00030F4873009F4CFC086E894E0E0C083316F
:1034C00009F45FC08431C1F788EA94E00E949C054A
:1034D00080914D03882309F4FEC010924D03109291
:1034E0004C0310924B0310924A031092490320C0E0
:1034F0008F3409F4C7C0D8F5893231F38833E1F647
:103500008BEA94E00E949C050E942A1A1F9281E097
:103510008F931F9288E08F9384EA93E09F938F9319
:103520000E9435060F900F900F900F900F900F9004
:1035300020914D03222309F4C9C080914903909141
:103540004A03009711F48BE891E09F938F931F92A9
:103550002F9384E794E09F938F930E9435060F90FA
:103560000F900F900F900F900F9081E0089581358C
:1035700009F49CC008F49CC0823509F09DCF81E01D
:1035800082C08AE994E00E949C050E942A1AD0CF4A
:103590008D5180934D03833009F442C058F481303B
:1035A000C1F08230A1F110924D0387E994E00E94AE
:1035B0009C051BC0853009F445C0D8F1863099F7C9
:1035C00082E091E090934C0380934B0383ED91E074
:1035D00008C089E091E090934C0380934B038FE8FF
:1035E00091E090934A038093490380914D0388238F
:1035F00009F49ECF1F928F9383E994E09F938F935A
:103600000E9435060F900F900F900F9091CF88E099
:1036100091E090934C0380934B0388E991E0E1CFD4
:1036200087E091E090934C0380934B0384EA91E010
:10363000D8CF86E091E090934C0380934B0381EBCD
:1036400091E0CFCF83E091E090934C0380934B03C4
:1036500080EC91E0C6CF81E08093090184E1809302
:1036600008018AE0809307018EE18093060188E0DB
:103670008093030188E28093020189E894E00E942C
:103680009C0556CF8AE0E0914B03F0914C033097B4
:10369000D1F02081082E000C990B820F911D8F3FD5
:1036A000910541F03CF08FEF808307C08FEFEBCFA7
:1036B00086EFE9CF97FFF8CF108280811F928F931A
:1036C00080E894E09BCF8DE794E0D9CF80E794E049
:1036D0000E949C054ACF80E00895CF93C82F1F9287
:1036E0008F9381EC94E09F938F930E94350681E045
:1036F00090E002C0880F991FCA95E2F70E94390B2B
:103700000E94E40A0F900F900F900F90CF910895B0
:10371000EF92FF920F931F93CF93DF938B3109F4B6
:1037200010C108F0B0C08B3009F4CCC008F082C0E2
:10373000863009F4DAC048F4853009F4B2C086E670
:1037400098E00E949C0580E0E0C0873009F4E2C068
:103750008830A9F70E9471101F928F9389E498E036
:103760009F938F930E9435060E946C1083FB9927CC
:1037700090F91F929F9382FB992790F91F929F9334
:1037800081FB992790F91F929F93982F91701F9218
:103790009F931F928F9380E098E09F938F930E9456
:1037A00035060E94761093FB222720F91F922F9353
:1037B00087FB222720F91F922F9386FB222720F9CF
:1037C0001F922F9385FB222720F91F922F9384FBB2
:1037D000222720F91F922F9383FB222720F91F9283
:1037E0002F9382FB222720F91F922F9391FB2227F0
:1037F00020F91F922F93292F21701F922F9381FB65
:10380000222720F91F922F93282F21701F922F9388
:103810009F938F9381E097E09F938F930E9435064B
:103820008DB79EB78A960FB6F8949EBF0FBE8DBF18
:1038300081E06BC0803109F49CC080F48E3009F0C7
:103840007ECF90913803892F8B7F92FF8460809385
:10385000380382FF8BC081E998E07FC0863109F48C
:1038600098C0893109F06BCF88EE91E09F938F93D8
:1038700081E395E09F938F930E9435060F900F9000
:103880000F900F90D5CF8A3249F190F4873211F121
:1038900028F48E3108F453CF8D511DC0893209F0C0
:1038A0004ECF84ED98E00E949C050E94A206C0CFF6
:1038B000833468F48A3308F091C0853359F0883333
:1038C00009F03DCF8BE595E00E949C05B1CF833494
:1038D00009F035CF80E00E946D1BAACF84EF98E0FD
:1038E0000E949C050E940A11A3CF80913803807F1B
:1038F0008093380384E395E00E949C0580EF98E074
:103900000E949C0581E080934E03CDB7DEB7E6E0D0
:103910000C94062890913803892F8E7F90FF816048
:103920008093380380FF03C088EC98E0CDCF8BEB09
:1039300098E00E949C0580913803817F8093380332
:1039400077CF90913803892F8D7F91FF826080938C
:10395000380381FF08C08EEA98E00E949C058091A0
:1039600038038160EBCF80EA98E0AECF81E898E041
:10397000ABCF90913803892F877F93FF8860809326
:10398000380383FF03C085E798E0E7CF88E698E037
:103990009BCF0E94CF1F162F072FF82EE92ED09114
:1039A0006A03C09116010E94331EEF92FF920F939B
:1039B0001F931F92DF931F92CF931F928F9386ECDA
:1039C00094E09F938F930E9435068DB79EB70C9617
:1039D0000FB6F8949EBF0FBE8DBF2ACF89537BCF01
:1039E00080E008950E94F01C0895CF93C82F809125
:1039F0004E038130C1F0882339F0823009F444C08D
:103A000010924E0380E00DC00E94600F8232D1F709
:103A10008C2F0E94F01C81111BC08C2F0E94881BD0
:103A20008170CF9108950E94600F823289F38C2FAC
:103A30000E94F21C81111BC0C431D9F060F4CB305C
:103A400071F0C031D1F08BEB94E00E949C0513C063
:103A500081E090E0E5CFC93261F0C833A1F784E39B
:103A600095E00E949C058DEB94E00E949C0581E00E
:103A7000D7CF10924E0380E0D3CF82E080934E03E5
:103A800088E30E94511AF3CF8C2F0E94511A81E0D3
:103A9000C8CFCF93DF93EB0186319C4511F50E948F
:103AA000600F9A81992399F08A7A91E009F490E065
:103AB00090934F03811109C089E20E94380F0E9440
:103AC000A10F80E0DF91CF91089585E3F6CF80913B
:103AD0004F03811104C089E20E94400FF0CF85E3BB
:103AE000FBCF81E0EFCF0F931F93CF93DF93C42FD2
:103AF000D22FFC0182818823C9F0409352030E9497
:103B0000C31F909351038093500380E28C0F883041
:103B100040F4C77081E001C0880FCA95EAF70E949F
:103B20008608DF91CF911F910F9108951091520354
:103B3000141332C080915003909151030E94DB1FF7
:103B4000883C910548F5C0E2CD0F1D17B9F080E221
:103B5000810F883040F4177081E001C0880F1A95FA
:103B6000EAF70E948D08C83048F481E09D2F9770D5
:103B700001C0880F9A95EAF70E948608802F0E945C
:103B80007D08C83070F6D77081E001C0880FDA95E3
:103B9000EAF70E948D08C5CF80E28C0F883008F6C6
:103BA000C77081E001C0880FCA95EAF7F2CF0F9382
:103BB0009C01CB01243F4CE5340759F1A8F4293D81
:103BC000FCE53F0701F12A3D4CE53407D1F1283DE2
:103BD0003C4591F406E221EE41EE68ED7CE50E9461
:103BE000731D80E00F910895263FFCE53F07E9F043
:103BF000B0F0273F3C45F9F0FC018281882339F180
:103C000010925203EFCF07E225EE45EE69ED7CE519
:103C1000E6CF06E221EE40EE64EF7CE5E0CF07E27E
:103C200025EE44EE65EF7CE5DACF06E221EE42EECA
:103C300066EF7CE5D4CF07E225EE46EE67EF7CE544
:103C4000CECF08E221E045EE6AED7CE5C8CF81E009
:103C5000C9CF9093B3028093B20208959093580312
:103C6000809357030895E0915703F09158033097DC
:103C700029F00190F081E02D0995089580E00895E4
:103C8000EF92FF920F931F93CF93DF938C01E091FC
:103C90005703F0915803309791F10280F381E02DA2
:103CA00009958091380382FF2AC080FF04C08DE00F
:103CB00099E00E949C05D0E0C0E087E0E82E89E012
:103CC000F82E8091380380FF0EC0F801EC0FFD1F25
:103CD00080811F928F93FF92EF920E9435060F9082
:103CE0000F900F900F902196C830D10551F7809119
:103CF000380380FF04C085E099E00E949C05CDB7A1
:103D0000DEB7E6E00C940628E0915703F0915803E3
:103D1000309739F022E0DC012C930480F581E02D0E
:103D200009950895209155033091560328173907B6
:103D300071F09093560380935503E0915703F091EF
:103D40005803309721F00680F781E02D09950895FA
:103D500020915303309154032817390771F0909341
:103D6000540380935303E0915703F0915803309725
:103D700021F00084F185E02D099508959C012E5FC6
:103D80003F4FAC01485F5F4F80E02417350709F4CF
:103D90000895F90191919F019923B9F38F5FF5CFB0
:103DA000662349F0FC01329608962191261729F0E6
:103DB000E817F907D1F780E0089581E008959C01A4
:103DC000FC0132969FEF80E04191461751F09F3FF2
:103DD00019F4411101C0982F8F5F8630A9F79F3FDA
:103DE00009F40895290F311D97FD3A95F901628371
:103DF0000895FC01329608962191261303C0DF0135
:103E000011971C92E817F907B9F708950E94DF1E71
:103E100008950E94F91E0895029626E0FC01119271
:103E20002A95E9F7089546E050E00E94292821E00C
:103E3000892B09F420E0822F089508950E941D1F08
:103E40000895811106C081E0809359030E941E1FCE
:103E5000089582E0F9CF83E0809359030E941E1FEA
:103E600008950E94211F089581E0809359030E94C4
:103E70001E1F08950E94341F0895089508950E94FA
:103E80003E1F0895089508950E943D1F0895CF9301
:103E90000E94421F0E9420150E94431FC0E08C2FE9
:103EA0000E941414892B31F4CF5FC430C1F780E035
:103EB000CF91089581E0FCCF85B7806885BF85B735
:103EC000806885BF08951F921FB61F9211248F939B
:103ED0009F93AF93BF9380915A03811113C0809138
:103EE0007D0390917E03A0917F03B0918003419662
:103EF000A11DB11D80937D0390937E03A0937F034A
:103F0000B0938003BF91AF919F918F911F901FBE7F
:103F10001F90189580918503843031F10E94150718
:103F200010925A0388E190E020E40FB6F894A89527
:103F3000809360000FBE2093600083B7817F846010
:103F400083BF83B7816083BF7894889583B78E7F62
:103F500083BF0FB6F894A895809160008861809324
:103F60006000109260000FBE08950E94E40A0E9453
:103F70001A07089582E084BD93E095BD9AEF97BD3E
:103F800080936E0008952FB7F89480917D039091EF
:103F90007E03A0917F03B09180032FBF08952FB7B8
:103FA000F89460917D0370917E0380917F039091DE
:103FB00080032FBF08959C014FB7F89480917D0333
:103FC00090917E03A0917F03B09180034FBF821B2D
:103FD000930B089578941F921FB61F9211248F930C
:103FE0009F93AF93BF9380917D0390917E03A091A7
:103FF0007F03B09180030196A11DB11D80937D03C5
:1040000090937E03A0937F03B0938003BF91AF9101
:104010009F918F911F901FBE1F90189581E08093F4
:10402000E00080E28093D8001092C9008FE19EE406
:104030000197F1F700C0000087E090EBDC0180936E
:104040008E0390938F03A0939003B093910388E124
:104050009CE00FB6F894A895809360000FBE9093F3
:104060006000FFCF88E19CE00FB6F894A89580939C
:1040700060000FBE90936000FFCF809169030895A8
:1040800008959C0182E08093E9009FEF8091E80011
:10409000915085FD06C085ED8A95F1F700009111DC
:1040A000F5CF8091E80085FF0CC050E040E066E06D
:1040B00070E0C9010E9432238091E8008E778093DE
:1040C000E8000895CF93DF93EC0181E08093E9004D
:1040D0008FEF9091E800815095FD06C095ED9A957F
:1040E000F1F700008111F5CF8091E80085FF14C041
:1040F00050E040E068E070E0CE010E943223809101
:10410000E8008E778093E80088E0FE01A1E6B3E046
:1041100001900D928A95E1F7DF91CF9108958093F8
:104120005D0370935F0360935E0380918503843029
:1041300001F582E08093E9008FEF9091E8008150D3
:1041400095FD06C095ED9A95F1F700008111F5CF28
:104150008091E80085FF0DC050E040E063E070E032
:104160008DE593E00E9432238091E8008E77809362
:10417000E8000895BC0184E00E948F200895BC01EE
:1041800083E00E948F20089583E399E00E949C05BC
:1041900080918403811109C00E94C2240E941F25BE
:1041A0008091E20084608093E20008958FE299E0BC
:1041B0000E949C051092840308958BE299E00E946E
:1041C0009C050E94341F089587E299E00E949C0597
:1041D0006091810381E0611101C080E00E942B1F8A
:1041E000089583E299E00E949C059091850381E007
:1041F000943009F080E0609181030E94311F08959E
:1042000020915C032F5F822F62E30E94B8279923DD
:1042100019F020935C03089510925C038091600371
:104220008823F1F0809185038430C1F49091E900F6
:104230009F702091EC00822F817020FD80E8892BF7
:1042400093E09093E9009091EB0090FF04C090916F
:10425000EE0097FD08C08F708093E9001092600314
:1042600008951092F1009091E80095FDFACF909199
:10427000E80090FFF0CF9091E8009E779093E800DF
:10428000EACF42E061EC81E00E943E2442E261EC30
:1042900082E00E943E2442E261EC83E00E943E24E0
:1042A0009091850381E0943009F080E06091810372
:1042B0000E94211F089580918703833009F461C013
:1042C00030F48130D1F1823009F49EC008958A30F3
:1042D00009F48AC08B3009F46FC0893009F050C0EE
:1042E00080918603813209F04BC080918A039091BE
:1042F0008B03029708F044C08091E800877F809389
:10430000E8008091E80082FF37C09091F30080912F
:10431000F200029731F48091F100813011F0863083
:1043200021F48091F100809369038091E8008B77FC
:104330008093E8000E94722423C080918603813A12
:10434000F9F48091E800877F8093E80080918A03E8
:1043500090918B03892B61F468E081E693E070E033
:104360000E9481238091E8008B778093E800089574
:1043700060E090E080E0F3CF809185038111C1CFB0
:10438000089580918603813AD9F780918A039091AC
:104390008B03892BA9F78091E800877F8093E80041
:1043A0008091E80080FFFCCF809116018093F1009E
:1043B0008091E8008E77BCCF80918603813201F72F
:1043C00080918A0390918B03892BD1F68091E8002C
:1043D000877F8093E8000E947224809188038093F5
:1043E00016010E94E40A089580918603813241F605
:1043F0008091E800877F8093E8000E94722480917A
:10440000890380936A03089580918603813A09F0B5
:10441000B7CF8091E800877F8093E8008091E80023
:1044200080FFFCCF80916A03C1CF9FB7F8941092B0
:1044300060039FBF90918503943009F048C020919C
:10444000E9002F703091EC00932F917030FD90E8CF
:10445000922B23E02093E9002091EB0020FF34C051
:104460002091EE0027FF30C020915B03222321F032
:104470002091E80025FF28C010925B0326E03091D0
:10448000E80035FF14C08093F1008091E80085FDBD
:1044900027C08091E80080FFFCCF8091E8008E77F4
:1044A0008093E8009F709093E90080E00895309138
:1044B0008503343049F43091EB0035FD05C02150BF
:1044C00041F481E080935B039F709093E9008FEF4C
:1044D0000895EFE9FFE03197F1F700C00000CFCF7A
:1044E0008FB7F89421E0209360038FBFDBCF84B7B0
:1044F000877F84BF0FB6F894A8958091600088618B
:1045000080936000109260000FBE80E890E00FB6CC
:10451000F89480936100909361000FBE0E943A1F4F
:1045200008950E94C2240E941F25E2EEF0E08081DF
:104530008460808378940E949D2708958AE091E0AA
:104540000E942E1E089580918503853051F48FE1DD
:1045500099E00E949C0580918503853019F00E94A6
:10456000B51F08950E948A1F80918303882399F3C1
:104570000E94471F882379F30E941C230E94E40AAB
:10458000EACF08950E94C5220895292F33272330AA
:10459000310521F168F42130310509F443C022309E
:1045A000310509F444C090E080E030E020E026C00E
:1045B0002132310551F122323105A9F763307105FD
:1045C00090F7FB01EE0FFF1FEA55FD4F208131816F
:1045D0006D557D4FFB01808190E010C0992781309F
:1045E000910581F0009729F00297E9F6E7E3F9E0F9
:1045F00002C0EDE5F9E0849190E09F01FA0131837A
:1046000020830895E1E4F9E0F6CF6330710558F6B0
:10461000660F771FFB01E455FD4F2081318189E052
:1046200090E0ECCF82E190E02CEB39E0E7CF8BE536
:1046300090E021E639E0E2CF80E189BD82E189BDE9
:1046400009B400FEFDCF8091D8008F7D8093D80003
:104650008091E00082608093E0008091E00081FD25
:10466000FCCF0895AF92BF92CF92DF92FF920F934B
:104670001F93CF93DF936C01EB018A010E94912479
:10468000F82E811123C00115110539F0F801808140
:104690009181C81BD90BC80ED91EB12CA12C209713
:1046A000A9F08091E80085FD22C08091E8008E7716
:1046B0008093E80001151105A1F0F8018081918136
:1046C000A80EB91EB182A08285E0F82E8F2DDF9151
:1046D000CF911F910F91FF90DF90CF90BF90AF903F
:1046E00008950E9491248823D1F2F82EEFCFF6018D
:1046F00081916F018093F1002197FFEFAF1ABF0AFC
:10470000CECFFC0180918C0390918D038617970783
:10471000A0F06115710529F49091E8009E779093BF
:10472000E80090E06115710551F4911108C0809185
:10473000E80082FF34C080E00895BC01F2CF809190
:1047400085038823C1F18530C1F18091E80083FDA4
:1047500030C08091E80082FDEACF8091E80080FFC0
:10476000E1CF8091F3002091F200382F611571059F
:1047700019F02830310558F091E02830310509F062
:1047800090E02091E8002E772093E800CBCF819134
:104790008093F100615071092F5F3F4FE7CF809107
:1047A0008503882341F0853041F08091E80083FF44
:1047B000BECF81E0089582E0089583E00895FC0172
:1047C00080918C0390918D0386179707A0F0611557
:1047D000710529F48091E8008E778093E80090E0DD
:1047E0006115710551F4911108C08091E80082FFB4
:1047F00035C080E00895BC01F2CF80918503882305
:10480000C9F18530C9F18091E80083FD31C0809104
:10481000E80082FDEACF8091E80080FFE1CF80913F
:10482000F3002091F200382F6115710519F028303E
:10483000310558F091E02830310509F090E0809181
:10484000E8008E778093E800CBCF84918093F100CD
:104850003196615071092F5F3F4FE6CF80918503FC
:10486000882341F0853041F08091E80083FFBDCF7F
:1048700081E0089582E0089583E00895982F9730AD
:1048800028F08F708093E90081E008959093E9000B
:10489000242F762F50E0981731F07091EC00209182
:1048A000ED005091F00021FD02C09F5FE8CF3091F4
:1048B000EB003E7F3093EB003091ED003D7F309375
:1048C000ED003091EB0031603093EB007093EC0021
:1048D0002093ED005093F0002091EE0027FDE5CFEE
:1048E00080E008958091860387FF13C08091E800DF
:1048F00082FF06C08091E8008B778093E80004C0B7
:10490000809185038111F2CF0895809185038823DA
:10491000D9F38091E80080FFF8CF8091E8008E778E
:10492000ECCF2091E4003091E50095E6A9012091BB
:10493000EC00822F817020FF06C08091E80080FF8C
:1049400006C080E008952091E80022FD1AC0809101
:104950008503882389F0853089F08091EB0085FDFF
:104960000FC02091E4003091E50042175307F9F29F
:104970009150E1F684E0089582E0089583E008957F
:1049800081E008950E9431250E943925E0EEF0E093
:10499000808181608083E8EDF0E080818F77808383
:1049A00019BCA7EDB0E08C918E7F8C9380818F7EB7
:1049B00080831092840308950F931F93CF93DF9306
:1049C0000E9431250E943925C8EDD0E088818F777B
:1049D000888388818068888388818F7D888319BCDB
:1049E0001092850310928103109283031092820328
:1049F00000EE10E0F80180818B7F808388818160E8
:104A0000888342E060E080E00E943E24E1EEF0E036
:104A100080818E7F8083E2EEF0E080818160808300
:104A2000808188608083F80180818E7F8083888187
:104A300080618883DF91CF911F910F910895E8EDF8
:104A4000F0E080818F7E8083E7EDF0E080818160FF
:104A5000808384E082BF81E0809384030E94DC2411
:104A60000895E8EDF0E080818E7F80831092E2006F
:104A700008951092DA001092E10008951F920F92AB
:104A80000FB60F9211242F933F934F935F936F9321
:104A90007F938F939F93AF93BF93EF93FF938091F7
:104AA000E10082FF0BC08091E20082FF07C080918D
:104AB000E1008B7F8093E1000E9400218091DA0069
:104AC00080FF19C08091D80080FF15C08091DA0066
:104AD0008E7F8093DA008091D90080FF96C080E1BC
:104AE00089BD82E189BD09B400FEFDCF81E08093DC
:104AF00085030E94C4208091E10080FF19C080914D
:104B0000E20080FF15C08091E2008E7F8093E2007A
:104B10008091E20080618093E2008091D800806201
:104B20008093D80019BC85E0809385030E94E4201F
:104B30008091E10084FF2BC08091E20084FF27C0B8
:104B400080E189BD82E189BD89B5982F917080FF90
:104B5000FBCF8091D8008F7D8093D8008091E100B9
:104B60008F7E8093E1008091E2008F7E8093E2004F
:104B70008091E20081608093E2008091810388232C
:104B800009F449C084E0809385030E94F12080915C
:104B9000E10083FF29C08091E20083FF25C080915E
:104BA000E100877F8093E10082E08093850310928B
:104BB00081038091E1008E7F8093E1008091E2008B
:104BC0008E7F8093E2008091E20080618093E2001A
:104BD00042E060E080E00E943E248091F000886026
:104BE0008093F0000E94DD20FF91EF91BF91AF9183
:104BF0009F918F917F916F915F914F913F912F91F5
:104C00000F900FBE0F901F90189519BC109285033E
:104C10000E94D62070CF8091E30087FD93E09093AF
:104C20008503B3CF1F920F920FB60F9211242F93CB
:104C30003F934F935F936F937F938F939F93AF9324
:104C4000BF93CF93DF93EF93FF93D091E900DF7091
:104C50008091EC00C82FC17080FDC0E81092E9007F
:104C60008091F000877F8093F00078940E94562610
:104C70001092E9008091F00088608093F000CD2BC5
:104C8000CF70C093E900FF91EF91DF91CF91BF9179
:104C9000AF919F918F917F916F915F914F913F91D4
:104CA0002F910F900FBE0F901F901895AAE2B0E0C1
:104CB000ECE5F6E20C94ED2786E893E02091F10014
:104CC000FC012193CF01F3E08E389F07B9F70E94D2
:104CD0005B218091E80083FF1EC180918603909143
:104CE00087039A3008F017C1E92FF0E0E157F74D3C
:104CF0000C94D827803899F0823809F00CC1809143
:104D00008A038F70873008F006C18093E900809194
:104D1000EB0085FB882780F91092E90006C080919E
:104D2000820390918303911182609091E800977FB4
:104D30009093E8008093F1001092F1008091E800D8
:104D40008E77E5C0882309F4D3C0823009F0E3C030
:104D5000809188038111D6C080918A038F702FEFD4
:104D6000280F263008F0D7C08093E9002091EB008F
:104D700020FFC8C0933031F48091EB0080628093B3
:104D8000EB00C0C09091EB0090619093EB0021E0AC
:104D900030E001C0220F8A95EAF72093EA001092D2
:104DA000EA008091EB008860EACF8111B4C01091D5
:104DB00088031F778091E3008078812B8093E30044
:104DC0008091E800877F8093E8000E9472248091A0
:104DD000E80080FFFCCF8091E30080688093E300CF
:104DE00082E0111183E08093850395C08058823062
:104DF00008F091C080918803909189038C3D23E055
:104E00009207A1F583E08A838AE289834FB7F894F9
:104E1000DE01139620E03EE051E2E32FF0E05093F4
:104E20005700E49120FF03C0E295EF703F5FEF7001
:104E30008E2F90E0EA30C0F0C7968D939D932F5F40
:104E4000243159F74FBF8091E800877F8093E800B5
:104E50006AE270E0CE0101960E9481238091E80011
:104E60008B778093E80057C0C096E7CF60918A03A4
:104E700070918B03AE014F5F5F4F0E94C222BC0155
:104E8000892B09F448C09091E800977F9093E8003F
:104E900089819A810E94DF23E1CF8038E1F58091FA
:104EA000E800877F8093E800809181038093F10080
:104EB00045CF811130C090918803923060F5809188
:104EC000E800877F8093E800909381030E9472241A
:104ED00080918103882311F084E005C08091E30074
:104EE00087FDFACF81E0809385030E94412113C0A2
:104EF00080918803813079F481E0933009F080E07B
:104F0000809383031092E9008091E800877F80936B
:104F1000E8000E9472248091E80083FF0AC080911B
:104F2000E800877F8093E8008091EB0080628093A7
:104F3000EB00AA96E3E00C940928CF9380918503B7
:104F40008823A1F0C091E900CF709091EC00892FE7
:104F5000817090FD80E8C82B1092E9008091E800F4
:104F600083FD0E945626CF70C093E900CF9108952B
:104F7000991B79E004C0991F961708F0961B881FAB
:104F80007A95C9F78095089597FB072E16F400943B
:104F900007D077FD09D00E94152807FC05D03EF404
:104FA000909581959F4F0895709561957F4F0895D5
:104FB000EE0FFF1F0590F491E02D09942F923F9280
:104FC0004F925F926F927F928F929F92AF92BF9219
:104FD000CF92DF92EF92FF920F931F93CF93DF93C5
:104FE000CDB7DEB7CA1BDB0B0FB6F894DEBF0FBE22
:104FF000CDBF09942A88398848885F846E847D846F
:105000008C849B84AA84B984C884DF80EE80FD8070
:105010000C811B81AA81B981CE0FD11D0FB6F894E6
:10502000DEBF0FBECDBFED010895AA1BBB1B51E132
:1050300007C0AA1FBB1FA617B70710F0A61BB70B08
:10504000881F991F5A95A9F780959095BC01CD01AD
:105050000895FB01DC0104C08D910190801921F4B9
:1050600041505040C8F7881B990B0895FB01DC01A3
:1050700002C001900D9241505040D8F70895F9991F
:10508000FECF92BD81BDF89A992780B50895A8E119
:10509000B0E042E050E00C947328262FF999FECF3F
:1050A00092BD81BDF89A019700B4021639F01FBA7B
:1050B00020BD0FB6F894FA9AF99A0FBE0895039698
:1050C000272F0E944E280E944D28252F0E944E28EF
:1050D000242F0C944E280196272F0E944E280C94C2
:1050E0004D28DC01CB01FC01F999FECF06C0F2BDD1
:1050F000E1BDF89A319600B40D9241505040B8F796
:105100000895F894FFCFCF08CF08000900098D0952
:10511000A9092F092F09B409250A340A340A7A2665
:10512000A2268B27A2268B27D526F6268B274D274E
:025130005927FD
:105132001C03280850011E0A14013D206220412050
:10514200BF20BA20402001E200E900EA00B500B623
:1051520000B700CD008301CC008A019201940121A5
:1051620002230224022502260227022A02B300B4E5
:10517200006F007000818283E200E900EA00B5005E
:10518200B600B700CD008301CC008A0192019401E0
:105192002102230224022502260227022A02B30048
:1051A200B4006F007000818283F4F5F6F731333278
:1051B2003697C634359293919094663F3F3F006D87
:1051C2006B5F64656C6179006D6B5F696E746572AB
:1051D20076616C006D6B5F6D61785F73706565649D
:1051E200006D6B5F74696D655F746F5F6D617800F0
:1051F2006D6B5F776865656C5F6D61785F73706515
:105202006564006D6B5F776865656C5F74696D6579
:105212005F746F5F6D6178000A092D2056657273A5
:10522200696F6E202D0A5649443A20307834383559
:1052320039284D414E554641435455524552292035
:105242005049443A203078303030322848353029BD
:10525200205645523A203078303030310A42554992
:105262004C443A2020284F637420313720323032A8
:1052720032290A4F5054494F4E533A204C55464119
:10528200204D4F5553454B45592045585452414B9B
:10529200455920434F4E534F4C4520434F4D4D41AE
:1052A2004E4420343039360A4743433A20382E35AB
:1052B2002E30204156522D4C4942433A20322E3153
:1052C2002E30204156525F415243483A2061767255
:1052D200350A00407B226B0AF009CE0973098C095A
:0252E200A5091C
:00000001FF
