:100000000C947A020C94B2020C94B2020C94B202D8
:100010000C94B2020C94B2020C94B2020C94B20290
:100020000C94B2020C94B2020C94521C0C940E1C50
:100030000C944F1D0C94B2020C94B2020C94B202B8
:100040000C94B2020C94B2020C94B2020C94B20260
:100050000C94B2020C942B1D0C94B2020C94B202BC
:100060000C94B2020C94B2020C94B2020C94B20240
:100070000C94B2020C94B2020C94B2020C94B20230
:100080000C94B2020C94B2020C94B2020C94B20220
:100090000C94B2020C94B2020C94B2020C94B20210
:1000A0000C94B2020C94B2020C94B2020501090243
:1000B000A10185020901A1000509190129081500FE
:1000C0002501950875018102050109300931158165
:1000D000257F95027508810609381581257F9501D0
:1000E00075088106050C0A38021581257F95017572
:1000F000088106C0C005010980A101850319012AF4
:10010000B700150126B700950175108100C0050CD8
:100110000901A101850419012AA002150126A002E6
:10012000950175108100C00660FF0961A101096297
:10013000150026FF00952075088102096315002629
:10014000FF00952075089102C005010906A101056F
:100150000719E029E7150025019508750181029529
:1001600001750881010507190029FF150026FF0008
:100170009506750881000508190129059505750181
:100180009102950175039101C0000000000000007C
:10019000000000000000000000000000000000005F
:1001A000000000000000000000000000007E0F00C2
:1001B000D4FFFFFFC700000078000000000000002F
:1001C000002A2B28000000000000000000000000B2
:1001D0000000000029000000002C1E3420212224F1
:1001E000342627252E362D3738271E1F202122237F
:1001F0002425263333362E37381F04050607080911
:100200000A0B0C0D0E0F10111213141516171819D6
:100210001A1B1C1D2F3130232D3504050607080934
:100220000A0B0C0D0E0F10111213141516171819B6
:100230001A1B1C1D2F3130354C2B0014001A0008DE
:1002400000150017001C0018000C00120013002FEE
:100250000030002A00390004001600070009000AD7
:10026000000B000D000E000F003300340028004B7F
:1002700000E1001D001B0006001900050011001020
:1002800000360037003800E50052004E00E000E282
:1002900000E3002C0000002C0000002C00000001F6
:1002A000510251500051004F0035001E001F002028
:1002B0000021002200230024002500260027002D15
:1002C000002E0031000100010001000100010001C9
:1002D0000001000100010001000100010001004ACD
:1002E0000001000100010001000100010001000106
:1002F00000010001000100010001004D00010001AA
:1003000000010001000000010000000100000001E8
:1003100000010001000100010029003A003B003CFF
:10032000003D003E003F00400041004200430044C9
:100330000045004C00010001000100010001000126
:100340000001000100010001000100010001004A5C
:100350000001000100010001000100010001000195
:1003600000010001000100010001004D0001000139
:100370000001000100000001000000010000000376
:100380005101000100010001000100010001000114
:1003900000010001000100AC00AE00AB00A800AA03
:1003A00000A900010001000100010001000100019D
:1003B0000001000100010001000100010001000135
:1003C0000001000100010001000100010001000125
:1003D0000001000100010001000100010001000115
:1003E0000001000100000001000000010000000108
:1003F0000001000100010001000902BF0005010029
:10040000A0FA090400000103010100092111010003
:1004100001224000070581030800010904010002D0
:1004200003000000092111010001222200070582BA
:100430000320000107050303200001090402000155
:1004400003000000092111010001227B000705843F
:1004500003200001080B030201010000090403004E
:100460000001010000092401000109000104090440
:1004700004000201030000072401000141000624DA
:100480000201010006240202020009240301030103
:10049000020100092403020401010100090506020A
:1004A0004000050000052501010109058502400005
:1004B00005000005250101031201000200000008EB
:1004C00059480200010001020001080368003500DC
:1004D000300000001A034D0041004E005500460058
:1004E00041004300540055005200450052000000F6
:1004F0000403090411241FBECFEFDAE0DEBFCDBF35
:1005000004B603FE18C080912B0390912C03A09198
:100510002D03B0912E038730904BA740B04B59F478
:1005200010922B0310922C0310922D0310922E0385
:10053000E0E0F8E3099511E0A0E0B1E0E8E5F7E4D8
:1005400002C005900D92A038B107D9F723E0A0E8CA
:10055000B1E001C01D92AB32B207E1F70E94761DF7
:100560000C9481230C940000A3E0B0E0EAEBF2E0ED
:100570000C9405237C01162FD42EC22E80915F028D
:10058000843071F5E0915402F09155023097C1F139
:10059000C701019763E070E00E94C622CB01880F7B
:1005A000991F860F971F19834A83CB824E2D481BB4
:1005B0009E012F5F3F4FBC018AE392E00995E091D5
:1005C0005802F0915902309739F00C2D2D2D412F02
:1005D000B7018AE392E009952396E8E00C94212381
:1005E00082E0E816F10409F45AC083E0E816F10449
:1005F000A9F081E0E816F10409F484C0F12CE12CA3
:10060000E0915602F09157023097C9F20C2D2D2D32
:10061000412FB7018AE392E00995D1CF862F807FE1
:10062000803A11F188F48038D1F0E0913E02F091E7
:100630003F02803929F7309719F3123F49F12C2DE9
:100640004D2D612F6F7027C0803E99F0803FB1F033
:10065000E0913C02F0913D02803B91F6ECCFE091BD
:100660004002F0914102E7CFE0914202F091430253
:10067000E2CFE0914402F0914502DDCF623F09F004
:10068000BFCFE0914602F0914702309709F4B8CF0E
:100690002C2D4D2D62EF8AE392E0099590CF862FA5
:1006A000807F803DB9F0803FD1F0E0914802F09129
:1006B0004902803C09F0A4CF309709F4A1CF812FE3
:1006C0008D7F4D2D612F6F70813FC9F08AE392E0DD
:1006D000099575CFE0914A02F0914B02EDCFE09180
:1006E0004C02F0914D02633F39F0613F09F088CF31
:1006F000E0914E02F0914F02309709F481CF4D2DD9
:10070000612FE4CFE0915002F0915102683F38F43C
:10071000663F09F075CFE0915202F0915302309795
:1007200009F46ECF612F8AE392E0099548CFE8ED96
:10073000F0E080818E7F80831092E2001092DA00D8
:100740001092E100A0EEB0E08C9181608C938081EA
:100750008F77808319BCA7EDB0E08C918E7F8C934E
:1007600080818F7E80831092230208952091E4007F
:100770003091E50095E6A9012091EC00822F81706F
:1007800020FF06C08091E80080FF06C080E0089549
:100790002091E80022FD1AC080913002882389F060
:1007A000853089F08091EB0085FD0FC02091E40039
:1007B0003091E50042175307F9F29150E1F684E0D9
:1007C000089582E0089583E0089581E00895EF920E
:1007D000FF920F931F93CF937C018B010E94B6036E
:1007E000C82F811117C08091E80085FD0BC0809152
:1007F000E8008E778093E8000E94B603882399F37F
:10080000C82F08C0F70181917F018093F10001504A
:10081000110949F78C2FCF911F910F91FF90EF9005
:100820000895EF92FF920F931F93CF937C018B015A
:100830000E94B603C82F811117C08091E80085FD82
:100840000BC08091E8008B778093E8000E94B6038C
:10085000882399F3C82F08C08091F100F701819394
:100860007F010150110949F78C2FCF911F910F91F2
:10087000FF90EF9008958091320287FF13C080911E
:10088000E80082FF06C08091E8008B778093E80043
:1008900004C0809130028111F2CF0895809130021E
:1008A0008823D9F38091E80080FFF8CF8091E80099
:1008B0008E77ECCF982F9093E900242F762F50E07D
:1008C000891731F07091EC002091ED005091F0000B
:1008D00021FD07C09F5F973071F78093E90081E0A9
:1008E00008953091EB003E7F3093EB003091ED00A6
:1008F0003D7F3093ED003091EB0031603093EB00A1
:100900007093EC002093ED005093F0002091EE00E6
:1009100027FDE0CF80E00895B0E0A0E0E2E9F4E058
:100920000C940523C8EDD0E088818F7E8883E7EDA5
:10093000F0E080818160808384E082BF81E08093E9
:10094000230288818E7F888302EE10E0F8011082F6
:100950001092DA0081EEC82ED12CF6011082888127
:100960008F77888388818068888388818F7D88835A
:1009700019BC109230021092310210922F02109284
:100980002E0290EEE92EF12CF70180818B7F80837F
:1009900088818160888342E060E080E00E945A04A0
:1009A000F60180818E7F8083F80180818160808361
:1009B000808188608083F70180818E7F8083888139
:1009C00080618883CDB7DEB7E8E00C942123FC0179
:1009D000809138029091390286179707A0F061152F
:1009E000710529F49091E8009E779093E80090E0DB
:1009F0006115710551F4911108C08091E80082FFE2
:100A000034C080E00895BC01F2CF80913002882389
:100A1000C1F18530C1F18091E80083FD30C0809143
:100A2000E80082FDEACF8091E80080FFE1CF80916D
:100A3000F3002091F200382F6115710519F028306C
:100A4000310558F091E02830310509F090E020910F
:100A5000E8002E772093E800CBCF81918093F100BE
:100A6000615071092F5F3F4FE7CF8091300288239B
:100A700041F0853041F08091E80083FFBECF81E0F6
:100A8000089582E0089583E00895089580912502F5
:100A9000089508950895982F907F903BE9F040F4D1
:100AA0009039D1F0903AC1F09038B1F080E00895DB
:100AB000903D19F020F4903CC9F782E00895903EF3
:100AC00059F0903F99F7815F8F3080F7E82FF0E081
:100AD000EE59FE4F8081089583E00895A7E0B0E0CD
:100AE000E4E7F5E00C9408238C0108511F4F809136
:100AF0003002843009F06CC0809118018F708093AF
:100B0000E9008091E80082FF63C08091E80085FFE2
:100B10005FC050E040E064E070E0CE0101960E94CA
:100B200011048091E80085FD05C08091E8008B7775
:100B30008093E800FA808F2D0E944B05282FFD82BC
:100B40008B818E838C818F8321110AC089818430AF
:100B500039F1873029F1863029F121E0853039F6E5
:100B600030E0E5E0F0E0EC0FFD1FE30FF11DF08059
:100B70004FB7F894D8011196EC911197F0E0CF019E
:100B8000019612966C9170E00E94DA22D8015C9175
:100B90005817190649F44FBF3F5F321710F3A7CF1C
:100BA00023E0DECF22E0DCCF13968D919C91149749
:100BB000E80FF91FF08211968C91119790E0019641
:100BC00012966C9170E00E94DA22F8018183E3CFE3
:100BD0002796E5E00C942423A4E0B0E0E2EFF5E0F2
:100BE0000C9406237B01142FD22E4A832B830C8373
:100BF000842F0E944B0581113AC082E0E816F1046F
:100C000089F183E0E816F10441F081E0E816F1048F
:100C100029F5173F29F485E004C087E0073F09F074
:100C200084E08983809130028430C1F48091130183
:100C30008F708093E90050E040E064E070E0CE0106
:100C400001960E94E703811109C08091E80085FDAB
:100C500005C08091E8008E778093E8002496E7E055
:100C60000C94222387EFD812DBCF86E0DACF1295DF
:100C70001F701983D7CF9C014FB7F89480911C0245
:100C800090911D02A0911E02B0911F024FBF821BC6
:100C9000930B08952FB7F89480911C0290911D0238
:100CA000A0911E02B0911F022FBF0895209119023A
:100CB00030911A022817390771F090931A02809325
:100CC0001902E0911702F0911802309721F0008488
:100CD000F185E02D099508952091150230911602B5
:100CE0002817390771F09093160280931502E0914E
:100CF0001702F0911802309721F00680F781E02D5D
:100D000009950895E0911702F0911802309729F0A3
:100D10000190F081E02D0995089580E008950E94EA
:100D20004A069C0190910F0280911002982B21F0AD
:100D300030930C0220930B029091110280911202C9
:100D4000982B21F030930A0220930902E0911702B8
:100D5000F0911802309749F082E080930D020480F0
:100D6000F581E02D8DE092E00995089540910F0204
:100D7000803F59F48091100287FF0DC0109210023D
:100D800041110BC01092070208C0813F81F480918D
:100D9000100218169CF3442381F080911102909167
:100DA0001202892B09F05AC0109206020895823F60
:100DB00049F447FFF0CF10920F0280911002811189
:100DC000ECCFE0CF833F19F41416ACF3E4CF90914D
:100DD0001102893F29F41916F4F610921102DBCFA3
:100DE0008A3F19F497FFD7CFF8CF909112028B3F2B
:100DF00029F497FFD0CF10921202CDCF8C3F19F477
:100E00001916CCF3C8CF9CE0980F953090F4845F0E
:100E1000990B21E030E0B90102C0660F771F8A9577
:100E2000E2F7CB01809590910E02892380930E0208
:100E3000B2CF8D3F31F4809108028E7F80930802FB
:100E4000AACF8E3F21F4809108028D7FF7CF8F3F8C
:100E500009F0A1CF809108028B7FF0CF0895809197
:100E6000080280FF0CC06091110170E075956795D4
:100E7000759567956115710549F1862F089581FF74
:100E800006C06091110170E075956795F3CF609190
:100E9000110182FD0BC0909106029923A1F060918F
:100EA000100180911101961738F0682F70E06038BA
:100EB000710500F38FE70895899FC001112470E048
:100EC0000E94DA22F4CF61E070E0D7CF81E008958C
:100ED0008091080280FF0DC060910F0170E0660FE5
:100EE000771F6038710570F56115710569F1862FFE
:100EF000089581FF07C060910F0184E0689FB001F1
:100F00001124EFCF82FF04C060910F0188E0F6CF7B
:100F100080910702882399F020910E0160910F01C2
:100F20008217A0F7869FC001112433E0880F991F14
:100F30003A95E1F7622F70E00E94DA22D2CF68E0A2
:100F400070E0D5CF8FE7089581E00895803F31F4B8
:100F50000E9468078195809310020895813F19F4DB
:100F60000E946807F8CF823F31F40E94680781959C
:100F700080930F020895833F19F40E946807F8CF09
:100F8000893F29F40E942F078093110208958A3F18
:100F900021F40E942F078195F7CF8B3F31F40E94F7
:100FA0002F0781958093120208958C3F19F40E94B7
:100FB0002F07F8CF9CE0980F953070F4845F990B61
:100FC00021E030E001C0220F8A95EAF780910E02FD
:100FD000822B80930E0208958D3F31F48091080298
:100FE00081608093080208958E3F21F48091080269
:100FF0008260F7CF8F3FB9F7809108028460F1CF0C
:1010000080E00895F894E82FE295EF70F0E031A1C8
:10101000282F2F7081E090E001C0880F2A95EAF711
:10102000982F9095932391A392A1892B82A37894D2
:1010300008959091F30192FF06C0282F287128305F
:10104000F9F4877F846093FF06C0282F2871283128
:10105000F1F4877E84612091F40120FF06C0382FCF
:1010600038713830D9F4877F816021FF06C0282F7E
:1010700028712831D1F4877E816194FD877E08959F
:10108000282F24712430F9F68B7F8860DCCF282F3D
:101090002471243101F78B7E8861DDCF382F3171C7
:1010A000313019F78E7F8860E0CF282F21712131F0
:1010B00021F78E7E8861E1CFCF93DF93EC018238F8
:1010C0009105A9F1D8F58133910509F496C048F549
:1010D0008932910509F48AC08A9709F495C0C1152F
:1010E00021E5D20708F0BCC0C11530E5D30708F0F0
:1010F00014C1C83ED10508F09CC0C13ED10560F5C1
:10110000C83AD10508F087C0C53AD10508F0FDC03E
:10111000C130D10509F12097F9F0C430D105E0F4D0
:1011200040C08533910509F45AC0C997C1F6809132
:10113000F301837089F0C0EED0E00EC0833E9105CC
:1011400099F170F4803E910501F1823E910539F6E6
:101150008091F30182FD21C0CE01DF91CF910895EE
:10116000863E910561F1873E910571F1843E9105BE
:1011700009F0B5CF8091F40181FFEECF8091F301AA
:10118000C7EED0E084FD0DC0E7CF8091F30180FD74
:1011900012C19091F40190FFDFCFC3EED0E084FF45
:1011A000DBCFD0E0C0E0D8CF8091F30182FD06C153
:1011B0009091F40190FDBFCF84FFCECFF2CF80910C
:1011C000F30183FDDDCFC8CF8091F30183FDF9C02A
:1011D0009091F40191FFF0CFC4EED0E0BDCF8091AB
:1011E000F30185FFB9CFC9E2D0E0B6CF8091F3011A
:1011F00085FFB2CFC5E3D0E0AFCF8091F30186FF8A
:10120000ABCFCAE2D0E0A8CF8091F30186FFA4CF94
:10121000C1E3D0E0A1CFCF3BD10518F6C85AD0E04A
:10122000CC0FDD1FCE5DDE4F0990D881C02DD46478
:1012300093CFC11540E2D40758F4C11581E0D80717
:1012400008F08ACFC03FD10508F4ABCFD06584CF7A
:10125000C11590E4D90708F4A4CFDF70D06A7CCF21
:10126000C11525E5D20700F5C11534E5D30708F00F
:101270008AC0C11543E5D40708F071C0C11582E5E5
:10128000D80708F467C0CE018370992721E030E0C9
:1012900002C0220F331F8A95E2F7C695C69580E2F9
:1012A000C89FE001112452C0C11599E5D907A8F4DF
:1012B000C11528E5D20708F06BC0C11536E5D30784
:1012C00008F06FCF8C2F0E941908C82FD0E0DC2FB8
:1012D000CC27CC27DF71D0623FCFC1154AE5D407B8
:1012E00008F45BC0CE0190568115904208F059CFAA
:1012F0008D2F8F710E94190890E0982F88278827DA
:101300009F719C012C2BE901E6CFC55AD0E0C15E4C
:10131000DE4FC881D0E0D0641FCFCE01E4E09695C7
:101320008795EA95E1F783702C2F269526952370F3
:1013300040E2249F90011124382B8C2F8370C1E050
:10134000D0E002C0CC0FDD1F8A95E2F7C22BD32B71
:10135000DC6802CFDC2FCC27C16FD06AFDCECE0176
:101360008370992721E030E002C0220F331F8A9555
:10137000E2F7C695C69590E2C99FE0011124C22B01
:10138000D32BDA68E9CEDC2FCC27C46FD06AE4CE49
:10139000DC2FCC27C06FD06ADFCE8C2F8F700E94DD
:1013A000190834E0D695C7953A95E1F7CF709C2F90
:1013B000EC01D069D1CEC9E3D0E0CECEC2EED0E010
:1013C000CBCEC6EED0E0C8CE8091E601811110925E
:1013D000E601089580959091E50198239093E501A9
:1013E0000895E4E8F1E09191891303C0DF011197BA
:1013F0001C9291E0EA38F907B1F70895A4E8B1E04A
:10140000EFEF90E02D91821751F0EF3F19F4211189
:1014100001C0E92F9F5F9630A9F7EF3F09F40895C7
:101420000E2E000CFF0BEE57FE4F82830895809125
:10143000DA019091A901981301C008958F5F877018
:10144000FACF292F943078F58E3068F590E03EE0A1
:10145000239F800D911D1124682F677023E09695BE
:1014600087952A95E1F7FC01EE0FFF1FE80FF91FA2
:10147000E257FE4F50E040E080E0219130E0062E40
:1014800002C0369527950A94E2F721703327042E7F
:1014900001C0220F0A94EAF7822B4F5F5F4F43305F
:1014A000510559F7089580E00895292F943098F553
:1014B0008E3088F590E03EE0239F800D911D112431
:1014C000282F277041E001C0440F2A95EAF723E056
:1014D000969587952A95E1F7FC01EE0FFF1FE80F1F
:1014E000F91FE257FE4F30E020E070E05191DF013C
:1014F0001197CB01022E02C0969587950A94E2F7C8
:10150000817081958527842385278C932F5F3F4F9A
:101510002330310559F7089581FF02C05D9A08957F
:101520005D980895809320027093220260932102B7
:10153000809130028430F9F48093E9008FEF90912C
:10154000E800815095FD06C095ED9A95F1F70000F1
:101550008111F5CF8091E80085FF0DC050E040E09B
:1015600063E070E080E292E00E94E7038091E8008F
:101570008E778093E8000895BC0184E00E94920A6F
:101580000895BC0183E00E94920A08959C0184E0C2
:101590008093E9009FEF8091E800915085FD06C09F
:1015A00085ED8A95F1F700009111F5CF8091E80063
:1015B00085FF0CC050E040E066E070E0C9010E9489
:1015C000E7038091E8008E778093E8000895CF9339
:1015D000DF93EC0181E08093E9008FEF9091E800C8
:1015E000815095FD06C095ED9A95F1F700008111A7
:1015F000F5CF8091E80085FF14C050E040E068E03E
:1016000070E0CE010E94E7038091E8008E7780931E
:10161000E80088E0FE01A6E2B2E001900D928A9512
:10162000E1F7DF91CF91089581E08093E00080E2BF
:101630008093D8001092C9008FE19EE40197F1F7E2
:1016400000C0000087E090EBDC0180932B039093B7
:101650002C03A0932D03B0932E0388E19CE00FB6DA
:10166000F894A895809360000FBE90936000FFCF20
:10167000CF93DF93C7EED1E060E0CE010E944D230F
:101680002196C11584E0D807B9F7DF91CF9108956D
:101690001F93CF93DF93122F8430E0F46430D0F4A3
:1016A0004E30C0F4C42FD0E0CC0FDD1F9CE1699F09
:1016B000C00DD11D112490E7899FC00DD11D1124AB
:1016C000632FCE0187960E944D23612FCE0188960D
:1016D0000E944D23DF91CF911F910895AF92BF9249
:1016E000CF92DF92EF92FF921F93CF93DF9389E324
:1016F000C82E82E0D82ED0E07601C0E014C0F501FB
:1017000025913491412F6C2F8D2F0E94480B82E040
:10171000A80EB11C1F5F1E3091F78CE1E80EF11C82
:10172000CF5FC43019F0570110E0E9CFDF5F80E7E9
:10173000C80ED11CD43001F7DF91CF911F91FF90DB
:10174000EF90DF90CF90BF90AF900895CF93DF934D
:10175000D82FCFEF8111C1E26C2F83E290E00E947D
:101760004D236FEFD11162E184E290E00E944D239E
:101770006C2F85E290E00E944D23DF91CF91089578
:1017800080E00E94A60B60E086E290E00E944D237C
:101790000E946E0B0E94380B81E00E94A60B0895F8
:1017A0000F931F93CF93DF93843030F5643020F58F
:1017B0004E3010F5C42FD0E0CC0FDD1F2CE1629F1E
:1017C000C00DD11D112430E7839FC00DD11D112400
:1017D000CE0187960E943F23082F10E0102F00278C
:1017E000CE0188960E943F239801282BC901DF91E2
:1017F000CF911F910F91089590E080E0F8CF462F90
:10180000843040F4743030F46E3020F4672F0E943E
:10181000D00B089590E080E00895CF92DF92FF9280
:101820000F931F93CF93DF936C0100912A03809154
:10183000E701082BC7E0D0E010E0FC2EC8010C2E19
:1018400002C0959587950A94E2F780FD0CC0219718
:10185000A0F7F12C8F2DDF91CF911F910F91FF9069
:10186000DF90CF900895B6018C2F0E94FF0B0E944D
:101870005C08019761F3EECFCF93DF93EC010E94F8
:101880000D0CBE010E94FF0B0E945C08DF91CF91FE
:101890000895FC01808191810E943C0C92959F707B
:1018A000963091F058F4925F9F70923058F4803FD8
:1018B00019F030F4883E30F481E008959A5FF4CF57
:1018C000843FD1F380E00895883EB0F3813FD1F7A3
:1018D000F3CF83E290E00E943F23813289F484E2D7
:1018E00090E00E943F23823159F485E290E00E940B
:1018F0003F2391E0813209F090E0892F81700895B3
:1019000080E0FCCFCF9384E090E00E943F23C82F7B
:1019100082E290E00E943F23982F8C2FCF91089570
:10192000A8E0B0E0E6E9FCE00C94FD228E010F5F38
:101930001F4F88E0F80111928A95E9F790E5E92EAA
:1019400091E0F92E680124E5422E21E0522E662412
:101950006394712C42E6842E41E0942EF70181912C
:101960007F018F3F09F445C0F894E82FE295EF70AE
:10197000F0E021A18F70A30102C0440F551F8A958A
:10198000E2F7CA01922F982B91A392A18095892307
:1019900082A3789400C0E4E5F1E021E030E0B12CCE
:1019A000A12C41914F3F09F476C0A42FA295AF70AE
:1019B000B0E090968C9190E04F7002C0959587951D
:1019C0004A95E2F780FD67C0C901A82AB92A220F0B
:1019D000331F8E169F0629F7F701319780818F3FBD
:1019E00011F00E94020850EA5A95F1F7F601B1820F
:1019F000A082F2E0CF0ED11C4E145F0409F0AECFEE
:101A000048E050E0B8018BEE91E00E943223FF24C1
:101A1000F394009709F4F12C892B09F43FC088E076
:101A2000F801ABEEB1E001900D928A95E1F781E00B
:101A30008093EA010E944A069093E9018093E801AD
:101A40008091E8019091E9010E943B06059750F1D1
:101A50008091EB019091EC019093FF018093FE0146
:101A60008091ED019091EE0190930102809300022C
:101A70008091EF019091F001909303028093020214
:101A80008091F1019091F2019093050280930402FC
:101A90001092EA0107C090E080E097CF8091EA01C0
:101AA0008111CECF8F2D2896E0E10C9419238091DF
:101AB000E5019091E401892B809382019091E601E8
:101AC000992391F0892B8093820120E084E891E0B2
:101AD000FC013191CF0131112F5FF1E08A389F076E
:101AE000B9F721110E94E40948E050E06CED71E083
:101AF00082E891E00E943223892BA9F088E0E2E895
:101B0000F1E0ACEDB1E001900D928A95E1F7E09142
:101B10001702F0911802309731F00280F381E02D26
:101B200082E891E00995089590E080E00E946C06BB
:101B300090E080E00E9456061092E4010E94570D4A
:101B400086E0EDE0F2E0DF011D928A95E9F7109260
:101B5000070210920602109208020E948F06089552
:101B600080932A030E94940D089580912A03982F50
:101B70009670963021F488600E94B00D0895877F9A
:101B8000FBCF21E030E001C0220F8A95EAF72095D3
:101B900080912A0382230E94B00D08959091DB0169
:101BA000809589238093DB01282F277091F4282FBB
:101BB000082E000C330B9217130659F09091F40184
:101BC00092FF07C08595859585950E94C10D10925D
:101BD000DB010895CF93C091F401C2FB992790F9DE
:101BE000981791F080FBC2F9C093F4016091F30162
:101BF00084E090E00E944D236C2F82E290E00E94EE
:101C00004D2382E00E94CE0DCF91089521E030E077
:101C100001C0220F8A95EAF780912A03822B0E9445
:101C2000B00D08958093E7010E94940D08958823D4
:101C300021F00E94EA090E94570D0895882339F087
:101C40009091E501982B9093E5010E94570D08951E
:101C5000882309F455C0823879F40E94820681FFF6
:101C60004FC089E30E94FE090E94570D89E30E943C
:101C7000F1090E94570D0895833859F40E94820695
:101C800080FF3EC083E50E94FE090E94570D83E558
:101C9000EECF843859F40E94820682FF31C087E477
:101CA0000E94FE090E94570D87E4E1CF9CEF980F38
:101CB000913AE8F290E2980F983050F4877091E0F2
:101CC00001C0990F8A95EAF7892F0E94EA09D1CFBE
:101CD0009BE5980F933028F490E080E00E946C061A
:101CE000089598E5980F973128F490E080E00E94DD
:101CF00056060895803F20F00E94B6060E948F0687
:101D000008951092E501E4E8F1E086E0DF011D921C
:101D10008A95E9F70E94940D0895AAE2B0E0E3E9FC
:101D2000FEE00C940A2382E392E02091F100DC01B2
:101D30002D93CD01B2E08A339B07B9F7809133022E
:101D4000833009F472C0B8F4813009F449C082309C
:101D500009F4B3C08091E80083FF96C280913202FB
:101D6000909133029A3008F08FC2E92FF0E0ED57DE
:101D7000FC4D0C94EE228A3009F48EC08B3009F4AD
:101D800071C0893039F780913202813219F7809120
:101D9000360290913702009711F00297D9F68091A0
:101DA000E800877F8093E8008091E80082FF38C0D8
:101DB0009091F3008091F200029731F48091F1004C
:101DC000813011F0863021F48091F100809325025A
:101DD0008091E8008B778093E8000E943B04BACFA3
:101DE00080913202813A09F0B5CF8091E800877F77
:101DF0008093E8008091360290913702892B61F43C
:101E000068E086E292E070E00E94E7048091E800DA
:101E10008B778093E8009ECF60E090E080E0F3CF86
:101E2000809130028111C0CF95CF80913202813AEA
:101E300009F090CF8091360290913702892B09F0FA
:101E400089CF8091E800877F8093E8008091E80047
:101E500080FFFCCF80911E018093F1008091E8000B
:101E60008E77B9CF80913202813209F073CF8091A1
:101E7000360290913702892B09F06CCF8091E800EF
:101E8000877F8093E8000E943B0480913402809316
:101E90001E010E94810E5ECF80913202813209F0D4
:101EA00059CF8091E800877F8093E8000E943B042F
:101EB00080913502809324024DCF80913202813A85
:101EC00009F048CF8091E800877F8093E8008091F7
:101ED000E80080FFFCCF80912402BECF803899F0CB
:101EE000823809F0D1C1809136028F70873008F0B6
:101EF000CBC18093E9008091EB0085FB882780F9B6
:101F00001092E90006C080912E0290912F0291114B
:101F100082609091E800977F9093E8008093F100B1
:101F20001092F1008091E8008E77AAC1882309F40D
:101F300098C1823009F0A8C18091340281119BC1FF
:101F4000809136028F702FEF280F263008F09CC149
:101F50008093E9002091EB0020FF8DC1933031F494
:101F60008091EB0080628093EB0085C19091EB0043
:101F700090619093EB0021E030E001C0220F8A9540
:101F8000EAF72093EA001092EA008091EB00886063
:101F9000EACF811179C1109134021F778091E3005B
:101FA0008078812B8093E3008091E800877F809385
:101FB000E8000E943B048091E80080FFFCCF809104
:101FC000E30080688093E30082E0111183E0809356
:101FD00030025AC18058823008F056C12091340234
:101FE000309135022C3DE3E03E07A1F583E08A8382
:101FF0008AE289834FB7F894DE01139620E03EE031
:1020000051E2E32FF0E050935700E49120FF03C02A
:10201000E295EF703F5FEF708E2F90E0EA30C0F0F6
:10202000C7968D939D932F5F243159F74FBF8091B1
:10203000E800877F8093E8006AE270E0CE010196B5
:102040000E94E7048091E8008B778093E8001CC130
:10205000C096E7CF8091360290913702432F5527E3
:102060004330510509F44AC078F54130510509F46F
:102070007AC08FEB90E0E9EFF3E04230510509F0D0
:1020800003C12091E800277F2093E80020913802C7
:10209000309139028217930708F49C0140E0211522
:1020A000310509F065C0411163C08091E80082FDEF
:1020B000C9CF80913002882329F2853019F28091AE
:1020C000E80083FFF2CFBECF4132510509F43CC096
:1020D0004232510509F0D8C08330910508F0D4C0D0
:1020E000FC01EE0FFF1FEC58FE4F0190F081E02D38
:1020F0008F589E4FDC018C9190E01AC0332721301D
:102100003105D1F02115310561F02230310509F09A
:10211000BBC0EAECF4E0E4918E2F90E0EAECF4E04E
:1021200007C0E0EFF4E0E4918E2F90E0E0EFF4E000
:10213000009709F4A9C0A5CFE4EDF4E0E4918E2F57
:1021400090E0E4EDF4E0F4CF8330910508F09CC01A
:10215000880F991FFC01E658FE4F0190F081E02D99
:1021600089E090E08ECF82E190E0E8EBF4E089CF67
:1021700080913002882309F465CF853009F462CF5D
:102180008091E80083FD5ECF8091E80082FD8DCFD5
:102190008091E80080FF83CF9091F3008091F2005E
:1021A0002115310519F08830910550F041E008976C
:1021B00009F040E08091E8008E778093E8006FCFCF
:1021C00044914093F1003196215031090196E8CFB6
:1021D000803809F059C08091E800877F8093E8003B
:1021E000809131028093F1009DCE81114DC01091FC
:1021F0003402123008F048C08091E800877F809355
:10220000E800109331020E943B04112311F084E096
:1022100005C08091E30087FDFACF81E08093300212
:1022200042E061EC81E00E945A0442E261EC84E009
:102230000E945A0442E261EC82E00E945A0442E2A7
:1022400060EC83E00E945A0442E361E885E00E946A
:102250005A0442E361E886E00E945A048091300209
:1022600013C080913402813079F481E0933009F019
:1022700080E080932F021092E9008091E800877F30
:102280008093E8000E943B048091E80083FF0AC02D
:102290008091E800877F8093E8008091EB00806266
:1022A0008093EB00AA96E3E00C9426230E94810E13
:1022B0002FEF84E39CE0215080409040E1F700C084
:1022C000000088E19CE00FB6F894A8958093600028
:1022D0000FBE90936000FFCF68EE7EEF90E080E04D
:1022E0000E946B2360E082E090E00E944D2360E05A
:1022F00083E090E00E944D231092E70160E084E0CB
:1023000090E00E944D2364E082E290E00E944D2321
:1023100060E085E090E00E944D2360E086E090E080
:102320000E944D236FEF87E090E00E944D2340E034
:1023300050E0BA0188E090E00E945F2360E08DE009
:1023400090E00E944D2340E050E0BA0188E190E027
:102350000E945F2360E087E190E00E944D2340E00F
:1023600050E0BA018CE190E00E945F2370E060E0F1
:1023700080E290E00E946B2340E050E0BA0188E1E7
:1023800090E00E945F2380E00E94A60B0E94C00B99
:1023900040E050E0BA018FE090E00E945F2340E00F
:1023A00050E0BA0183E190E00E945F2308958B31F1
:1023B00009F46FC040F58B3071F078F4863009F481
:1023C00051C020F4853059F180E00895873009F438
:1023D00052C08830C9F781E00895803109F467C0A0
:1023E00068F48E3089F790911402892F8B7F92FFC9
:1023F00084608093140282FD56C0EDCF863159F37C
:10240000893149F3E1CF8A3251F1B0F4873209F1D1
:1024100020F48E31C8F28D5156C08932A9F60E943F
:10242000810E2FEF84E39CE0215080409040E1F743
:1024300000C000000E94140B833440F48A3308F07B
:1024400041C0853331F0883331F2BECF833409F097
:10245000BBCF81E00E94120E0E94810EBCCF0E9471
:102460006C11B9CF80911402807F8093140281E0B7
:1024700080931302089590911402892F8E7F90FF0C
:1024800081608093140280FDA6CF817F8093140227
:10249000A2CF90911402892F8D7F91FF826080934B
:1024A000140281FF98CF809114028160EFCF909148
:1024B0001402892F877F93FF88608093140283FD25
:1024C000F2CF89CF895391E001C0990F8A95EAF73D
:1024D000892FC0CFCF93C82F8823C9F08238C9F481
:1024E0000E94820681FD13C089E30E94FE090E94BA
:1024F000570D2FEF81EE94E0215080409040E1F79E
:1025000000C0000089E30E94F1090E94570DCF919D
:1025100008958338A1F40E94820680FDF8CF83E5F8
:102520000E94FE090E94570D2FEF81EE94E021508A
:1025300080409040E1F700C0000083E5E4CF84389C
:10254000A1F40E94820682FDE2CF87E40E94FE0988
:102550000E94570D2FEF81EE94E021508040904073
:10256000E1F700C0000087E4CECF8CEF8C0F813AFA
:1025700008F0BFC0809113028130F1F0882391F000
:102580008230A9F110921302E4E8F1E08191C817BA
:1025900009F4E3C021E0EA38F207C1F78C2F0E946A
:1025A000FE09B3CF8091E501823271F78C2F0E9432
:1025B000D7118111ACCFE8CF8091E5018232B1F320
:1025C000C43171F038F4CB3049F0C03161F080E0B3
:1025D0008170EFCFC93221F0C833C9F781E0F8CF5D
:1025E00010921302F4CF82E080931302F7CFC93226
:1025F00009F453C080F5C43109F44FC0B0F4C730BA
:1026000009F085CF81E080930C0184E180930D0176
:102610008AE080930F018EE180930E0188E0809321
:10262000110188E28093100172CF82EE8C0F8A3004
:1026300008F06DCFCD51C0938D01C33009F448C06F
:10264000C0F5C13009F441C08DE091E0C230C1F164
:1026500010928D015CCFC03509F443C0C0F48AE00C
:10266000CF3409F054CFE0918B01F0918C01309779
:1026700009F44DCF2081082E000C990B820F911D7B
:102680008F3F910591F18CF18FEF808340CFC13561
:1026900051F181E0C23539F33ACF80918D01882321
:1026A00009F435CF10928D0110928C0110928B019C
:1026B0002ECFC53099F078F080E191E0C63041F638
:1026C00090938C0180938B0122CF8CE091E0F8CF26
:1026D0008FE091E0F5CF8EE091E0F2CF81E191E0E3
:1026E000EFCF86EFC0CF8FEFBECF97FFCECF108258
:1026F0000ECF80E28C0F883068F4C77021E030E0A4
:1027000001C0220FCA95EAF78091E501822B8093E0
:10271000E501FBCEEBE5EC0FE33040F4F0E0E15EE9
:10272000FE4F808190E00E946C06F1CEE8E5EC0F50
:10273000E73150F4F0E0EE0FFF1FEE5DFE4F8081B9
:1027400091810E945606E3CEC03F08F4E0CE8C2F64
:102750000E94A6070E948F06DACE8C2F0E94F109F4
:102760000E94570D1BCF1F93CF93DF93182FD0E0FC
:10277000C0E0893311F4C0E5D0E0812F0E946A12D5
:10278000209739F4812F0E94280EDF91CF911F915D
:1027900008958FE99FE00197F1F700C000002197AD
:1027A000EFCF0F931F93CF93DF93C62FD42F022F1A
:1027B000FC0182818823A9F0609329030E944A06C4
:1027C0009093280380932703C77081E001C0880F8E
:1027D000CA95EAF70E941E0EDF91CF911F910F91CB
:1027E000089580912903681332C080912703909146
:1027F00028030E943B06883C910548F510E21D0F16
:10280000CD17B9F080E28C0F883040F4C77081E0BA
:1028100001C0880FCA95EAF70E94170E183048F4D5
:1028200081E09D2F977001C0880F9A95EAF70E946A
:102830001E0E802F0E94B313183070F6D77081E0FF
:1028400001C0880FDA95EAF70E94170EC5CFC7704E
:1028500081E001C0880FCA95EAF7F6CFA5E0B0E0A5
:10286000E4E3F4E10C94FC228C01FC01838194816B
:10287000892B31F08081918189238F3F09F050C5E8
:102880002596E1E10C9418230E940D0CF82E682F78
:1028900089819A810E94550A69817A818F2D0E94CF
:1028A000FF0B7C01F8018281882309F42CC5970174
:1028B00022513F452031310508F0F8C48FEF93E0F5
:1028C0000E943F23811128C0FEEEEF0E57EE852EA9
:1028D00099249394E11032C01C821B8244244394B7
:1028E0004AE0342E74018FEFE81AF80AC4010E94FE
:1028F0003F2389831A82882379F09FEF980F9330C2
:1029000058F58A83498292E0890E911CC7010E9482
:102910003F238B83811121C08091DB01877009F4F3
:10292000AFCFF8018281882309F4AACF8091F40106
:1029300082FFA6CF82E00E94CE0DA2CF811424E0B8
:10294000920651F3C4010E943F23811101C0EA9411
:102950003FEF831A930ABECF4701FE0131967F01F4
:10296000F7012081222309F4BDCF213009F047C0AF
:1029700091818281913031F4F2E0EF0EF11C0E94DE
:10298000B31307C0923049F422E0E20EF11C0E941A
:102990006A123FEFE31AF30AE3CF933031F432E0E7
:1029A000E30EF11C0E94280EF4CF943021F08FEF3B
:1029B000E81AF80AEECF92E0E90EF11C30E020E0D0
:1029C000B7016F5F7F4FF70141818053990B8A30C8
:1029D000910550F021503109E0F28FE99FE0019715
:1029E000F1F700C00000F6CF329EF001339EF00DEB
:1029F00011249C012E0F3F1F842F7B01E1CFE22F7A
:102A0000F0E0E754FE4F5490822F86958695869588
:102A100090E0FC01E755FE4F64902770712C022E68
:102A200002C0759467940A94E2F7E1E06E2277247D
:102A3000FC01E756FE4FA490B12C022E02C0B594C3
:102A4000A7940A94E2F7F1E0AF22BB24FC01E75718
:102A5000FE4FC490D12C02C0D594C7942A95E2F7BA
:102A600021E0C222DD246114710419F081EE0E947C
:102A70006A12A114B10419F086EE0E946A12852D23
:102A80000E94B313A114B10419F086EE0E94280E1F
:102A90006114710419F081EE0E94280EC114D10452
:102AA00009F477CF8CE26BCF81E00E94060E0E9482
:102AB000B50D32CF81E00E94C10DF9CF82E0F5CF94
:102AC00095EFE9169CE5F90609F46CC008F466C0B8
:102AD00027E245EE66EEF6EFEF16FCE5FF0609F499
:102AE0000EC4882309F42DC41092290323E0E216B2
:102AF0002DE5F20608F05DC03AEFE3163CE5F3067B
:102B000030F4C70182509C45449708F05EC00E9493
:102B1000820C9093F4018093F301E1E1EE16ECE571
:102B2000FE0609F436C108F0A4C029E0E2162CE53F
:102B3000F20609F41CC108F06DC085E0E8168CE5CA
:102B4000F80609F408C108F056C0E3E0EE16ECE51B
:102B5000FE0609F4F6C008F0FAC08091F301816026
:102B600022E0E2162CE5F20609F4EEC06091F301D2
:102B7000F090F40184E090E00E944D236F2D82E2FA
:102B800090E00E944D230E94810EC6CE27E245EEC2
:102B900065EEB5C326E241EE60EEB1C327E245EE35
:102BA00064EEADC326E241EE62EEA9C328E241E045
:102BB000EFCF81E6E8168DE5F80609F4A8CF95EA8F
:102BC000E9169DE5F90609F4A2CF36E1E3163CE5E6
:102BD000F30609F0C4C38091E5018A7A91E009F413
:102BE00090E090938A01811102C189E20E94FE095E
:102BF0000E94570D91CE8091F301806237E0E31679
:102C00003CE5F30609F4A0C008F4ADC08091F301DF
:102C100080649AC08091F3018B7F9DE0E9169CE56A
:102C2000F90609F491C0B0F48091F3018E7FFBE0C6
:102C3000EF16FCE5FF0609F487C08091F3018C6074
:102C40002CE0E2162CE5F20608F47EC08091F30138
:102C50008D7F7AC08091F3018F7E3FE0E3163CE5E3
:102C6000F30609F471C008F488C08091F3018F7DE8
:102C70006BC09DEFE9169CE5F90609F486C078F56E
:102C8000F5E1EF16FCE5FF0609F491C0A0F4809190
:102C9000F301837F33E1E3163CE5F30609F454C006
:102CA00008F47BC00E94810E9091F301892F97FB5D
:102CB00087F9805849C09BEFE9169CE5F90609F4AD
:102CC0004EC008F05EC08091F4018160FAEFEF160B
:102CD000FCE5FF0609F04ACF8093F40147CF21E0DD
:102CE000E2162DE5F20609F46EC0B8F48FEFE8168F
:102CF0008CE5F80609F457C08091F4018360E11473
:102D00009DE5F90648F38091F401982F9095917014
:102D10008E7F892B90FB81F9DFCFE1E6EE16EDE5A2
:102D2000FE0609F456C0F5EAEF16FDE5FF0609F4C4
:102D300057C022E0E2162DE5F20609F017CF60E059
:102D400043C08091F30182608093F3010FCF8091A3
:102D5000F3018460F9CF8091F3018860F5CF809111
:102D6000F4018260B9CF8091F3018061EDCF0E94C0
:102D7000810E8091F3018068E7CF8091F301877F16
:102D8000E3CF8091F4018E7FA7CF8091F4018D7FF6
:102D9000A3CF8091F3018F7BD7CF0E94810E8091CA
:102DA000F3018F77D1CF8091F4018C7F95CF809103
:102DB000F30182FB992790F921E0922790FB82F999
:102DC00090FB83F9C1CF61E08EE090E00E944D233B
:102DD000CDCE9091F301892F8F7E94FF8061B4CF87
:102DE0009091F301892F8E7F90FF8160ADCF85E3B5
:102DF000FDCE85E3B1C20E94810E8FEF94E3ECE03B
:102E000081509040E040E1F700C000000E94140BA8
:102E10008091F40182FB882780F991E089270E9444
:102E2000EA0DF8018281E080F180882309F445C031
:102E3000C7010E940D0CD82E682FC7010E94550AA9
:102E4000B7018D2D0E94FF0B0E945C087C01882E2B
:102E5000F801D280B580B2943FE0B3228091DB01CB
:102E60008770C1F0AD2CDD20B1F08F2D807F8034D4
:102E700021F080E28E0D883068F08091F40182FFAD
:102E800009C082E00E94CE0D8091DB018770AA24E8
:102E9000A3948111A12C9F2C92942FE09222FBE00D
:102EA000F91508F479C0E92DF0E0E357FC4D0C94D6
:102EB000EE2281E0B4CF80E0B2CFC7010E94210AA8
:102EC000D82EBECF2F2D2F70C22E8F2D807F19F0C0
:102ED000C29490EFC922DD20B9F0CC2069F080E2E5
:102EE0008E0D883010F0811009C08091E501C82A4C
:102EF000C092E5010E94570D8E2D4CC08091E401D7
:102F0000C82AC092E401F6CF8E2D0E94280ECC2054
:102F100009F442C080E28E0D883010F0811004C0A8
:102F20008C2D0E94EA0906C0C0948091E401C82259
:102F3000C092E4010E94570D2FC03F2D3F70C32E59
:102F40008F2D807F803219F0C29480EFC8228820B4
:102F500089F081E0881609F46AC0DD2009F474C0A4
:102F6000BB2009F46AC0F801858180FFC5CF8F704E
:102F7000858363C02091F40122FD37C0DD2079F103
:102F8000CC2039F08091E501C82AC092E5010E9469
:102F9000570D80E00E946A12292D2850330B2430EF
:102FA000310520F40E9482060E948C0AAA2009F4AE
:102FB00067CC8091DB0180FD63CCF801128285959E
:102FC000859585950E94060EC8010E942E14809159
:102FD000DB018595859585950E94C10D51CC80E0DA
:102FE0000E94280ECC20C1F29BCFDD2099F0909159
:102FF000E6018C2D892BB11003C00E941E0ECCCF90
:10300000E1E0BE12FACF22FFC7CF981729F28093D2
:10301000E601C2CFB11006C00E94E4098C2D0E94C7
:10302000170EBACFF1E0BF1609F4B6CFF5CFDD2009
:1030300031F025E02B1508F4AFCF8C2DDECF34E036
:103040003B1508F4A9CFEACFBB2041F3F9E38F1277
:1030500009C02FEF37EE83E0215030408040E1F788
:1030600000C000008E2D0E94280E96CF8F2D8695D1
:103070008695837061F0813009F08ECFC70193701F
:10308000D11002C090E080E00E94560685CFC701B3
:103090009370D11002C090E080E00E946C067CCF5B
:1030A0008E2DDD2029F00E94A6070E948F0674CF86
:1030B0000E94B606FACF8F2D837091F5D1106CCF98
:1030C0004E2D429546954770440F440F8E2D8F70BC
:1030D000042E01C0880F0A94EAF72E2D2071E4FE19
:1030E00007C02FE030E001C0220F4A95EAF7209593
:1030F0003F2D369536953370323069F050F440915B
:10310000E701313029F0822B84230E94120E44CF34
:10311000842B822BFACF282B8091E7018227F5CFD1
:103120008695DD2011F08F2D8170882309F434CF2E
:103130004E2D429546954770440F440F8E2D8F704B
:10314000042E01C0880F0A94EAF72E2D2071E4FEA8
:1031500007C02FE030E001C0220F4A95EAF7209522
:103160003F2D369536953370323069F050F44091EA
:103170002A03313029F0822B84230E94B00D0CCF1A
:10318000842B822BFACF282B80912A038227F5CF1C
:103190009F2D9F70F92EDD2029F0892F0E94060EA9
:1031A0008E2D2BCF8E2D0E94170E8F2D0E94C10DBC
:1031B000F3CE8E2DE2EF8E16B1F1E81570F0F0EF40
:1031C0008F16D1F021EF821691F0DD2009F45EC058
:1031D000B11092CE8F2D8F712AC033EF831651F12B
:1031E00094EF8912F2CF8091F40182FD2FC08F2DD0
:1031F0008F71DD20D9F21BC0DD2081F0E4E0EB15FA
:1032000008F4CACE2F2D2F7181E090E001C0880F05
:103210002A95EAF790912A038927AFCFF5E0FB15AD
:1032200008F4BACEEFCF8F2D8F71D110BFCF0E948F
:10323000060EB2CE80E0DD2009F49FCF9F2D9F7156
:1032400081E001C0880F9A95EAF797CFDD2099F0C9
:103250002F2D2F71F22E822F0E94060E8091F401E5
:1032600082FF07C038E0F39EC00111248360809381
:10327000DB018F2DDCCF81E00E94CE0D81E08B152C
:1032800008F08ACE82E00E94CE0D86CEBB2059F097
:10329000893309F0E7CE9FEFE7EEF3E09150E0408D
:1032A000F040E1F7DDCE8F2D8F7180CFF0E1EF168A
:1032B000FFE5FF0609F4F8CB21E1E2162FE5F2065F
:1032C00009F4FCCB93EFE9169CE5F90609F462CC0E
:1032D00008F0F6CBF8EDEF16FCE5FF0609F456CC46
:1032E00029EDE2162CE5F20609F460CC37EDE31681
:1032F0003CE5F30609F0F5CB26E241EE61EEC801AC
:103300000E94D11309CB30E1E3163FE5F30609F43F
:10331000D1CB91E1E9169FE5F906A1F682E0CBCB8E
:1033200085E0DE01119601900D928A95E1F7F80192
:10333000228189819A812111A7CA0E94210AF82E2F
:10334000ABCAF6E1EF16FCE5FF0609F06ACD809105
:103350008A0181114ECD89E20E94F10949CC2AE50A
:10336000E2162DE5F20609F4A4CD78F4E1148CE51B
:10337000F80609F440CD9EEDE9169CE5F90609F042
:1033800050CD0E946C110E945611ECE5EE16EDE551
:10339000FE0609F43DCD08F48ECD27EAE2162DE5B0
:1033A000F20689F33ECD1F93CF93DF938091A8015E
:1033B000807F09F049C08091A501882309F444C0A9
:1033C0008091DA01D091A9016091A3017091A401CB
:1033D000A091A601B091A701C62FC72316E0D81768
:1033E00099F190E0109711F0CF3F19F40196877092
:1033F000F6CF189F9001199F300D1124F901E65561
:10340000FE4F41814713F2CF40814613EFCF4281F7
:103410004111ECCF438154814A1B5B0B483C510561
:1034200028F78091A8018F7080618093A801F9012D
:10343000E155FE4F80818F708061808383EA91E047
:103440000E942E140E94170ADF91CF911F910895B8
:10345000A1E1B0E0EEE2FAE10C9403238C0185E0F7
:10346000F801DE011D9601900D928A95E1F7F801B1
:10347000E28083EAA82E81E0B82E6091A6017091C7
:10348000A7016115710509F426C19091A30140912E
:10349000A401892F84238F3F09F41DC1208131812C
:1034A000C380D480F090A501F601E61BF70BFF2046
:1034B00009F4DCC08091A801582F507FE83CF10549
:1034C00008F09FC051116BC0FE2C431314C092131F
:1034D00012C0E11010C08F7080618093A801C501F7
:1034E0000E942E148091A801F80185838F2D61968A
:1034F000EAE00C941F23C114D10429F0822F832306
:103500008F3F09F003C180E0F82FF170DF2E80FFBC
:103510003CC08091DA014091A90156E0841315C0A6
:103520002D873E878D859E850E943C0C292F2295F4
:103530002F702230F0F0243018F59F70F1F0F80170
:103540009581907FD1F4D12C1EC090E0589FF0015E
:10355000599FF00D1124E655FE4F6181361306C0C8
:103560006081261303C06281E6120FC00196877046
:10357000D5CF9F7011F0882331F3805E883018F327
:10358000C8010E942E14FD2CB1CFEE2009F4AECF5D
:103590008091A80181608093A801F12CA7CF4313EB
:1035A00006C0921304C0F801EE2009F479C0C801E6
:1035B0000E94490C882309F1EE20F9F08091A801BE
:1035C000803270F02091A3013091A40138872F83BD
:1035D0001986DB86CA868C87CE0107960E942E1438
:1035E00086E0F801A3EAB1E001900D928A95E1F737
:1035F0000E94D319FF24F39479CFC8010E942E149E
:10360000F9CF51110AC083EA91E00E942E1486E09E
:10361000F50111928A95E9F7C0CF43130FC09213B9
:103620000DC0E1100BC0F8018583C8010E942E1463
:1036300086E0F50111928A95E9F758CFC8010E94FA
:10364000490C8823D1F2EE20C1F28091A80180328A
:1036500038F22091A3013091A4013A8329831B827F
:10366000DD82CC828E83CE010196B8CFE83CF10595
:10367000F8F6FE2CEE2009F243131FC092131DC072
:103680008091A80180FD10C0982F907F69F0F8010B
:103690008583903F31F0982F907F905F8F70892BBA
:1036A0008583C8010E942E1486E0F801A3EAB1E0E8
:1036B00001900D928A95E1F719CFC8010E94490C3B
:1036C00081118ECF8091A80181608093A801C801EB
:1036D0000E942E140BCFEE2009F48FCFC8010E9458
:1036E000490CF82E882309F488CF86E0F801A3EA74
:1036F000B1E001900D928A95E1F78091A30190913C
:10370000A4010E943C0C0E94D319F0CE81E08E25CA
:10371000FBCEA7E1B0E0EFE8FBE10C940A234B8B72
:103720005C8B6D8B7E8B8F8B61111092E4011A8AFA
:10373000198A85E0FE017396DE011D9601900D92B7
:103740008A95E1F786E0FE013D96DE01179601902D
:103750000D928A95E1F7CE0107960E94281A8823D8
:1037600059F016E08091DA019091A901891343C0C4
:103770006796E3E00C94262386E0FE013796DE018F
:10378000119601900D928A95E1F78A859B85892B88
:1037900041F38F81988589238F3F19F32091A901E7
:1037A00030E0C9010196877099274091DA014817E6
:1037B000190671F40E94810E1092A9011092DA018B
:1037C00086E0E3EAF1E0DF011D928A95E9F7C9CFCF
:1037D00096E0929FD001939FB00D1124A655BE4F45
:1037E000FE01319601900D929A95E1F78093A9011F
:1037F0000E94170AB6CF819FC001112486559E4FA3
:103800000E94281A882309F4B3CF8091DA0190E04E
:103810000196877099278093DA01A4CF1F920F92A7
:103820000FB60F9211242F933F934F935F936F9393
:103830007F938F939F93AF93BF93CF93DF93EF9338
:10384000FF93D091E900DF708091EC00C82FC17028
:1038500080FDC0E81092E9008091F000877F80939E
:10386000F00078940E948D0E1092E9008091F00093
:1038700088608093F000CD2BCF70C093E900FF915A
:10388000EF91DF91CF91BF91AF919F918F917F91F8
:103890006F915F914F913F912F910F900FBE0F90BD
:1038A0001F9018951F920F920FB60F9211242F930D
:1038B0003F934F935F936F937F938F939F93AF93B8
:1038C000BF93EF93FF938091E10082FF09C0809145
:1038D000E20082FF05C08091E1008B7F8093E100D0
:1038E0008091DA0080FF24C08091D80080FF20C042
:1038F0008091DA008E7F8093DA008091D90080FF7A
:103900009DC080E189BD82E189BD09B400FEFDCF83
:1039100081E08093300280912302811109C00E94CE
:1039200097030E948C048091E20084608093E200FF
:103930008091E10080FF17C08091E20080FF13C0FA
:103940008091E2008E7F8093E2008091E2008061AE
:103950008093E2008091D80080628093D80019BCE7
:1039600085E0809330028091E10084FF2BC080913C
:10397000E20084FF27C080E189BD82E189BD89B56D
:10398000982F917080FFFBCF8091D8008F7D80931E
:10399000D8008091E1008F7E8093E1008091E20069
:1039A0008F7E8093E2008091E20081608093E2004C
:1039B00080913102882309F447C084E0809330026B
:1039C000809130028091E10083FF27C08091E20066
:1039D00083FF23C08091E100877F8093E10082E034
:1039E00080933002109231028091E1008E7F8093AB
:1039F000E1008091E2008E7F8093E2008091E200FE
:103A000080618093E20042E060E080E00E945A041E
:103A10008091F00088608093F000FF91EF91BF915A
:103A2000AF919F918F917F916F915F914F913F9156
:103A30002F910F900FBE0F901F90189519BC1092E8
:103A400030021092230274CF8091E30087FD93E04F
:103A500090933002B5CF78941F921FB61F92112415
:103A60008F939F93AF93BF9380911C0290911D02FF
:103A7000A0911E02B0911F020196A11DB11D80935D
:103A80001C0290931D02A0931E02B0931F02BF91CF
:103A9000AF919F918F911F901FBE1F9018951F92FD
:103AA0001FB61F9211248F939F93AF93BF93809162
:103AB0001B02811113C080911C0290911D02A091E4
:103AC0001E02B0911F024196A11DB11D80931C02E0
:103AD00090931D02A0931E02B0931F02BF91AF915D
:103AE0009F918F911F901FBE1F901895CDB7DEB785
:103AF000AA970FB6F894DEBF0FBECDBF85B780681A
:103B000085BF85B7806885BF10925F021092610201
:103B10001092600280EC8093240382E692E09093FE
:103B20002603809325031092230310922203109200
:103B30003F0210923E0210924102109240021092F7
:103B400043021092420210924502109244021092D7
:103B500047021092460210924902109248021092B7
:103B60004B0210924A0210924D0210924C02109297
:103B70004F0210924E021092510210925002109277
:103B80005302109252021092550210925402109257
:103B90005902109258028CEE95E090933B0280936C
:103BA0003A028EE695E090935B0280935A028AE493
:103BB00095E0909357028093560289E495E09093A4
:103BC0003D0280933C0284B7877F84BF0FB6F89490
:103BD000A8958091600088618093600010926000D9
:103BE0000FBE80E890E00FB6F89480936100909348
:103BF00061000FBE80E098E0909381018093800186
:103C00000E9497030E948C048091E200846080935C
:103C1000E2007894809130028823A1F01091E900AD
:103C20001F709091EC00892F817090FD80E8182B17
:103C30001092E9008091E80083FD0E948D0E1F70B4
:103C40001093E90082E084BD93E095BD9AEF97BDA3
:103C500080936E000E94690C811102C00E94C00B0B
:103C600081E90E94020880E90E94020884E90E941A
:103C7000020886E60E94020804E511E0E2E6EE2E64
:103C8000E1E0FE2ED8018D918D018F3F11F00E9451
:103C90000208E016F106B1F788E0EEEFF1E0DF018F
:103CA000282F1D922A95E9F7EBEEF1E0DF011D9236
:103CB0008A95E9F790E080E00E944723883E9E4F76
:103CC00021F40E94690C811102C00E946C1182E0F3
:103CD00090E00E943F23809314020E94820C9093F4
:103CE000F4018093F3010E94900CEFE3FCE931971B
:103CF000F1F700C000000E94900C8091FE0180FF4F
:103D000008C06FEF7FEF90E080E00E946B230E947D
:103D1000140B83E090E00E943F230E94120E559AFC
:103D20005D9880E091E0909318028093170258E12B
:103D3000652E712C66E0C62E62E0D62E73E0E72E6B
:103D4000F12C8091300200E112E1853009F494C138
:103D50000E94900C882359F08FB7F89440911C0270
:103D600050911D0260911E0270911F028FBFAEEF35
:103D7000B1E0E5EFF1E010E000E0702F8D919D9152
:103D8000219131912817390709F488C1282739274B
:103D900060E0AA24A394B12CA9014A215B21452B00
:103DA00009F476C169A37AA39C012A213B2191E001
:103DB000232B09F490E09BA30E944A068160782F90
:103DC0009DA38CA349A15AA16BA18DA10E94891B1F
:103DD000000F111FF801EB50FE4F80819181A82642
:103DE000B926B182A08286E0EDE0F2E0DE01119614
:103DF00001900D928A95E1F710920F021092100235
:103E000010921102109212028B819C81892B91F0E9
:103E100080910B0290910C020E943B06AC019091A4
:103E20000702992309F451C180910D0184171506E9
:103E300008F459C18D819E81892B09F44AC0809173
:103E4000090290910A020E943B069C019091060291
:103E5000992309F496C321353105D8F19F3F19F014
:103E60009F5F909306021D81112359F00E942F0736
:103E70009FEF11160CF491E0899F802D11248093FF
:103E800011021E81112359F00E942F079FEF111676
:103E90000CF491E0899F802D1124809312023091BF
:103EA00011023323B1F020911202222391F045EB4D
:103EB0003403C0011124992309F456C190931102CF
:103EC00045EB240390011124332309F451C13093AD
:103ED000120246E050E0BE016F5F7F4F8DE092E03E
:103EE0000E943223892B61F480910F02909110027D
:103EF000892B90911102892B90911202892B11F03C
:103F00000E948F0686E0FE013196ADE0B2E001909E
:103F10000D928A95E1F7E0915A02F0915B02309799
:103F200019F08AE392E009959FB7F8940091230372
:103F300080912203081708F41FC1081B9FBFB12CF2
:103F4000A12C10E088248394912C94E0392E222413
:103F50002394A016B10608F413C10E948206909122
:103F6000FD01891721F08093FD010E948C0A809148
:103F700030028430E1F4809113018F708093E90066
:103F80009091E80090FF13C090913002943079F442
:103F90008093E9009091F3008091F200892B39F031
:103FA0008091E8008E778093E8000E94B6038091AC
:103FB0003002843009F0C5CE83E08093E90080911F
:103FC000E80082FFBECE8091E80090E085FF09C046
:103FD00050E040E060E270E0CE0101960E941104E2
:103FE00091E08091E8008B778093E800992309F4B1
:103FF000A8CEE981E150E33108F0EFC1F0E0E756E7
:10400000FC4D0C94EE2280913002843029F180E046
:104010000E948C0A10921B02F0E40FB6F894A89547
:10402000609260000FBEF093600083B7817F846070
:1040300083BF83B7816083BF7894889583B78E7F71
:1040400083BF0FB6F894A895809160008861809333
:104050006000109260000FBE80912F02882361F0F3
:104060000E94900CEEEFF1E081919191892B09F083
:1040700069C2CE16DF06C1F780913002853009F49F
:10408000C2CF0E94810E0E9482060E948C0A60CEDE
:104090006F5FAA0CBB1C6E3009F07ECE0F5F1F4F06
:1040A0000430110509F069CE8FEF8EA38FA318A6F7
:1040B0000E944A068160782F9AA789A74EA15FA126
:1040C00068A58AA50E94891B8ECE20910C018AE0EA
:1040D000289F900111242417350708F0ABCE9F5F6D
:1040E0009093070202C09F3FD1F71B81112359F023
:1040F0000E9468079FEF11160CF491E0899F802DB4
:10410000112480930F021C81112359F00E9468072B
:104110009FEF11160CF491E0899F802D112480935C
:10412000100230910F02332309F484CE2091100243
:10413000222309F47FCE45EB3403C00111249923D7
:1041400059F090930F0245EB24039001112433237F
:1041500039F0309310026ECE81E080930F02F3CFDE
:1041600081E08093100266CE81E080931102A8CE98
:1041700081E080931202ADCE20912403020FDDCEA8
:104180008091220390E06091240370E00E94DA2283
:104190002091250330912603280F391FD9015C9007
:1041A00040905F02B7EFB515E8F420925F0220E07F
:1041B00040E0652D81E090E00E94B40240925F02F1
:1041C0002FB7F8948091220390E001966091240328
:1041D00070E00E94DA22809322032FBF8FEFA81A8B
:1041E000B80AB7CE57FE52C0E4E04E1631F05092F6
:1041F0005C029092610280926002852D0E944B05C4
:10420000813069F08823D1F08230A9F0833099F0B1
:1042100010925F021092610210926002D1CF8093DF
:104220005F0220E040E0652D81E090E00E94B40252
:1042300010925F02C5CF80935F02C2CFF0EF5F168E
:10424000E1F027EF5212E4CF209160023091610239
:10425000C901B7010E94C622FC01E65CFD4F52A2D3
:10426000C9010196909361028093600220915E02E1
:1042700040915D0260915C02D9CF30925F02509212
:104280005C0290926102809260029ACF442009F40D
:1042900097CF2091600230916102C901B7010E945D
:1042A000C622AC01FC01E65CFD4F52A2C901019699
:1042B00090936102809360024130510589F0423051
:1042C000510509F07DCF20915E0240915D02609121
:1042D0005C020E94B40280915F02843091F670CF3C
:1042E00042E020E044126CCFF0CF1A8289E08B8349
:1042F0003FC08A81823009F43BC18330A9F081300C
:1043000009F06BC02FB7F89460911C0270911D02E8
:1043100080911E0290911F022FBF0E94F4226B8396
:104320007C838D839E8324C08091FE019091FF0148
:104330009827892798279C838B83809100029091EE
:1043400001029827892798279E838D8380910202F6
:104350009091030298278927982798878F838091C7
:104360000402909105029827892798279A878987C0
:1043700080913002843009F0E4CC1091E9001F7084
:104380009091EC00892F817090FD80E8182B82E0DD
:104390008093E9008091E80080FF0DC050E040E08C
:1043A00060E270E0CE0101960E94E7038091E80090
:1043B0008E778093E8001F701093E900C2CC8A8149
:1043C000823059F46B817C818D819E810E94F42220
:1043D00086E290E00E944D23CBCF8FEF8983C8CF38
:1043E0004C816B818A810E94D00B9827892798275E
:1043F0009E838D83BDCF2D813E8132272327322797
:104400004C816B818A810E94480BB2CF0E946E0B57
:10441000AFCF80E18A83ACCF82E08A8389E167CF26
:104420000A811B81102701271027DE0111965D01EB
:104430008C80FD01E80DF11D4F01C80189519E4F8F
:104440008A149B0409F494CF0931F2E01F0758F451
:104450000E943F23D50114968C930F5F1F4FFFEFEF
:10446000AF1ABF0AEACFF5011482F7CF0A811B8188
:10447000102701271027CE0101964C01AC80A00E19
:10448000B12EB11CC80189519E4FA016B10609F486
:104490006FCF0931A2E01A0720F4F40164810E9471
:1044A0004D23FFEF8F1A9F0A0F5F1F4FEBCF0E9424
:1044B000380B5ECF84E0AECF0A811B811027012725
:1044C0001027CE0101965C018C80DC01A80DB11D86
:1044D0004D01C8018796A814B90409F449CF003CDE
:1044E000B1E01B0750F40E943F23F50184830F5F66
:1044F0001F4FBFEFAB1ABB0AECCFD50114961C922D
:10450000F6CF0A811B81102701271027FE01319663
:104510004F01AC80A00EB12EB11CC8018796A01629
:10452000B10609F425CF003CF1E01F0728F4D401BF
:1045300014966C910E944D23BFEF8B1A9B0A0F5F5C
:104540001F4FEBCF09BD19BD09B400FEFDCF80910F
:10455000D8008F7D8093D8008091E00082608093A6
:10456000E0008091E00081FDFCCF0E94810E84CDAF
:1045700086E290E00E943F231B821C821D828E8374
:10458000F7CE2B30310508F06BCCA3CCAA1BBB1B9C
:1045900051E107C0AA1FBB1FA617B70710F0A61B43
:1045A000B70B881F991F5A95A9F780959095BC0164
:1045B000CD01089597FB072E16F4009407D077FDE0
:1045C00009D00E94C62207FC05D03EF49095819543
:1045D0009F4F0895709561957F4F0895EE0FFF1FCF
:1045E0000590F491E02D099469279627692778278B
:1045F0008727782708952F923F924F925F926F926C
:104600007F928F929F92AF92BF92CF92DF92EF9262
:10461000FF920F931F93CF93DF93CDB7DEB7CA1BE3
:10462000DB0B0FB6F894DEBF0FBECDBF09942A880E
:10463000398848885F846E847D848C849B84AA84B6
:10464000B984C884DF80EE80FD800C811B81AA8143
:10465000B981CE0FD11D0FB6F894DEBF0FBECDBF0E
:10466000ED010895FB01DC0104C08D9101908019DA
:1046700021F441505040C8F7881B990B0895F999CF
:10468000FECF92BD81BDF89A992780B50895A8E123
:10469000B0E042E050E00C947323262FF999FECF4E
:1046A00092BD81BDF89A019700B4021639F01FBA85
:1046B00020BD0FB6F894FA9AF99A0FBE08950396A2
:1046C000272F0E944E230E944D23252F0E944E2308
:1046D000242F0C944E230196272F0E944E230C94D6
:1046E0004D23DC01CB01FC01F999FECF06C0F2BDE0
:1046F000E1BDF89A319600B40D9241505040B8F7A0
:104700000895F894FFCF6E0F960F4411960F441141
:10471000C90FEA0F4411E810F510621762179D17D0
:104720009D1736185018CC17CC175B18C818D91815
:10473000D91875217921DF21F021FB210622ED21F5
:10474000ED21ED21ED21ED2109220C22102236224E
:0847500057225A225C2281224B
:104758004605E70AC60AC10ABC0A450501141E0A2D
:10476800280804854000000106400000010001817E
:104778008283E200E900EA00B500B600B700CD0088
:104788008301CC008A0192019401210223022402B0
:104798002502260227022A02B300B4006F00700027
:1047A80091909466F4F5F6F73133323697C634357E
:1047B80092930203020000010001010101010001BE
:1047C8000140227B49012701AC000B042404440466
:00000001FF
