:100000000C9448020C9480020C9480020C948002A0
:100010000C9480020C9480020C9480020C94800258
:100020000C9480020C9480020C94F2190C94AE197A
:100030000C94EF1A0C9480020C9480020C948002B1
:100040000C9480020C9480020C9480020C94800228
:100050000C9480020C94CB1A0C9480020C948002B5
:100060000C9480020C9480020C9480020C94800208
:100070000C9480020C9480020C9480020C948002F8
:100080000C9480020C9480020C9480020C948002E8
:100090000C9480020C9480020C9480020C948002D8
:1000A0000C9480020C9480020C94800205010902D9
:1000B000A10185020901A1000509190129081500FE
:1000C0002501950875018102050109300931158165
:1000D000257F95027508810609381581257F9501D0
:1000E00075088106050C0A38021581257F95017572
:1000F000088106C0C005010980A101850319012AF4
:10010000B700150126B700950175108100C0050CD8
:100110000901A101850419012AA002150126A002E6
:10012000950175108100C00660FF0961A101096297
:10013000150026FF00952075088102096315002629
:10014000FF00952075089102C005010906A101056F
:100150000719E029E7150025019508750181029529
:1001600001750881010507190029FF150026FF0008
:100170009506750881000508190129059505750181
:100180009102950175039101C0000000000000007C
:10019000000000000000000000000000000000005F
:1001A000000000000000000000000000007E0F00C2
:1001B000D4FFFFFFC700000078000000000000002F
:1001C000002A2B28000000000000000000000000B2
:1001D0000000000029000000002C1E3420212224F1
:1001E000342627252E362D3738271E1F202122237F
:1001F0002425263333362E37381F04050607080911
:100200000A0B0C0D0E0F10111213141516171819D6
:100210001A1B1C1D2F3130232D3504050607080934
:100220000A0B0C0D0E0F10111213141516171819B6
:100230001A1B1C1D2F3130354C2B0014001A0008DE
:1002400000150017001C0018000C00120013002FEE
:100250000030002A00390004001600070009000AD7
:10026000000B000D000E000F003300340028004B7F
:1002700000E1001D001B0006001900050011001020
:1002800000360037003800E50052004E00E000E282
:1002900000E3002C0000002C0000000151000002CF
:1002A000510351500051004F0035001E001F002027
:1002B0000021002200230024002500260027002D15
:1002C000002E0031000100010001000100010001C9
:1002D0000001000100010001000100010001004ACD
:1002E0000001000100010001000100010001000106
:1002F00000010001000100010001004D00010001AA
:1003000000010001000000010000000100000001E8
:1003100000010001000100010029003A003B003CFF
:10032000003D003E003F00400041004200430044C9
:100330000045004C00010001000100010001000126
:100340000001000100010001000100010001004A5C
:100350000001000100010001000100010001000195
:1003600000010001000100010001004D0001000139
:100370000001000100000001000000010000000178
:100380000001000100010001000100010001000165
:1003900000010001000100AC00AE00AB00A800AA03
:1003A00000A900010001000100010001000100019D
:1003B0000001000100010001000100010001000135
:1003C0000001000100010001000100010001000125
:1003D0000001000100010001000100010001000115
:1003E0000001000100000001000000010000000108
:1003F00000010001000100010009025B000301008F
:10040000A0FA090400000103010100092111010003
:1004100001224000070581030800010904010002D0
:1004200003000000092111010001222200070582BA
:100430000320000107050303200001090402000155
:1004400003000000092111010001227B000705843F
:1004500003200001120100020000000859480200B8
:1004600001000102000108034800350030000000CF
:100470001A034D0041004E00550046004100430064
:1004800054005500520045005200000004030904C6
:1004900011241FBECFEFDAE0DEBFCDBF04B603FEEE
:1004A00018C08091260290912702A0912802B09155
:1004B00029028730904BA740B04B59F41092260286
:1004C000109227021092280210922902E0E0F8E32D
:1004D000099511E0A0E0B1E0E2E6F0E402C0059089
:1004E0000D92A636B107D9F722E0A6E6B1E001C029
:1004F0001D92A632B207E1F70E94161B0C9406204B
:100500000C940000E8EDF0E080818E7F80831092F3
:10051000E2001092DA001092E100A0EEB0E08C91BF
:1005200081608C9380818F77808319BCA7EDB0E0C8
:100530008C918E7F8C9380818F7E808310920B02B2
:1005400008952091E4003091E50095E6A9012091FD
:10055000EC00822F817020FF06C08091E80080FFB0
:1005600006C080E008952091E80022FD1AC0809125
:100570001802882389F0853089F08091EB0085FD91
:100580000FC02091E4003091E50042175307F9F2C3
:100590009150E1F684E0089582E0089583E00895A3
:1005A00081E00895EF92FF920F931F93CF937C0108
:1005B0008B010E94A102C82F811117C08091E80011
:1005C00085FD0BC08091E8008E778093E8000E9443
:1005D000A102882399F3C82F08C0F70181917F01F8
:1005E0008093F1000150110949F78C2FCF911F9191
:1005F0000F91FF90EF90089580911A0287FF13C02A
:100600008091E80082FF06C08091E8008B7780939C
:10061000E80004C0809118028111F2CF0895809102
:1006200018028823D9F38091E80080FFF8CF8091E9
:10063000E8008E77ECCF982F9093E900242F762F47
:1006400050E0891731F07091EC002091ED0050914D
:10065000F00021FD07C09F5F973071F78093E9009C
:1006600081E008953091EB003E7F3093EB003091B4
:10067000ED003D7F3093ED003091EB003160309321
:10068000EB007093EC002093ED005093F00020916C
:10069000EE0027FDE0CF80E00895B0E0A0E0E3E5C4
:1006A000F3E00C94761FC8EDD0E088818F7E8883BC
:1006B000E7EDF0E080818160808384E082BF81E0AB
:1006C00080930B0288818E7F888302EE10E0F80110
:1006D00010821092DA0081EEC82ED12CF601108221
:1006E00088818F77888388818068888388818F7DDF
:1006F000888319BC109218021092190210921702E6
:100700001092160290EEE92EF12CF70180818B7F7A
:10071000808388818160888342E060E080E00E947D
:100720001B03F60180818E7F8083F80180818160C8
:100730008083808188608083F70180818E7F8083C1
:10074000888180618883CDB7DEB7E8E00C94921F82
:10075000FC01809120029091210286179707A0F05A
:100760006115710529F49091E8009E779093E80057
:1007700090E06115710551F4911108C08091E80075
:1007800082FF34C080E00895BC01F2CF809118024E
:100790008823C1F18530C1F18091E80083FD30C02C
:1007A0008091E80082FDEACF8091E80080FFE1CFF0
:1007B0008091F3002091F200382F6115710519F036
:1007C0002830310558F091E02830310509F090E0EB
:1007D0002091E8002E772093E800CBCF8191809381
:1007E000F100615071092F5F3F4FE7CF80911802F0
:1007F000882341F0853041F08091E80083FFBECF2F
:1008000081E0089582E0089583E00895089580913D
:100810000D0208959C014FB7F894809104029091C5
:100820000502A0910602B09107024FBF821B930BF5
:1008300008952FB7F8948091040290910502A09139
:100840000602B09107022FBF08959C01FC01329669
:100850009FEF80E04191461751F09F3F19F44111FD
:1008600001C0982F8F5F8630A9F79F3F09F4089544
:10087000290F311D97FD3A95F90162830895209162
:100880000102309102022817390771F09093020299
:1008900080930102E091FF01F0910002309721F076
:1008A0000084F185E02D099508952091FD01309196
:1008B000FE012817390771F09093FE018093FD0126
:1008C000E091FF01F0910002309721F00680F7815E
:1008D000E02D09950895E091FF01F0910002309715
:1008E00029F00190F081E02D0995089580E00895A8
:1008F0000E9419049C019091F7018091F801982BB6
:1009000021F03093F4012093F3019091F90180914B
:10091000FA01982B21F03093F2012093F101E0913C
:10092000FF01F0910002309749F082E08093F501D9
:100930000480F581E02D85EF91E0099508954091BF
:10094000F701803F59F48091F80187FF0DC01092A4
:10095000F80141110BC01092EF0108C0813F81F4F2
:100960008091F80118169CF3442381F08091F901DD
:100970009091FA01892B09F05AC01092EE01089566
:10098000823F49F447FFF0CF1092F7018091F801C0
:100990008111ECCFE0CF833F19F41416ACF3E4CF10
:1009A0009091F901893F29F41916F4F61092F90192
:1009B000DBCF8A3F19F497FFD7CFF8CF9091FA0198
:1009C0008B3F29F497FFD0CF1092FA01CDCF8C3F07
:1009D00019F41916CCF3C8CF9CE0980F953090F419
:1009E000845F990B21E030E0B90102C0660F771FE8
:1009F0008A95E2F7CB0180959091F6018923809347
:100A0000F601B2CF8D3F31F48091F0018E7F80935B
:100A1000F001AACF8E3F21F48091F0018D7FF7CFB6
:100A20008F3F09F0A1CF8091F0018B7FF0CF089527
:100A30008091F00180FF0CC06091110170E075950C
:100A40006795759567956115710549F1862F08952C
:100A500081FF06C06091110170E075956795F3CF35
:100A60006091110182FD0BC09091EE019923A1F0DC
:100A70006091100180911101961738F0682F70E095
:100A80006038710500F38FE70895899FC001112434
:100A900070E00E944B1FF4CF61E070E0D7CF81E09F
:100AA00008958091F00180FF0DC060910F0170E00A
:100AB000660F771F6038710570F56115710569F172
:100AC000862F089581FF07C060910F0184E0689F21
:100AD000B0011124EFCF82FF04C060910F0188E0C4
:100AE000F6CF8091EF01882399F020910E0160915B
:100AF0000F018217A0F7869FC001112433E0880FF1
:100B0000991F3A95E1F7622F70E00E944B1FD2CFF8
:100B100068E070E0D5CF8FE7089581E00895803FC9
:100B200031F40E94510581958093F8010895813F29
:100B300019F40E945105F8CF823F31F40E9451050B
:100B400081958093F7010895833F19F40E94510520
:100B5000F8CF893F29F40E9418058093F901089580
:100B60008A3F21F40E9418058195F7CF8B3F31F41D
:100B70000E94180581958093FA0108958C3F19F41D
:100B80000E941805F8CF9CE0980F953070F4845FB0
:100B9000990B21E030E001C0220F8A95EAF780919D
:100BA000F601822B8093F60108958D3F31F48091F8
:100BB000F00181608093F00108958E3F21F48091CF
:100BC000F0018260F7CF8F3FB9F78091F001846028
:100BD000F1CF80E00895F894E82FE295EF70F0E00F
:100BE00031A1282F2F7081E090E001C0880F2A9555
:100BF000EAF7982F9095932391A392A1892B82A332
:100C0000789408959091D90192FF06C0282F2871F9
:100C10002830F9F4877F846093FF06C0282F28715D
:100C20002831F1F4877E84612091DA0120FF06C02B
:100C3000382F38713830D9F4877F816021FF06C0A2
:100C4000282F28712831D1F4877E816194FD877E19
:100C50000895282F24712430F9F68B7F8860DCCF2B
:100C6000282F2471243101F78B7E8861DDCF382F46
:100C70003171313019F78E7F8860E0CF282F2171D4
:100C8000213121F78E7E8861E1CFCF93DF93EC0194
:100C900082389105B1F108F040C08133910509F423
:100CA0009DC048F58932910509F48DC08A9709F4F1
:100CB0009CC0C11521E5D20708F0C3C0C11530E5BD
:100CC000D30708F01EC1C83ED10508F0A3C0C03E3E
:100CD000D10588F5C83AD10508F08EC0C53AD105CE
:100CE00008F007C1C130D10531F1209721F1C4309E
:100CF000D10508F545C08533910509F45FC0C99752
:100D0000C1F68091D901837009F043C18091DA0165
:100D100083FF11C0C9E2D0E00EC0833E910599F176
:100D200070F4803E910501F1823E910511F68091AB
:100D3000D90182FD21C0CE01DF91CF910895863E79
:100D4000910561F1873E910571F1843E910509F0AD
:100D5000B0CF8091DA0181FFEECF8091D901C7EE4B
:100D6000D0E084FD0DC0E7CF8091D90180FD33C074
:100D70009091DA0190FFDFCFC3EED0E084FFDBCFAC
:100D8000D0E0C0E0D8CF8091D90182FDFFC0909122
:100D9000DA0190FDFEC084FFCECFF2CF8091D90161
:100DA00083FDDDCFC8CF8091D90183FDF5C090913F
:100DB000DA0191FFF0CFC4EED0E0BDCF8091D90130
:100DC00085FFB9CFA7CF8091D90185FDE8C080917B
:100DD000DA0183FFB0CFC9E3D0E0ADCF8091D90174
:100DE00086FFA9CFCAE2D0E0A6CF8091D90186FFC5
:100DF000A2CFC1E3D0E09FCFCF3BD10508F6C85AC0
:100E0000D0E0CC0FDD1FCA5EDE4F0990D881C02D27
:100E1000D46491CFC11540E2D40758F4C11581E0E4
:100E2000D80708F088CFC03FD10508F4A9CFD06516
:100E300082CFC11520E4D20708F4A2CFDF70D06AB8
:100E40007ACFC11535E5D30718F5C11544E5D407A8
:100E500008F084C0C11583E5D80708F06BC0C11540
:100E600022E5D20708F461C0CE018370992721E002
:100E700030E002C0220F331F8A95E2F7C695C6956F
:100E800080E2C89FE0011124C22BD32BDC6853CF32
:100E9000C11539E5D307A8F4C11548E5D40708F012
:100EA00062C0C11586E5D80708F06ACF8C2F0E9472
:100EB0000206C82FD0E0DC2FCC27CC27DF71D06210
:100EC0003ACFC1152AE5D20708F452C0CE01905698
:100ED0008115904208F054CF8D2F8F710E94020629
:100EE00090E0982F882788279F719C012C2BE9017F
:100EF000E6CFC55AD0E0CD5EDE4FC881D0E0D064E9
:100F00001ACFCE018370992721E030E002C0220F72
:100F1000331F8A95E2F7C695C69540E2C49FE0016B
:100F20001124C22BD32BDD6806CFDC2FCC27C16F59
:100F3000D06A01CFCE018370992721E030E002C052
:100F4000220F331F8A95E2F7C695C69540E2C49FEB
:100F5000E0011124C22BD32BDA68EDCEDC2FCC2795
:100F6000C46FD06AE8CEDC2FCC27C06FD06AE3CE46
:100F70008C2F8F700E94020634E0D695C7953A9563
:100F8000E1F7CF709C2FEC01D069D5CEC2EED0E056
:100F9000D2CEC0EED0E0CFCEC6EED0E0CCCEC5E310
:100FA000D0E0C9CE8091CC0181111092CC0108957E
:100FB00080959091CB0198239093CB0108958091D7
:100FC000C00190918F01981301C008958F5F8770C1
:100FD000FACF292F943078F58E3068F590E03EE016
:100FE000239F800D911D1124682F677023E0969533
:100FF00087952A95E1F7FC01EE0FFF1FE80FF91F17
:10100000EC58FE4F50E040E080E0219130E0062EA9
:1010100002C0369527950A94E2F721703327042EF3
:1010200001C0220F0A94EAF7822B4F5F5F4F4330D3
:10103000510559F7089580E00895292F943098F5C7
:101040008E3088F590E03EE0239F800D911D1124A5
:10105000282F277041E001C0440F2A95EAF723E0CA
:10106000969587952A95E1F7FC01EE0FFF1FE80F93
:10107000F91FEC58FE4F30E020E070E05191DF01A5
:101080001197CB01022E02C0969587950A94E2F73C
:10109000817081958527842385278C932F5F3F4F0F
:1010A0002330310559F7089581FF02C05D9A0895F4
:1010B0005D9808958093080270930A026093090274
:1010C000809118028430F9F48093E9008FEF9091B9
:1010D000E800815095FD06C095ED9A95F1F7000066
:1010E0008111F5CF8091E80085FF0DC050E040E010
:1010F00063E070E088E092E00E94D2028091E80014
:101100008E778093E8000895BC0184E00E945A081D
:101110000895BC0183E00E945A0808959C0184E070
:101120008093E9009FEF8091E800915085FD06C013
:1011300085ED8A95F1F700009111F5CF8091E800D7
:1011400085FF0CC050E040E066E070E0C9010E94FD
:10115000D2028091E8008E778093E8000895CF93C3
:10116000DF93EC0181E08093E9008FEF9091E8003C
:10117000815095FD06C095ED9A95F1F7000081111B
:10118000F5CF8091E80085FF14C050E040E068E0B2
:1011900070E0CE010E94D2028091E8008E778093A9
:1011A000E80088E0FE01AEE0B2E001900D928A9581
:1011B000E1F7DF91CF91089581E08093E00080E234
:1011C0008093D8001092C9008FE19EE40197F1F757
:1011D00000C0000087E090EBDC0180932602909332
:1011E0002702A0932802B093290288E19CE00FB661
:1011F000F894A895809360000FBE90936000FFCF95
:10120000CF93DF93C7EED1E060E0CE010E94C51F0F
:101210002196C11584E0D807B9F7DF91CF910895E1
:101220001F93CF93DF93122F8430E0F46430D0F417
:101230004E30C0F4C42FD0E0CC0FDD1F9CE1699F7D
:10124000C00DD11D112490E7899FC00DD11D11241F
:10125000632FCE0187960E94C51F612FCE0188960D
:101260000E94C51FDF91CF911F910895AF92BF9249
:10127000CF92DF92EF92FF921F93CF93DF9389E398
:10128000C82E82E0D82ED0E07601C0E014C0F5016F
:1012900025913491412F6C2F8D2F0E94100982E0EF
:1012A000A80EB11C1F5F1E3091F78CE1E80EF11CF7
:1012B000CF5FC43019F0570110E0E9CFDF5F80E75E
:1012C000C80ED11CD43001F7DF91CF911F91FF9050
:1012D000EF90DF90CF90BF90AF900895CF93DF93C2
:1012E000D82FCFEF8111C1E26C2F83E290E00E94F2
:1012F000C51F6FEFD11162E184E290E00E94C51F2B
:101300006C2F85E290E00E94C51FDF91CF91089578
:1013100080E00E946E0960E086E290E00E94C51FB6
:101320000E9436090E94000981E00E946E0908951A
:101330000F931F93CF93DF93843030F5643020F503
:101340004E3010F5C42FD0E0CC0FDD1F2CE1629F92
:10135000C00DD11D112430E7839FC00DD11D112474
:10136000CE0187960E94B71F082F10E0102F00278C
:10137000CE0188960E94B71F9801282BC901DF91E2
:10138000CF911F910F91089590E080E0F8CF462F04
:10139000843040F4743030F46E3020F4672F0E94B3
:1013A0009809089590E080E00895CF92DF92FF922F
:1013B0000F931F93CF93DF936C01009125028091CF
:1013C000CD01082BC7E0D0E010E0FC2EC8010C2EA8
:1013D00002C0959587950A94E2F780FD0CC021978D
:1013E000A0F7F12C8F2DDF91CF911F910F91FF90DE
:1013F000DF90CF900895B6018C2F0E94C7090E94FC
:101400004506019761F3EECFCF93DF93EC010E9485
:10141000D509BE010E94C7090E944506DF91CF9100
:101420000895FC0183819481892B29F08081918129
:1014300089238F3F51F480E00895843FE1F717C07E
:10144000883EA8F0813FB9F712C0808191810E9447
:10145000040A92959F70963099F358F4925F9F70AA
:10146000923048F7803F19F040F7883E20F781E03E
:1014700008959A5FF4CF83E290E00E94B71F813213
:1014800089F484E290E00E94B71F823159F485E22A
:1014900090E00E94B71F91E0813209F090E0892F1F
:1014A0008170089580E0FCCFCF9384E090E00E94AB
:1014B000B71FC82F82E290E00E94B71F982F8C2F91
:1014C000CF9108958091CB019091CA01892B80938F
:1014D00068019091CC01992391F0892B8093680148
:1014E00020E08AE691E0FC013191CF0131112F5FBC
:1014F000F1E080379F07B9F721110E94D20748E039
:1015000050E062EC71E088E691E00E94F91F892BBF
:10151000A9F088E0E8E6F1E0A2ECB1E001900D92DC
:101520008A95E1F7E091FF01F0910002309731F0E8
:101530000280F381E02D88E691E00995089590E01E
:1015400080E00E94550490E080E00E943F041092E9
:10155000CA010E94620A86E0E5EFF1E0DF011D9218
:101560008A95E9F71092EF011092EE011092F001C6
:101570000E9478040895809325020E949F0A08958E
:1015800080912502982F9670963021F488600E94F1
:10159000BB0A0895877FFBCF21E030E001C0220F16
:1015A0008A95EAF720958091250282230E94BB0A42
:1015B00008959091C101809589238093C101282FBE
:1015C000277091F4282F082E000C330B9217130666
:1015D00059F09091DA0192FF07C085958595859520
:1015E0000E94CC0A1092C1010895CF93C091DA01F4
:1015F000C2FB992790F9981791F080FBC2F9C0932C
:10160000DA016091D90184E090E00E94C51F6C2F3F
:1016100082E290E00E94C51F82E00E94D90ACF9129
:10162000089521E030E001C0220F8A95EAF7809109
:101630002502822B0E94BB0A08958093CD010E944F
:101640009F0A0895882321F00E94D8070E94620A09
:101650000895882339F09091CB01982B9093CB017A
:101660000E94620A08958823C9F19CEF980F913A6D
:1016700078F4EAE6F1E09191891303C0DF01119754
:101680001C9291E0E037F907B1F70E94620A0895D1
:1016900090E2980F983050F4877091E001C0990F54
:1016A0008A95EAF7892F0E94D807EFCF9BE5980F1C
:1016B000933028F490E080E00E945504089598E566
:1016C000980F973128F490E080E00E943F0408953D
:1016D000803F20F00E949F040E9478040895109299
:1016E000CB01EAE6F1E086E0DF011D928A95E9F799
:1016F0000E949F0A0895AAE2B0E0E1E8FBE00C94A2
:101700007B1F8AE192E02091F100DC012D93CD0155
:10171000B2E082329B07B9F780911B02833009F453
:1017200072C0B8F4813009F449C0823009F4B3C002
:101730008091E80083FF8BC280911A0290911B0276
:101740009A3008F084C2E92FF0E0E85FFF4D0C9476
:101750005F1F8A3009F48EC08B3009F471C0893064
:1017600039F780911A02813219F780911E02909107
:101770001F02009711F00297D9F68091E800877F49
:101780008093E8008091E80082FF38C09091F300D8
:101790008091F200029731F48091F100813011F0D4
:1017A000863021F48091F10080930D028091E80051
:1017B0008B778093E8000E94FC02BACF80911A02D6
:1017C000813A09F0B5CF8091E800877F8093E800E7
:1017D00080911E0290911F02892B61F468E08EE0D7
:1017E00092E070E00E94A8038091E8008B778093DC
:1017F000E8009ECF60E090E080E0F3CF8091180297
:101800008111C0CF95CF80911A02813A09F090CF13
:1018100080911E0290911F02892B09F089CF80913F
:10182000E800877F8093E8008091E80080FFFCCF8C
:10183000809112018093F1008091E8008E77B9CFFA
:1018400080911A02813209F073CF80911E0290912B
:101850001F02892B09F06CCF8091E800877F80936D
:10186000E8000E94FC0280911C02809312010E94F9
:101870006F0B5ECF80911A02813209F059CF8091AF
:10188000E800877F8093E8000E94FC0280911D029F
:1018900080930C024DCF80911A02813A09F048CF13
:1018A0008091E800877F8093E8008091E80080FFC6
:1018B000FCCF80910C02BECF803899F0823809F0BD
:1018C000C6C180911E028F70873008F0C0C180931E
:1018D000E9008091EB0085FB882780F91092E900F0
:1018E00006C080911602909117029111826090912A
:1018F000E800977F9093E8008093F1001092F10048
:101900008091E8008E779FC1882309F48DC18230D1
:1019100009F09DC180911C02811190C180911E022D
:101920008F702FEF280F263008F091C18093E900C7
:101930002091EB0020FF82C1933031F48091EB00C5
:1019400080628093EB007AC19091EB00906190935C
:10195000EB0021E030E001C0220F8A95EAF72093E6
:10196000EA001092EA008091EB008860EACF8111D2
:101970006EC110911C021F778091E3008078812B4B
:101980008093E3008091E800877F8093E8000E94C5
:10199000FC028091E80080FFFCCF8091E30080682A
:1019A0008093E30082E0111183E0809318024FC11D
:1019B0008058823008F04BC120911C0230911D02EA
:1019C0002C3DE3E03E07A1F583E08A838AE2898328
:1019D0004FB7F894DE01139620E03EE051E2E32F8A
:1019E000F0E050935700E49120FF03C0E295EF70C0
:1019F0003F5FEF708E2F90E0EA30C0F0C7968D9376
:101A00009D932F5F243159F74FBF8091E800877F66
:101A10008093E8006AE270E0CE0101960E94A8037C
:101A20008091E8008B778093E80011C1C096E7CFE2
:101A300080911E0290911F02432F5527433051057C
:101A400009F44AC078F54130510509F47AC08BE5B4
:101A500090E0E9EFF3E04230510509F0F8C0209141
:101A6000E800277F2093E800209120023091210296
:101A70008217930708F49C0140E02115310509F015
:101A800065C0411163C08091E80082FDC9CF80919B
:101A90001802882329F2853019F28091E80083FF2B
:101AA000F2CFBECF4132510509F43CC0423251055C
:101AB00009F0CDC08330910508F0C9C0FC01EE0FDC
:101AC000FF1FE75AFE4F0190F081E02D8A5A9E4F8A
:101AD000DC018C9190E01AC0332721303105D1F020
:101AE0002115310561F02230310509F0B0C0E6E67C
:101AF000F4E0E4918E2F90E0E6E6F4E007C0ECE835
:101B0000F4E0E4918E2F90E0ECE8F4E0009709F423
:101B10009EC0A5CFE0E7F4E0E4918E2F90E0E0E7EF
:101B2000F4E0F4CF8330910508F091C0880F991F3D
:101B3000FC01E15AFE4F0190F081E02D89E090E038
:101B40008ECF82E190E0E4E5F4E089CF8091180245
:101B5000882309F465CF853009F462CF8091E800CD
:101B600083FD5ECF8091E80082FD8DCF8091E800FB
:101B700080FF83CF9091F3008091F2002115310511
:101B800019F08830910550F041E0089709F040E0E5
:101B90008091E8008E778093E8006FCF4491409366
:101BA000F1003196215031090196E8CF803809F0D3
:101BB0004EC08091E800877F8093E80080911902F1
:101BC0008093F1009DCE811142C010911C02123011
:101BD000F0F58091E800877F8093E8001093190268
:101BE0000E94FC02112311F084E005C08091E30003
:101BF00087FDFACF81E08093180242E061EC81E03A
:101C00000E941B0342E261EC84E00E941B0342E25B
:101C100061EC82E00E941B0342E260EC83E00E94E0
:101C20001B038091180213C080911C02813079F44B
:101C300081E0933009F080E0809317021092E90070
:101C40008091E800877F8093E8000E94FC028091E9
:101C5000E80083FF0AC08091E800877F8093E80056
:101C60008091EB0080628093EB00AA96E3E00C94F5
:101C7000971F0E946F0B2FEF84E39CE02150804060
:101C80009040E1F700C0000088E19CE00FB6F894B6
:101C9000A895809360000FBE90936000FFCFA8E0EE
:101CA000B0E0E5E5FEE00C94721F8E010F5F1F4F60
:101CB00088E0F80111928A95E9F794E4E92E91E021
:101CC000F92E6801AA24A394B12CF70181917F0118
:101CD0008F3F09F446C0F894E82FE295EF70F0E0EA
:101CE00021A18F70A50102C0440F551F8A95E2F70C
:101CF000CA01922F982B91A392A18095892382A348
:101D0000789400C0E8E4F1E021E030E0912C812CEF
:101D100041914F3F09F467C0A42FA295AF70B0E086
:101D200090968C9190E04F7002C0959587954A955A
:101D3000E2F780FD58C0C901882A992A220F331F73
:101D400051E0E635F50721F7F701319780818F3FA4
:101D500011F00E94EB0580EA8A95F1F7F601918275
:101D60008082F2E0CF0ED11C48E4E41641E0F40694
:101D700009F0ABCF48E050E0B80181ED91E00E945E
:101D8000F91F892B99F188E0F801A1EDB1E00190EC
:101D90000D928A95E1F781E08093D0010E941904A9
:101DA0009093CF018093CE018091CE019091CF018D
:101DB0000E940A040597F0F048E050E061ED71E000
:101DC00086EE91E00E94F91F892BC9F088E0E1EDD1
:101DD000F1E0A6EEB1E001900D928A95E1F781E085
:101DE0001092D00108C090E080E0A6CF8091D00191
:101DF0008111DACF80E02896ECE00C948E1F80E011
:101E0000EFCF68EE7EEF90E080E00E94E31F60E09D
:101E100082E090E00E94C51F60E083E090E00E94B5
:101E2000C51F1092CD0160E084E090E00E94C51FC4
:101E300064E082E290E00E94C51F60E085E090E0EF
:101E40000E94C51F60E086E090E00E94C51F6FEF12
:101E500087E090E00E94C51F40E050E0BA0188E0B2
:101E600090E00E94D71F60E08DE090E00E94C51FC7
:101E700040E050E0BA0188E190E00E94D71F60E0A6
:101E800087E190E00E94C51F40E050E0BA018CE17C
:101E900090E00E94D71F70E060E080E290E00E9436
:101EA000E31F40E050E0BA0188E190E00E94D71FB4
:101EB00080E00E946E090E94880940E050E0BA016B
:101EC0008FE090E00E94D71F40E050E0BA0183E12C
:101ED00090E00E94D71F08958B3109F46FC040F540
:101EE0008B3071F078F4863009F451C020F48530DD
:101EF00059F180E00895873009F452C08830C9F75D
:101F000081E00895803109F467C068F48E3089F764
:101F10009091FC01892F8B7F92FF84608093FC015C
:101F200082FD56C0EDCF863159F3893149F3E1CFB7
:101F30008A3251F1B0F4873209F120F48E31C8F2BF
:101F40008D5156C08932A9F60E946F0B2FEF84E3A2
:101F50009CE0215080409040E1F700C000000E94CA
:101F6000DC08833440F48A3308F041C0853331F013
:101F7000883331F2BECF833409F0BBCF81E00E94B9
:101F80001D0B0E946F0BBCCF0E94010FB9CF809137
:101F9000FC01807F8093FC0181E08093FB01089528
:101FA0009091FC01892F8E7F90FF81608093FC01CE
:101FB00080FDA6CF817F8093FC01A2CF9091FC0190
:101FC000892F8D7F91FF82608093FC0181FF98CFE4
:101FD0008091FC018160EFCF9091FC01892F877F78
:101FE00093FF88608093FC0183FDF2CF89CF8953F2
:101FF00091E001C0990F8A95EAF7892FC0CFCF935E
:10200000C82F882309F452C08CEF8C0F813A08F056
:10201000CFC08091FB01813021F18823C1F0823053
:10202000D9F11092FB01EAE6F1E080E791E0DF01EF
:102030002D91C21709F4B0C08A179B07C9F76C2FFE
:1020400088E691E00E9425040E94620A2FC08091D8
:10205000CB01823241F78C2F0E946C0F811126C078
:10206000E2CF8091CB018232B1F3C43171F038F408
:10207000CB3049F0C03161F080E08170EFCFC932E0
:1020800021F0C833C9F781E0F8CF1092FB01F4CFFB
:1020900082E08093FB01F7CFC93209F43FC0E8F436
:1020A000C431E1F128F4C73009F45BC0CF91089541
:1020B00082EE8C0F8A30D0F7CD51C0937301C330BC
:1020C00009F446C0B0F5C13009F43FC08DE091E09D
:1020D000C230B1F110927301E9CFC03509F454C098
:1020E000B8F48AE0CF3411F7E0917101F0917201F8
:1020F0003097E1F22081082E000C990B820F911D80
:102100008F3F910509F00CF443C08FEF8083CECF51
:10211000C135E1F181E0C23539F3C8CF8091730157
:10212000882321F2109273011092720110927101B2
:10213000BDCFC53099F078F080E191E0C63051F61E
:102140009093720180937101B1CF8CE091E0F8CF50
:102150008FE091E0F5CF8EE091E0F2CF81E191E068
:10216000EFCF81E080930C0184E180930D018AE040
:1021700080930F018EE180930E0188E0809311011E
:1021800088E28093100192CF86EFAECF8FEFACCF75
:1021900097FFBCCF10828ACF2191C21303C0DF0109
:1021A00011971C928E179F07B9F70E94620A47CFBA
:1021B00080E28C0F883068F4C77021E030E001C005
:1021C000220FCA95EAF78091CB01822B8093CB0135
:1021D0003BCFEBE5EC0FE33040F4F0E0ED5EFE4F7B
:1021E000808190E00E94550461CFE8E5EC0FE73173
:1021F00050F4F0E0EE0FFF1FEA5EFE4F8081918108
:102200000E943F0453CFC03F08F450CF8C2F0E9450
:102210008F050E9478044ACF1F93CF93DF93182F26
:10222000D0E0C0E0893311F4C0E5D0E0812F0E94F6
:10223000FF0F209739F4812F0E94330BDF91CF914C
:102240001F9108958FE99FE00197F1F700C000000A
:102250002197EFCF0F931F93CF93DF93C62FD42FE8
:10226000022FFC0182818823A9F0609324020E943E
:1022700019049093230280932202C77081E001C069
:10228000880FCA95EAF70E94290BDF91CF911F9121
:102290000F91089580912402681332C08091220228
:1022A000909123020E940A04883C910548F510E2AF
:1022B0001D0FCD17B9F080E28C0F883040F4C77045
:1022C00081E001C0880FCA95EAF70E94220B1830FE
:1022D00048F481E09D2F977001C0880F9A95EAF726
:1022E0000E94290B802F0E940C11183070F6D770B5
:1022F00081E001C0880FDA95EAF70E94220BC5CF72
:10230000C77081E001C0880FCA95EAF7F6CFA5E053
:10231000B0E0EDE8F1E10C946D1F8C01FC018381CC
:102320009481892B31F08081918189238F3F09F03D
:102330008CC52596E1E10C94891F0E94D509F82EE1
:10234000682F89819A810E941D0869817A818F2D69
:102350000E94C7097C01F8018281882309F468C5BD
:10236000970122513F452031310508F034C58FEFE8
:1023700093E00E94B71F811128C0FEEEEF0E57EECA
:10238000852E99249394E11032C01C821B82442430
:1023900043944AE0342E74018FEFE81AF80AC4011E
:1023A0000E94B71F89831A82882379F09FEF980FC4
:1023B000933058F58A83498292E0890E911CC701B7
:1023C0000E94B71F8B83811121C08091C10187704A
:1023D00009F4AFCFF8018281882309F4AACF809154
:1023E000DA0182FFA6CF82E00E94D90AA2CF81142F
:1023F00024E0920651F3C4010E94B71F811101C06D
:10240000EA943FEF831A930ABECF4701FE0131964B
:102410007F01F7012081222309F4BDCF213009F08B
:1024200047C091818281913031F4F2E0EF0EF11CCE
:102430000E940C1107C0923049F422E0E20EF11C18
:102440000E94FF0F3FEFE31AF30AE3CF933031F41A
:1024500032E0E30EF11C0E94330BF4CF943021F0F4
:102460008FEFE81AF80AEECF92E0E90EF11C30E0A7
:1024700020E0B7016F5F7F4FF70141818053990BD7
:102480008A30910550F021503109E0F28FE99FE048
:102490000197F1F700C00000F6CF329EF001339EA5
:1024A000F00D11249C012E0F3F1F842F7B01E1CFE3
:1024B000E22FF0E0E754FE4F5490822F86958695E8
:1024C000869590E0FC01E755FE4F64902770712CD3
:1024D000022E02C0759467940A94E2F7E1E06E223E
:1024E0007724FC01E756FE4FA490B12C022E02C0C7
:1024F000B594A7940A94E2F7F1E0AF22BB24FC0163
:10250000E757FE4FC490D12C02C0D594C7942A95AA
:10251000E2F721E0C222DD246114710419F081EE9A
:102520000E94FF0FA114B10419F086EE0E94FF0F64
:10253000852D0E940C11A114B10419F086EE0E94A1
:10254000330B6114710419F081EE0E94330BC11436
:10255000D10409F477CF8CE26BCF81E00E94110B9C
:102560000E94C00A32CF81E00E94CC0AF9CF82E0FB
:10257000F5CF95EFE9169CE5F90609F46CC008F46F
:1025800066C027E245EE66EEF6EFEF16FCE5FF06C5
:1025900009F44AC4882309F469C41092240223E090
:1025A000E2162DE5F20608F05DC03AEFE3163CE5D1
:1025B000F30630F4C70182509C45449708F05FC091
:1025C0000E94540A9093DA018093D901F2E1EF1648
:1025D000FCE5FF0609F478C108F0B6C039E0E3165F
:1025E0003CE5F30609F44EC108F079C095E0E91620
:1025F0009CE5F90609F436C108F05FC0F3E0EF1678
:10260000FCE5FF0609F426C108F028C18091D90134
:10261000816032E0E3163CE5F30609F492C0609174
:10262000D901F090DA0184E090E00E94C51F6F2D7F
:1026300082E290E00E94C51F0E946F0BC6CE27E287
:1026400045EE65EEF1C326E241EE60EEEDC327E212
:1026500045EE64EEE9C326E241EE62EEE5C328E210
:1026600041E0EFCF85EAE8168DE5F80609F4A8CF3A
:10267000F0F4E1E6EE16EDE5FE0609F4A1CF96E1F1
:10268000E9169CE5F90609F00AC48091CB018A7A23
:1026900091E009F490E09093700169E2811165E3A3
:1026A00088E691E00E9425040E94620A8ECEC7014E
:1026B0008D5A9D45039718F783CF87E0E8168CE580
:1026C000F80609F4DBC08091D901806198E0E91631
:1026D0009CE5F906B0F18091D901806432C0EDE04B
:1026E000EE16ECE5FE0609F4D7C0A0F48091D901FE
:1026F0008E7F2BE0E2162CE5F20619F18091D901CC
:102700008C603CE0E3163CE5F306D8F08091D901FB
:102710008D7F17C08FE0E8168CE5F80609F4CCC071
:1027200008F4BEC0E0E1EE16ECE5FE0609F4C8C010
:102730008091D9018F7BF1E1EF16FCE5FF0609F0EE
:102740006ECF8093D9016BCF2FEFE2162CE5F20606
:1027500009F4C4C0D8F58AEFE8168CE5F80609F448
:1027600085C0D0F4E4E1EE16ECE5FE0609F4C4C041
:1027700008F4B0C025E1E2162CE5F20609F04FCFCF
:102780008091D90182FB992790F921E0922790FB53
:1027900082F990FB83F9D5CF3CEFE3163CE5F306D5
:1027A00009F482C008F466C09DEFE9169CE5F906BD
:1027B00009F47EC08091DA018360EEEFEE16ECE55D
:1027C000FE0609F02CCF8093DA0129CFF1E6EF164F
:1027D000FDE5FF0609F49BC0A0F431E0E3163DE5FA
:1027E000F30609F492C008F47DC060E092E0E916B7
:1027F0009DE5F90609F013CF8EE090E00E94C51F19
:102800000ECFEDEAEE16EDE5FE0601F168F49091CB
:10281000D901892F8E7F90FF816025EAE2162DE590
:10282000F20609F48ECFFBCE3EEAE3163DE5F30651
:1028300079F18FEAE8168DE5F80609F0F0CE90916F
:10284000DA01892F877F93FF8860BDCF8091DA01FD
:102850008860B9CF8091D901826073CF8091D9010E
:1028600084606FCF8091D90188606BCF8091DA014D
:102870008160A9CF8091DA018260A5CF8091D901D2
:1028800080625FCF0E946F0B8091D901806859CF21
:102890008091DA01877F97CF8091D9018B7F51CFCB
:1028A0008091D901877F4DCF8091DA018E7F8BCFC8
:1028B0008091DA018D7F87CF8091D9018F7E41CFC2
:1028C0008091D9018F7D3DCF0E946F0B8091D901FE
:1028D0008F7737CF8091D901837F33CF8091DA0111
:1028E0008C7F71CF8091DA01982F909591708E7FB7
:1028F000892B90FB81F967CF0E946F0B9091D901D2
:10290000892F97FB87F980581CCF61E075CF909194
:10291000D901892F8F7E94FF806113CF85E3B1C2E7
:102920000E946F0BEFEFF4E32CE0E150F040204009
:10293000E1F700C000000E94DC088091DA0182FB10
:10294000882780F991E089270E94F50AF8018281A1
:10295000E080F180882309F445C0C7010E94D509B1
:10296000D82E682FC7010E941D08B7018D2D0E9427
:10297000C7090E9445067C01882EF801D280B580E7
:10298000B2943FE0B3228091C1018770C1F0AD2CB9
:10299000DD20B1F08F2D807F803421F080E28E0D1C
:1029A000883068F08091DA0182FF09C082E00E94DD
:1029B000D90A8091C1018770AA24A3948111A12C06
:1029C0009F2C92942FE09222FBE0F91508F479C035
:1029D000E92DF0E0EE5EFF4D0C945F1F81E0B4CF77
:1029E00080E0B2CFC7010E94E907D82EBECF2F2DBD
:1029F0002F70C22E8F2D807F19F0C29490EFC922C4
:102A0000DD20B9F0CC2069F080E28E0D883010F026
:102A1000811009C08091CB01C82AC092CB010E94CD
:102A2000620A8E2D4CC08091CA01C82AC092CA0188
:102A3000F6CF8E2D0E94330BCC2009F442C080E2E9
:102A40008E0D883010F0811004C08C2D0E94D807A4
:102A500006C0C0948091CA01C822C092CA010E94D7
:102A6000620A2FC03F2D3F70C32E8F2D807F803292
:102A700019F0C29480EFC822882089F081E088167E
:102A800009F46AC0DD2009F474C0BB2009F46AC0EF
:102A9000F801858180FFC5CF8F70858363C0209149
:102AA000DA0122FD37C0DD2079F1CC2039F08091A8
:102AB000CB01C82AC092CB010E94620A80E00E942A
:102AC000FF0F292D2850330B2430310520F40E94AC
:102AD0006B040E945408AA2009F42BCC8091C101F8
:102AE00080FD27CCF80112828595859585950E94F9
:102AF000110BC8010E9487118091C10185958595B0
:102B000085950E94CC0A15CC80E00E94330BCC2026
:102B1000C1F29BCFDD2099F09091CC018C2D892BB7
:102B2000B11003C00E94290BCCCFE1E0BE12FACF56
:102B300022FFC7CF981729F28093CC01C2CFB110E2
:102B400006C00E94D2078C2D0E94220BBACFF1E062
:102B5000BF1609F4B6CFF5CFDD2031F025E02B15F7
:102B600008F4AFCF8C2DDECF34E03B1508F4A9CFAD
:102B7000EACFBB2041F3F9E38F1209C02FEF37EE04
:102B800083E0215030408040E1F700C000008E2DEE
:102B90000E94330B96CF8F2D86958695837061F0BA
:102BA000813009F08ECFC7019370D11002C090E040
:102BB00080E00E943F0485CFC7019370D11002C00E
:102BC00090E080E00E9455047CCF8E2DDD2029F01E
:102BD0000E948F050E94780474CF0E949F04FACF50
:102BE0008F2D837091F5D1106CCF4E2D4295469567
:102BF0004770440F440F8E2D8F70042E01C0880F34
:102C00000A94EAF72E2D2071E4FE07C02FE030E091
:102C100001C0220F4A95EAF720953F2D369536954B
:102C20003370323069F050F44091CD01313029F0E9
:102C3000822B84230E941D0B44CF842B822BFACF3E
:102C4000282B8091CD018227F5CF8695DD2011F0CC
:102C50008F2D8170882309F434CF4E2D42954695EF
:102C60004770440F440F8E2D8F70042E01C0880FC3
:102C70000A94EAF72E2D2071E4FE07C02FE030E021
:102C800001C0220F4A95EAF720953F2D36953695DB
:102C90003370323069F050F440912502313029F020
:102CA000822B84230E94BB0A0CCF842B822BFACF69
:102CB000282B809125028227F5CF9F2D9F70F92E1A
:102CC000DD2029F0892F0E94110B8E2D2BCF8E2D08
:102CD0000E94220B8F2D0E94CC0AF3CE8E2DE2EFA4
:102CE0008E16B1F1E81570F0F0EF8F16D1F021EFEC
:102CF000821691F0DD2009F45EC0B11092CE8F2DC6
:102D00008F712AC033EF831651F194EF8912F2CFFD
:102D10008091DA0182FD2FC08F2D8F71DD20D9F2D5
:102D20001BC0DD2081F0E4E0EB1508F4CACE2F2DA6
:102D30002F7181E090E001C0880F2A95EAF7909109
:102D400025028927AFCFF5E0FB1508F4BACEEFCF07
:102D50008F2D8F71D110BFCF0E94110BB2CE80E0AA
:102D6000DD2009F49FCF9F2D9F7181E001C0880F66
:102D70009A95EAF797CFDD2099F02F2D2F71F22E3B
:102D8000822F0E94110B8091DA0182FF07C038E088
:102D9000F39EC001112483608093C1018F2DDCCF8D
:102DA00081E00E94D90A81E08B1508F08ACE82E08A
:102DB0000E94D90A86CEBB2059F0893309F0E7CEAC
:102DC0009FEFE7EEF3E09150E040F040E1F7DDCE19
:102DD0008F2D8F7180CFF0E1EF16FFE5FF0609F42C
:102DE000BCCB21E1E2162FE5F20609F4C0CB93EF4C
:102DF000E9169CE5F90609F426CC08F0BACBF8ED03
:102E0000EF16FCE5FF0609F41ACC29EDE2162CE5D5
:102E1000F20609F424CC37EDE3163CE5F30609F09D
:102E2000B9CB26E241EE61EEC8010E942A11CDCA5B
:102E300030E1E3163FE5F30609F495CB91E1E9169D
:102E40009FE5F906A1F682E08FCB85E0DE011196C1
:102E500001900D928A95E1F7F801228189819A818A
:102E600021116BCA0E94E907F82E6FCAF6E1EF162E
:102E7000FCE5FF0609F06ACD8091700181114ECD0D
:102E800089E2EAE6F1E020E731E09191891303C09D
:102E9000DF0111971C922E173F07B9F705CC2AE5E1
:102EA000E2162DE5F20609F499CD78F4E1148CE5EB
:102EB000F80609F435CD9EEDE9169CE5F90609F012
:102EC00045CD0E94010F0E94390EECE5EE16EDE5AE
:102ED000FE0609F432CD08F483CD27EAE2162DE58B
:102EE000F20689F333CD1F93CF93DF9380918E0148
:102EF000807F09F049C080918B01882309F444C088
:102F00008091C001D0918F016091890170918A01F7
:102F1000A0918C01B0918D01C62FC72316E0D81760
:102F200099F190E0109711F0CF3F19F40196877056
:102F3000F6CF189F9001199F300D1124F901E05729
:102F4000FE4F41814713F2CF40814613EFCF4281BC
:102F50004111ECCF438154814A1B5B0B483C510526
:102F600028F780918E018F70806180938E01F90126
:102F7000EB56FE4F80818F708061808389E891E0FD
:102F80000E9487110E94DF07DF91CF911F91089562
:102F9000A1E1B0E0EEECF7E10C94741F8C0185E048
:102FA000F801DE011D9601900D928A95E1F7F80176
:102FB000E28089E8A82E81E0B82E60918C017091A2
:102FC0008D016115710509F426C190918901409127
:102FD0008A01892F84238F3F09F41DC1208131810B
:102FE000C380D480F0908B01F601E61BF70BFF2025
:102FF00009F4DCC080918E01582F507FE83CF10528
:1030000008F09FC051116BC0FE2C431314C09213E3
:1030100012C0E11010C08F70806180938E01C501D5
:103020000E94871180918E01F80185838F2D619612
:10303000EAE00C94901FC114D10429F0822F83235D
:103040008F3F09F003C180E0F82FF170DF2E80FF81
:103050003CC08091C00140918F0156E0841315C09F
:103060002D873E878D859E850E94040A292F2295F3
:103070002F702230F0F0243018F59F70F1F0F80135
:103080009581907FD1F4D12C1EC090E0589FF00123
:10309000599FF00D1124E057FE4F6181361306C091
:1030A0006081261303C06281E6120FC0019687700B
:1030B000D5CF9F7011F0882331F3805E883018F3EC
:1030C000C8010E948711FD2CB1CFEE2009F4AECFCC
:1030D00080918E01816080938E01F12CA7CF4313E4
:1030E00006C0921304C0F801EE2009F479C0C801AB
:1030F0000E94110A882309F1EE20F9F080918E01D7
:10310000803270F02091890130918A0138872F83B5
:103110001986DB86CA868C87CE0107960E948711A6
:1031200086E0F801A9E8B1E001900D928A95E1F7F7
:103130000E947317FF24F39479CFC8010E9487116E
:10314000F9CF51110AC089E891E00E94871186E009
:10315000F50111928A95E9F7C0CF43130FC092137E
:103160000DC0E1100BC0F8018583C8010E948711D2
:1031700086E0F50111928A95E9F758CFC8010E94BF
:10318000110A8823D1F2EE20C1F280918E018032A3
:1031900038F22091890130918A013A8329831B8278
:1031A000DD82CC828E83CE010196B8CFE83CF1055A
:1031B000F8F6FE2CEE2009F243131FC092131DC037
:1031C00080918E0180FD10C0982F907F69F0F801EA
:1031D0008583903F31F0982F907F905F8F70892B7F
:1031E0008583C8010E94871186E0F801A9E8B1E053
:1031F00001900D928A95E1F719CFC8010E94110A3A
:1032000081118ECF80918E01816080938E01C801E3
:103210000E9487110BCFEE2009F48FCFC8010E94C6
:10322000110AF82E882309F488CF86E0F801A9E86E
:10323000B1E001900D928A95E1F78091890190911A
:103240008A010E94040A0E947317F0CE81E08E2545
:10325000FBCEA7E1B0E0EFE2F9E10C947B1F4B8BD2
:103260005C8B6D8B7E8B8F8B61111092CA011A8AD9
:10327000198A85E0FE017396DE011D9601900D927C
:103280008A95E1F786E0FE013D96DE0117960190F2
:103290000D928A95E1F7CE0107960E94C817882300
:1032A00059F016E08091C00190918F01891343C0BD
:1032B0006796E3E00C94971F86E0FE013796DE01E7
:1032C000119601900D928A95E1F78A859B85892B4D
:1032D00041F38F81988589238F3F19F320918F01C6
:1032E00030E0C9010196877099274091C0014817C5
:1032F000190671F40E946F0B10928F011092C00199
:1033000086E0E9E8F1E0DF011D928A95E9F7C9CF8F
:1033100096E0929FD001939FB00D1124A057BE4F0D
:10332000FE01319601900D929A95E1F780938F01FD
:103330000E94DF07B6CF819FC001112480579E4FA6
:103340000E94C817882309F4B3CF8091C00190E090
:103350000196877099278093C001A4CF1F920F9286
:103360000FB60F9211242F933F934F935F936F9358
:103370007F938F939F93AF93BF93CF93DF93EF93FD
:10338000FF93D091E900DF708091EC00C82FC170ED
:1033900080FDC0E81092E9008091F000877F809363
:1033A000F00078940E947B0B1092E9008091F0006D
:1033B00088608093F000CD2BCF70C093E900FF911F
:1033C000EF91DF91CF91BF91AF919F918F917F91BD
:1033D0006F915F914F913F912F910F900FBE0F9082
:1033E0001F9018951F920F920FB60F9211242F93D2
:1033F0003F934F935F936F937F938F939F93AF937D
:10340000BF93EF93FF938091E10082FF09C0809109
:10341000E20082FF05C08091E1008B7F8093E10094
:103420008091DA0080FF24C08091D80080FF20C006
:103430008091DA008E7F8093DA008091D90080FF3E
:103440009DC080E189BD82E189BD09B400FEFDCF48
:1034500081E08093180280910B02811109C00E94C3
:1034600082020E944D038091E20084608093E2001A
:103470008091E10080FF17C08091E20080FF13C0BF
:103480008091E2008E7F8093E2008091E200806173
:103490008093E2008091D80080628093D80019BCAC
:1034A00085E0809318028091E10084FF2BC0809119
:1034B000E20084FF27C080E189BD82E189BD89B532
:1034C000982F917080FFFBCF8091D8008F7D8093E3
:1034D000D8008091E1008F7E8093E1008091E2002E
:1034E0008F7E8093E2008091E20081608093E20011
:1034F00080911902882309F447C084E08093180260
:10350000809118028091E10083FF27C08091E20042
:1035100083FF23C08091E100877F8093E10082E0F8
:1035200080931802109219028091E1008E7F80939F
:10353000E1008091E2008E7F8093E2008091E200C2
:1035400080618093E20042E060E080E00E941B0323
:103550008091F00088608093F000FF91EF91BF911F
:10356000AF919F918F917F916F915F914F913F911B
:103570002F910F900FBE0F901F90189519BC1092AD
:10358000180210920B0274CF8091E30087FD93E044
:1035900090931802B5CF78941F921FB61F921124F2
:1035A0008F939F93AF93BF938091040290910502F4
:1035B000A0910602B09107020196A11DB11D809352
:1035C000040290930502A0930602B0930702BF91F4
:1035D000AF919F918F911F901FBE1F9018951F92C2
:1035E0001FB61F9211248F939F93AF93BF93809127
:1035F0000302811113C08091040290910502A091F1
:103600000602B09107024196A11DB11D80930402EC
:1036100090930502A0930602B0930702BF91AF9169
:103620009F918F911F901FBE1F901895CDB7DEB749
:10363000AA970FB6F894DEBF0FBECDBF85B78068DE
:1036400085BF85B7806885BF84B7877F84BF0FB685
:10365000F894A89580916000886180936000109232
:1036600060000FBE80E890E00FB6F8948093610090
:10367000909361000FBE89EE95E09093670180936F
:1036800066010E9482020E944D038091E2008460E4
:103690008093E2007894809118028823A1F0109121
:1036A000E9001F709091EC00892F817090FD80E8F7
:1036B000182B1092E9008091E80083FD0E947B0B9B
:1036C0001F701093E90082E084BD93E095BD9AEFEE
:1036D00097BD80936E000E943B0A811102C00E9438
:1036E000880981E90E94EB0580E90E94EB0584E9E5
:1036F0000E94EB0586E60E94EB0508E411E076E502
:10370000E72E71E0F72ED8018D918D018F3F11F0DA
:103710000E94EB05E016F106B1F788E0E6EEF1E075
:10372000DF01282F1D922A95E9F7E1EDF1E0DF0195
:103730001D928A95E9F790E080E00E94BF1F883EC5
:103740009E4F21F40E943B0A811102C00E94010F8A
:1037500082E090E00E94B71F8093FC010E94540A0F
:103760009093DA018093D9010E944F0EEFE3FCE9B8
:103770003197F1F700C000000E944F0E8091E601E2
:1037800080FF08C06FEF7FEF90E080E00E94E31FB2
:103790000E94DC0883E090E00E94B71F0E941D0B8E
:1037A000559A5D9880E091E0909300028093FF012C
:1037B0005EEE452E51E0552E65EE662E61E0762ECA
:1037C0008091180200E112E1853009F499C00E944D
:1037D0004F0E3DEDA32E31E0B32E46EE842E41E098
:1037E000942ED401F501219131918D919D916E1608
:1037F0007F0609F491C028173907A9F3312CF40189
:10380000019111914F01D501CD90DD905D01C01660
:10381000D10659F1C026D126212CEE24E394F12CB7
:10382000C6018E219F21892BB1F02EA23FA221E05B
:10383000C8018E219F21892B09F420E028A70E942E
:1038400019048160782F9AA789A74EA15FA168A566
:103850008AA50E9429192394EE0CFF1CBEE02B12AE
:10386000DFCFF5013297118300833394E4E03E12F9
:10387000C6CF8FB7F8944091040250910502609131
:103880000602709107028FBF69C0809118028430D0
:1038900039F180E00E9454081092030288E190E020
:1038A000A0E40FB6F894A895809360000FBEA09393
:1038B000600083B7817F846083BF83B7816083BFEB
:1038C0007894889583B78E7F83BF0FB6F894A895B8
:1038D00080916000886180936000109260000FBE4C
:1038E00080911702882361F00E944F0EE6EEF1E00E
:1038F00081919191892B09F0AAC24E165F06C1F7FA
:1039000080911802853009F4C0CF0E946F0B0E948D
:103910006B040E9454085BCF2817390709F06ECF5B
:103920000E9419048C018091DB019091DC01081741
:103930001907A1F08FEF89A38AA31BA20E94190483
:103940008160782F9DA38CA349A15AA16BA18DA161
:103950000E9429191093DC010093DB0186E0E5EF5A
:10396000F1E0DE01119601900D928A95E1F7109237
:10397000F7011092F8011092F9011092FA018B816F
:103980009C81892B91F08091F3019091F4010E9428
:103990000A04AC019091EF01992309F4B5C080911C
:1039A0000D018417150608F4BDC08D819E81892BF9
:1039B00009F44AC08091F1019091F2010E940A0439
:1039C0009C019091EE01992309F460C221353105E3
:1039D000D8F19F3F19F09F5F9093EE011D81112355
:1039E00059F00E9418059FEF11160CF491E0899F81
:1039F000802D11248093F9011E81112359F00E941A
:103A000018059FEF11160CF491E0899F802D112469
:103A10008093FA013091F9013323B1F02091FA013A
:103A2000222391F045EB3403C0011124992309F4BA
:103A3000BAC09093F90145EB24039001112433237C
:103A400009F4B5C03093FA0146E050E0BE016F5F63
:103A50007F4F85EF91E00E94F91F892B61F48091DF
:103A6000F7019091F801892B9091F901892B9091A0
:103A7000FA01892B11F00E94780486E0FE0131964C
:103A8000A5EFB1E001900D928A95E1F70E946B04D9
:103A90009091E501891779F08093E5019FB7F8943B
:103AA0004091040250910502609106027091070254
:103AB0009FBF0E94540880911802843009F080CE84
:103AC00083E08093E9008091E80082FF79CE8091C5
:103AD000E80090E085FF06C00E94A102882309F457
:103AE0006AC091E08091E8008B778093E800992389
:103AF00009F466CEE981E150E33108F0F2C0F0E06C
:103B0000E25EFF4D0C945F1F20910C01FAE02F9FA5
:103B1000900111242417350708F047CF9F5F909339
:103B2000EF0102C09F3FD1F71B81112359F00E9482
:103B300051059FEF11160CF491E0899F802D1124FF
:103B40008093F7011C81112359F00E9451059FEFCA
:103B500011160CF491E0899F802D11248093F801B7
:103B60003091F701332309F420CF2091F80122236B
:103B700009F41BCF45EB3403C0011124992359F0FC
:103B80009093F70145EB240390011124332339F07E
:103B90003093F8010ACF81E08093F701F3CF81E001
:103BA0008093F80102CF81E08093F90144CF81E056
:103BB0008093FA0149CF80E2E82EF12C8E010F5F4D
:103BC0001F4F8091E80085FD0AC08091E8008B7747
:103BD0008093E8000E94A102882399F382CF80910C
:103BE000F100D8018D938D01B1E0EB1AF10849F78E
:103BF00078CF1A828AE08B833FC08A81823009F4B1
:103C00003CC18330A9F0813009F06BC02FB7F89424
:103C10006091040270910502809106029091070262
:103C20002FBF0E94651F6B837C838D839E8324C07E
:103C30008091E6019091E7019827892798279C8336
:103C40008B838091E8019091E90198278927982733
:103C50009E838D838091EA019091EB0198278927BB
:103C6000982798878F838091EC019091ED01982798
:103C7000892798279A87898780911802843009F0CC
:103C80009FCD1091E9001F709091EC00892F8170F9
:103C900090FD80E8182B82E08093E9008091E80095
:103CA00080FF0DC050E040E060E270E0CE01019680
:103CB0000E94D2028091E8008E778093E8001F7006
:103CC0001093E9007DCD8A81823059F46B817C812B
:103CD0008D819E810E94651F86E290E00E94C51F33
:103CE000CBCF8FEF8983C8CF4C816B818A810E94B3
:103CF00098099827892798279E838D83BDCF2D818A
:103D00003E813227232732274C816B818A810E9492
:103D10001009B2CF0E943609AFCF80E18A83ACCFC1
:103D200082E08A8389E167CF0A811B8110270127FE
:103D30001027FE0131967F01CC80CF018C0D911DA3
:103D40006C01C80189519E4FCE14DF0409F494CF51
:103D50000931A2E01A0750F40E94B71FF7018483CB
:103D60000F5F1F4FBFEFEB1AFB0AEBCFD701149683
:103D70001C92F6CF0A811B81102701271027FE0114
:103D800031966F01EC80E00EF12EF11CC8018951D3
:103D90009E4F0E151F0509F46FCF0931F2E01F0782
:103DA00028F4D60114966C910E94C51FBFEFCB1A60
:103DB000DB0A0F5F1F4FEACF0E9400095DCF84E04E
:103DC000ADCF0A811B81102701271027FE013196F4
:103DD0007F01CC80CF018C0D911D6C01C8018796AD
:103DE000EC14FD0409F448CF003CA1E01A0750F49C
:103DF0000E94B71FF70184830F5F1F4FBFEFEB1ABD
:103E0000FB0AECCFD70114961C92F6CF0A811B81D6
:103E1000102701271027FE0131966F01EC80E00E7C
:103E2000F12EF11CC8018796E016F10609F424CFA3
:103E3000003CF1E01F0728F4D60114966C910E9413
:103E4000C51FBFEFCB1ADB0A0F5F1F4FEBCF09BDBA
:103E500019BD09B400FEFDCF8091D8008F7D8093FD
:103E6000D8008091E00082608093E0008091E000C3
:103E700081FDFCCF0E946F0B43CD86E290E00E9453
:103E8000B71F1B821C821D828E83F6CE2B3031051C
:103E900008F0A1CDD9CD97FB072E16F4009407D0DA
:103EA00077FD09D00E94A31F07FC05D03EF4909532
:103EB00081959F4F0895709561957F4F0895EE0FFE
:103EC000FF1F0590F491E02D099469279627692733
:103ED00078278727782708952F923F924F925F92F5
:103EE0006F927F928F929F92AF92BF92CF92DF920A
:103EF000EF92FF920F931F93CF93DF93CDB7DEB76F
:103F0000CA1BDB0B0FB6F894DEBF0FBECDBF099402
:103F10002A88398848885F846E847D848C849B8459
:103F2000AA84B984C884DF80EE80FD800C811B8167
:103F3000AA81B981CE0FD11D0FB6F894DEBF0FBE96
:103F4000CDBFED010895AA1BBB1B51E107C0AA1FFD
:103F5000BB1FA617B70710F0A61BB70B881F991F2A
:103F60005A95A9F780959095BC01CD010895F999CE
:103F7000FECF92BD81BDF89A992780B50895A8E13A
:103F8000B0E042E050E00C94EB1F262FF999FECFF1
:103F900092BD81BDF89A019700B4021639F01FBA9C
:103FA00020BD0FB6F894FA9AF99A0FBE08950396B9
:103FB000272F0E94C61F0E94C51F252F0E94C61FC3
:103FC000242F0C94C61F0196272F0E94C61F0C9405
:103FD000C51FDC01CB01FC01F999FECF06C0F2BD83
:103FE000E1BDF89A319600B40D9241505040B8F7B7
:103FF0000895FB01DC0104C08D910190801921F42A
:1040000041505040C8F7881B990B0895F894FFCF92
:104010005C0C840C270E840C270EB70CD80C270ED2
:10402000D60DE30DF714F71432153215CB15E5153F
:1040300061156115F0155D166E166E16F91DFD1DE4
:10404000631E741E7F1E8A1E711E711E711E711EDC
:10405000711E8D1E901E941EBA1EDC1EDF1EE11EF8
:02406000061F39
:104062000704AF088E0889088408060401141E0A92
:10407200280801818283E200E900EA00B500B60067
:10408200B700CD008301CC008A0192019401210284
:10409200230224022502260227022A02B300B400C8
:1040A2006F00700091909466F4F5F6F73133323672
:1040B20097C63435929340227B49012701AC000B0D
:0640C20004240444040084
:00000001FF
